:020000040800F2
:1000000000000320FD1A0008F1180008F718000886
:10001000FD18000803190008091900080000000075
:100020000000000000000000000000000F190008A0
:100030001D190008000000002B19000839190008DC
:100040004D1B00084D1B00084D1B00084D1B0008F0
:100050004D1B00084D1B00084D1B00084D1B0008E0
:100060004D1B00084D1B00084D1B00084D1B0008D0
:100070004D1B00084D1B00084D1B00084D1B0008C0
:100080004D1B00084D1B0008451900084D1B0008BA
:100090004D1B00084D1B00084D1B00085919000896
:1000A0004D1B00084D1B00084D1B00084D1B000890
:1000B000691900084D1B00084D1B00084D1B000866
:1000C0004D1B00084D1B00084D1B00084D1B000870
:1000D0004D1B00084D1B00084D1B00087D19000832
:1000E00091190008A11900084D1B00084D1B0008BC
:1000F0004D1B00084D1B00084D1B00084D1B000840
:100100004D1B00084D1B00084D1B00084D1B00082F
:10011000B51900084D1B00084D1B00084D1B0008B9
:100120004D1B00084D1B00084D1B00084D1B00080F
:100130004D1B00084D1B00084D1B00084D1B0008FF
:100140004D1B00084D1B00084D1B00084D1B0008EF
:100150004D1B00084D1B00084D1B00084D1B0008DF
:100160004D1B00084D1B00084D1B00084D1B0008CF
:100170004D1B00084D1B00084D1B0008000000002F
:100180004D1B00084D1B00084D1B00084D1B0008AF
:100190004D1B00084D1B00084D1B00084D1B00089F
:0C01A0004D1B00084D1B00084D1B000803
:1001B00010B5054C237833B9044B13B10448AFF3A1
:1001C00000800123237010BD6800002000000000A3
:1001D0009C88000808B5034B1BB103490348AFF3E3
:1001E000008008BD000000006C0000209C88000812
:1001F000034613F8012B002AFBD1181A0138704767
:1002000001F0FF01102A2BDB10F0070F08D010F8C7
:10021000013B013A8B422DD010F0070F42B3F6D1CB
:10022000F0B441EA012141EA014122F007047FF0E4
:1002300000070023F0E80256083C85EA010586EA3B
:10024000010685FA47F5A3FA87F586FA47F6A5FA77
:1002500087F68EB9EED1F0BC01F0FF0102F0070283
:1002600032B110F8013B013A83EA010313B1F8D12E
:100270000020704701387047002D06BF354603380F
:10028000073815F0010F07D1013015F4807F02BF48
:10029000013015F4C03F0130F0BC0138704700BF99
:1002A00053B94AB9002908BF00281CBF4FF0FF31DD
:1002B0004FF0FF3000F070B9ADF1080C6DE904CEDD
:1002C00000F006F8DDF804E0DDE9022304B0704731
:1002D0002DE9F047089E0D4604460F46002B4AD1F3
:1002E0008A42944665D9B2FA82F343B102FA03FC1A
:1002F000C3F120029F4020FA02F217439C404FEACC
:100300001C4E1FFA8CF5B7FBFEF1220C0EFB117789
:1003100042EA074201FB05F090420AD91CEB0202B7
:1003200001F1FF3780F01C81904240F219810239BF
:100330006244121AA4B2B2FBFEF00EFB102244EA91
:10034000024400FB05F5A5420AD91CEB040400F1A8
:10035000FF3280F00781A54240F2048164440238F4
:1003600040EA0140641B00211EB1DC400023C6E9C5
:100370000043BDE8F0878B4208D9002E00F0ED80E5
:100380000021C6E900050846BDE8F087B3FA83F10D
:10039000002949D1AB4202D3824200F2F880841A8C
:1003A00065EB030201201746002EE2D0C6E90047A4
:1003B000DFE702B9FFDEB2FA82F3002B40F0908053
:1003C0008A1A4FEA1C471FFA8CFE0121B2FBF7F58F
:1003D00007FB1520220C42EA00420EFB05F090427A
:1003E00008D91CEB020205F1FF3802D2904200F25C
:1003F000CB804546121AA4B2B2FBF7F007FB1022DD
:1004000044EA02440EFB00FEA64508D91CEB040496
:1004100000F1FF3202D2A64500F2BB801046A4EBE9
:100420000E0440EA05409FE7C1F120078B4022FA05
:1004300007FC4CEA030C05FA01F420FA07F3FD402F
:100440004FEA1C492343B5FBF9F81FFA8CFE09FB60
:1004500018551C0C44EA054408FB0EF5A54202FAA7
:1004600001F200FA01F00BD91CEB040408F1FF3A89
:1004700080F08880A54240F28580A8F1020864449B
:10048000641B9DB2B4FBF9F309FB134445EA044431
:1004900003FB0EFEA64508D91CEB040403F1FF354F
:1004A0006CD2A6456AD9023B644443EA0843A3FBE5
:1004B0000295A4EB0E04AC42C846AE4656D353D0C8
:1004C00056B1B0EB080264EB0E0404FA07F7CA4019
:1004D000CC401743C6E9007418460021BDE8F087F8
:1004E000C3F1200102FA03FC20FA01F225FA01F11E
:1004F0009D402A434FEA1C471FFA8CFEB1FBF7F0E0
:1005000007FB1015110C41EA054100FB0EF58D4269
:1005100004FA03F408D91CEB010100F1FF382FD2D3
:100520008D422DD902386144491B92B2B1FBF7F5D7
:1005300007FB151142EA014205FB0EF1914208D971
:100540001CEB020205F1FF3816D2914214D9023D8C
:100550006244521A45EA004138E73146304608E71E
:100560003946E6E61046FBE64845A9D2B9EB020853
:1005700065EB0C0E013BA3E74546EAE72B4694E703
:100580004046D1E7D0467BE7023D624432E7084669
:100590000AE76444023842E7704700BFB0B598B03C
:1005A00000AF2E4B07F144041D460FCD0FC495E854
:1005B000030020600434218007F144031846FFF74C
:1005C00017FE03469AB207F144014FF0FF33244867
:1005D00005F055FC0023A7F85E302FE0B7F85E3039
:1005E0005B0099B20A2301221E4803F0F1F803468A
:1005F00087F85D3097F85D30002B13D1B7F85E3087
:10060000381D194A402107F0DBF83B1D1846FFF75B
:10061000EFFD03469AB2391D4FF0FF33104805F045
:100620002EFC06E04FF0FF33012210490C4805F084
:1006300026FCB7F85E300133A7F85E30B7F85E30BD
:100640007F2BCBD94FF0FF3302220949044805F034
:1006500016FC00BF6037BD46B0BD00BFC4880008AF
:10066000F8030020F8020020B4880008BC880008C5
:10067000C088000880B586B002AF0346FB710B4608
:10068000BB7113467B71FB7999B24FF0FF330122A6
:10069000224803F09DF80346FB73FB7B002B00D040
:1006A000F1E700BFBB7923F00F03BB73BB791B01DC
:1006B0007B73BA7B7B791343DBB243F00C03DBB271
:1006C0003B72BA7B7B791343DBB243F00803DBB2A6
:1006D0007B727A7B7B791343DBB243F00C03DBB292
:1006E000BB727A7B7B791343DBB243F00803DBB246
:1006F000FB72FB7999B207F108024FF0FF330093C8
:100700000423064802F066FF0346FB73052001F050
:1007100091FAFB7B18461037BD4680BDF8020020D9
:1007200080B582B000AF03460A46FB711346BB7129
:10073000B979FB7900221846FFF79CFF00BF083704
:10074000BD4680BD80B582B000AF03460A46FB714E
:100750001346BB71B979FB7901221846FFF78AFF6E
:1007600000BF0837BD4680BD80B582B000AF0346EC
:10077000FB71FB7930211846FFF7D2FFFB7902218C
:100780001846FFF7CDFFFB790C211846FFF7C8FF8D
:10079000FB7901211846FFF7C3FF00BF0837BD46AC
:1007A00080BD80B582B000AF03463960FB7109E0BF
:1007B0003B681A78FB7911461846FFF7C3FF3B6880
:1007C00001333B603B681B78002BF1D100BF00BFB9
:1007D0000837BD4680BD000080B500AFFFF7DEFEE4
:1007E0004E20FFF7C1FF80214E20FFF799FF0749F8
:1007F0004E20FFF7D6FFC0214E20FFF791FF04499E
:100800004E20FFF7CEFF00BF80BD00BFDC88000890
:10081000EC88000880B500AF80214E20FFF780FFF4
:1008200006494E20FFF7BDFFC0214E20FFF778FF9D
:1008300002494E20FFF7B5FF00BF80BDFC880008CD
:1008400080B584B000AFF860B9607A607B689AB216
:100850004FF4FA73B968044805F011FB7B68184639
:100860001037BD4680BD00BFF803002080B588B0BA
:1008700000AF0346FB710B46BB7113467B71FB79DE
:100880000133DBB23B73BB797B737B79BB7307F1BD
:100890000C0300221946034804F038FB00BF203740
:1008A000BD4680BD4C03002080B582B000AF03463A
:1008B000FB710B46BB7113467B711D4AFB791370AC
:1008C0001B4ABB7953701A4A7B799370184B0022EC
:1008D0005A60174B0022DA70154B0022DA60144B75
:1008E00000221A61124B4FF000425A61104B002255
:1008F0009A610F4B0022DA610D4B012283F8202010
:100900000B4B4FF480725A6201220949094804F0E6
:100910001BFC0346002B01D000F02AFD00220449F5
:10092000044804F011FC00BF0837BD4680BD00BF7D
:10093000480900204C03002090B585B000AF044664
:10094000084611461A462346FB710346BB710B4607
:100950007B7113463B71FB793B73BB797B737B796E
:10096000BB733B79FB7307F10C0300221946034864
:1009700004F066FB00BF1437BD4690BD4C03002059
:1009800080B58AB000AF01F0E3F800F04FF800F056
:1009900039FB00F045F900F0DDFA00F005FB00F04E
:1009A0008DF900F0CBF900F05DFA00F0A9FA00F043
:1009B000E5F800F0A7F8154801F0A4F90122144960
:1009C000144805F033FB01221349144805F02EFBAF
:1009D000134B7B6200233B6200221249124804F051
:1009E000B3FBFFF7F9FEFFF715FF172308220B21D2
:1009F0000120FFF7A1FF00220A210E20FFF736FF9A
:100A0000052200210020FFF74FFFFEE70002002033
:100A100084000020F803002085000020B40300209B
:100A200000000C08480900204C03002080B594B059
:100A300000AF07F1200330220021184606F0ECFF3A
:100A400007F10C0300221A605A609A60DA601A619A
:100A50000023BB60294B1B6C284A43F0805313646E
:100A6000264B1B6C03F08053BB60BB6800237B608C
:100A7000234B1B68224A43F440431360204B1B68FE
:100A800003F440437B607B6805233B624FF4A02363
:100A90007B620123BB620223BB634FF48003FB63D1
:100AA00004233B64A8237B640223BB640723FB6409
:100AB00007F12003184603F05BFB0346002B01D02F
:100AC00000F056FC0F23FB6002233B6100237B6197
:100AD0004FF4A053BB614FF48053FB6107F10C034B
:100AE0000521184603F0BCFD0346002B01D000F0A1
:100AF0003FFC00BF5037BD4680BD00BF00380240FC
:100B00000070004080B500AF002200211C2001F0E1
:100B10001CFE1C2001F035FE00220021292001F0DE
:100B200014FE292001F02DFE00220021172001F0E3
:100B30000CFE172001F025FE00220021122001F0FA
:100B400004FE122001F01DFE00220021272001F0EA
:100B5000FCFD272001F015FE00220021342001F0C9
:100B6000F4FD342001F00DFE00220021282001F0C8
:100B7000ECFD282001F005FE00BF80BD80B584B0EB
:100B800000AF3B4600221A605A609A60DA60214B3F
:100B9000214A1A601F4B4FF480325A601D4B0022CD
:100BA0009A601C4B01221A611A4B01221A76194BCA
:100BB000002283F82020174B0022DA62154B174AD7
:100BC0009A62144B0022DA60124B0122DA61114B57
:100BD000002283F830200F4B01225A610D4801F0AA
:100BE0004DF80346002B01D000F0C2FB03233B600D
:100BF00001237B600023BB603B461946054801F09A
:100C000091FA0346002B01D000F0B2FB00BF103771
:100C1000BD4680BD00020020002001400100000F01
:100C200080B500AF1F4B204A1A60204B00221A707B
:100C30001E4B80225A701D4BE1229A701B4B0022E2
:100C4000DA701A4B00221A71184B00225A71154B98
:100C5000164A5A60134B4FF400029A60114B144A23
:100C6000DA60104B134A1A610E4B40F2F4525A618B
:100C70000C4801F033FE0346002B01D000F078FB56
:100C8000382200210C4806F0C7FE0B4B21221A60C7
:100C9000094B4FF440025A61074B00221A6100BF12
:100CA00080BD00BF48020020008002407C0A002076
:100CB00060010020C00000208800002080B500AF47
:100CC0001B4B1C4A1A601A4B1B4A5A60184B0022D5
:100CD0009A60174B0022DA60154B4FF480421A617C
:100CE000134B00225A61124B00229A61104B0022D2
:100CF000DA610F4B00221A620D4802F027FB03460F
:100D0000002B01D000F034FB0021094803F097F8D4
:100D10000346002B01D000F02BFB0021044803F018
:100D2000CAF80346002B01D000F022FB00BF80BDB3
:100D3000F802002000540040A086010080B590B069
:100D400000AF07F12C0300221A605A609A60DA6043
:100D50001A610023BB623B4628220021184606F098
:100D60005BFE3D4B3D4A1A603B4B40225A603A4B7A
:100D70007F229A60384BFF22DA60374B00221A61DB
:100D8000354B00225A61344B00229A61324804F0FC
:100D900047F80346002B01D000F0EAFA012387F858
:100DA0002C30002387F82D30002387F82E300023C5
:100DB00087F82F300023BB630023FB6307F12C036C
:100DC00001221946244804F0A1F80346002B01D063
:100DD00000F0CEFA012387F82830012387F8293064
:100DE000012387F82A30002387F82B3007F12803E6
:100DF00001221946184804F023F90346002B01D0BC
:100E000000F0B6FA01233B7001237B700023BB7016
:100E100000237B600023FB700023FB6000233B6109
:100E20000F4B7B610023BB610023FB61012387F82B
:100E300020304FF480737B623B46012219460648FE
:100E400004F082F90346002B01D000F091FA00BFB4
:100E50004037BD4680BD00BF4C0300200028004045
:100E60000080808080B586B000AF07F108030022C3
:100E70001A605A609A60DA603B4600221A605A6033
:100E80001E4B4FF080421A601C4B42F2CF025A6058
:100E90001A4B00229A60194B4FF6FE72DA60174B1C
:100EA00000221A61154B00229A61144804F07FFB5E
:100EB0000346002B01D000F05BFA4FF48053BB6077
:100EC00007F1080319460D4804F0C8FC0346002B3F
:100ED00001D000F04DFA00233B6000237B603B46CD
:100EE0001946064804F0EEFE0346002B01D000F040
:100EF0003FFA00BF1837BD4680BD00BF6C0300201D
:100F000080B500AF114B124A1A60104B4FF41652C5
:100F10005A600E4B00229A600C4B0022DA600B4B99
:100F200000221A61094B0C225A61084B00229A6177
:100F3000064B0022DA61054804F054FF0346002BFB
:100F400001D000F015FA00BF80BD00BFB40300203F
:100F5000004C004080B500AF114B124A1A60104B94
:100F60004FF4E1325A600E4B00229A600C4B002283
:100F7000DA600B4B00221A61094B0C225A61084BB4
:100F800000229A61064B0022DA61054804F02AFF2C
:100F90000346002B01D000F0EBF900BF80BD00BF7D
:100FA000F80300200048004080B500AF144B4FF01C
:100FB000A0421A60124B04225A60114B0222DA60DE
:100FC0000F4B00221A610E4B02229A610C4B012238
:100FD000DA610B4B00221A62094B00225A62084B5D
:100FE0000122DA62064B00221A63054802F0A2FFD2
:100FF0000346002B01D000F0BBF900BF80BD00BF4D
:101000003C04002080B58CB000AF07F11C03002227
:101010001A605A609A60DA601A610023BB61524B11
:101020001B6B514A43F0040313634F4B1B6B03F0DC
:101030000403BB61BB6900237B614B4B1B6B4A4ABA
:1010400043F080031363484B1B6B03F080037B6109
:101050007B6900233B61444B1B6B434A43F0010314
:101060001363414B1B6B03F001033B613B6900239E
:10107000FB603D4B1B6B3C4A43F0020313633A4B4E
:101080001B6B03F00203FB60FB680023BB60364B65
:101090001B6B354A43F008031363334B1B6B03F0A0
:1010A0000803BB60BB6800237B602F4B1B6B2E4A81
:1010B00043F0400313632C4B1B6B03F040037B6036
:1010C0007B68002244F28101284802F0F3F80022F4
:1010D0004021274802F0EEF84FF40053FB614FF433
:1010E00044133B6200237B6207F11C03194621482D
:1010F00001F01CFF44F28103FB6101233B620023EA
:101100007B620023BB6207F11C031946174801F0FC
:101110000DFF4023FB6101233B6200237B62002320
:10112000BB6207F11C031946114801F0FFFE802342
:10113000FB6100233B6200237B6207F11C0319461D
:101140000B4801F0F3FE8023FB614FF488133B62F0
:1011500000237B6207F11C031946074801F0E6FEF5
:1011600000BF3037BD4680BD003802400004024059
:101170000018024000080240000C024080B582B016
:1011800000AF786044F28101044802F0ACF80448F2
:1011900006F00EFB00BF0837BD4680BD00040240CC
:1011A0007489000880B584B002AF0346FB8000F06C
:1011B00035FD03461B4A13601A4B1A681A4B1B680D
:1011C000D31A1A4A1360174B1B68174A1360782208
:1011D0000021174806F020FCFB88B3F5005F1DD105
:1011E0004FF40051134802F04DF80346002B04D091
:1011F00011490F4806F018FB10E00A4B1A680B4B18
:101200001968094B1B6800930B460C49084806F007
:101210000BFB782206490A4804F0C3FE00BF0837DA
:10122000BD4680BDF8090020FC090020000A00200E
:10123000040A0020000802409C890008A8890008D0
:10124000F803002080B582B000AF78607B681B682F
:10125000094A93420CD1094800F042FF03461A465E
:10126000074B1A60064B1B681946064806F03AFA07
:1012700000BF0837BD4680BD0020014000020020AD
:10128000F4090020E489000880B582B000AF7860DE
:101290007B681B682C4A934241D12C4B1B780D2B49
:1012A00004D02B4B93F88030402B1CD9294806F0F2
:1012B0007FFA274806F016FA274806F079FA244BF9
:1012C00093F880309AB24FF4FA732149234804F01E
:1012D000D6FD402200211E4806F09EFB1C4B00223A
:1012E00083F8802015E01A4B93F880301A46174B8C
:1012F0001978174B9954154B1B781946184806F066
:10130000F1F9134B93F880300133DAB2104B83F8C4
:10131000802001220D49134804F088FE0FE07B680D
:101320001B68114A93420AD1642301220F490D48D8
:1013300004F0A5FD01220D49084804F077FE00BF26
:101340000837BD4680BD00BF004800408400002033
:1013500070090020F0890008108A0008B4030020FA
:10136000148A0008F8030020004C0040850000208B
:1013700080B400AF72B600BFFEE7000080B483B057
:1013800000AF00237B60104B5B6C0F4A43F480433B
:1013900053640D4B5B6C03F480437B607B680023DC
:1013A0003B60094B1B6C084A43F080531364064BA7
:1013B0001B6C03F080533B603B6800BF0C37BD469D
:1013C0005DF8047B704700BF0038024080B58AB0EA
:1013D00000AF786007F1140300221A605A609A6027
:1013E000DA601A617B681B68244A934241D100236A
:1013F0003B61234B5B6C224A43F480735364204B64
:101400005B6C03F480733B613B690023FB601C4B06
:101410001B6B1B4A43F004031363194B1B6B03F054
:101420000403FB60FB680023BB60154B1B6B144A75
:1014300043F001031363124B1B6B03F00103BB600A
:10144000BB6801237B610323BB610023FB6107F1C0
:10145000140319460B4801F069FD08237B6103233F
:10146000BB610023FB6107F114031946064801F034
:101470005DFD00BF2837BD4680BD00BF0020014094
:1014800000380240000802400000024080B58EB0E3
:1014900000AF786007F1240300221A605A609A6056
:1014A000DA601A617B681B68554A934240F0A48059
:1014B00000233B62534B1B6B524A43F00073136390
:1014C000504B1B6B03F000733B623B6A0023FB61D4
:1014D0004C4B1B6B4B4A43F080631363494B1B6BB4
:1014E00003F08063FB61FB690023BB61454B1B6B11
:1014F000444A43F000631363424B1B6B03F00063E9
:10150000BB61BB6900237B613E4B1B6B3D4A43F0D3
:10151000040313633B4B1B6B03F004037B617B6988
:1015200000233B61374B1B6B364A43F001031363C7
:10153000344B1B6B03F001033B613B690023FB60F1
:10154000304B1B6B2F4A43F0020313632D4B1B6B75
:1015500003F00203FB60FB680023BB60294B1B6B9D
:10156000284A43F040031363264B1B6B03F04003F0
:10157000BB60BB6832237B620223BB620023FB6239
:1015800003233B630B237B6307F1240319461E48A7
:1015900001F0CCFC86237B620223BB620023FB624A
:1015A00003233B630B237B6307F12403194617488E
:1015B00001F0BCFC4FF400537B620223BB620023AA
:1015C000FB6203233B630B237B6307F12403194670
:1015D0000F4801F0ABFC4FF420537B620223BB6247
:1015E0000023FB6203233B630B237B6307F124038C
:1015F0001946084801F09AFC00BF3837BD4680BD47
:101600000080024000380240000802400000024012
:10161000000402400018024080B58AB000AF786034
:1016200007F1140300221A605A609A60DA601A61A6
:101630007B681B68194A93422CD100233B61184BED
:101640001B6B174A43F002031363154B1B6B03F02C
:1016500002033B613B694FF440737B611223BB6122
:101660000023FB6103233B6204237B6207F1140325
:1016700019460C4801F05AFC0023FB60084B1B6C18
:10168000074A43F400131364054B1B6C03F4001367
:10169000FB60FB6800BF2837BD4680BD005400409A
:1016A000003802400004024080B58EB000AF786080
:1016B00007F1080330220021184606F0ADF97B68D7
:1016C0001B680C4A934211D12023BB604FF48073F6
:1016D0003B6307F10803184603F0E2F90346002BC9
:1016E00001D0FFF745FE044B01221A6000BF3837D6
:1016F000BD4680BD002800403C0E474280B485B006
:1017000000AF78607B681B68B3F1804F0DD1002378
:10171000FB60094B1B6C084A43F001031364064B42
:101720001B6C03F00103FB60FB6800BF1437BD4670
:101730005DF8047B704700BF0038024080B58CB074
:1017400000AF786007F11C0300221A605A609A60AB
:10175000DA601A617B681B68334A93422DD10023FB
:10176000BB61324B1B6C314A43F4002313642F4B93
:101770001B6C03F40023BB61BB6900237B612B4B13
:101780001B6B2A4A43F004031363284B1B6B03F0C3
:1017900004037B617B694FF44063FB6102233B627E
:1017A00000237B620323BB620823FB6207F11C0357
:1017B00019461F4801F0BAFB31E07B681B681D4ADF
:1017C00093422CD100233B61184B1B6C174A43F406
:1017D00080231364154B1B6C03F480233B613B692E
:1017E0000023FB60114B1B6B104A43F0080313638B
:1017F0000E4B1B6B03F00803FB60FB684FF4407358
:10180000FB6102233B6200237B620323BB6207234D
:10181000FB6207F11C031946074801F087FB00BF74
:101820003037BD4680BD00BF004C0040003802404C
:101830000008024000480040000C024080B58AB019
:1018400000AF786007F1140300221A605A609A60B2
:10185000DA601A617B681B68B3F1A04F3FD10023A7
:101860003B61214B1B6B204A43F0010313631E4B6A
:101870001B6B03F001033B613B694FF4E8537B6151
:101880000223BB610023FB6103233B620A237B62CB
:1018900007F114031946154801F048FB4FF4007393
:1018A0007B610023BB610023FB6107F11403194630
:1018B0000E4801F03BFB0C4B5B6B0B4A43F0800383
:1018C00053630023FB60084B5B6C074A43F480437F
:1018D0005364054B5B6C03F48043FB60FB6800BF03
:1018E0002837BD4680BD00BF0038024000000240DE
:1018F00080B400AFFEE780B400AFFEE780B400AF75
:10190000FEE780B400AFFEE780B400AFFEE780B42E
:1019100000AF00BFBD465DF8047B704780B400AFE8
:1019200000BFBD465DF8047B704780B400AF00BFC8
:10193000BD465DF8047B704780B500AF00F05AF9F2
:1019400000BF80BD80B500AF024800F0B9FA00BF0B
:1019500080BD00BF0002002080B500AF802001F0F4
:10196000DDFC00BF80BD000080B500AF024803F081
:101970006DFE00BF80BD00BF6C03002080B500AFCE
:10198000024804F083FB00BF80BD00BFF8030020C5
:1019900080B500AF4FF4005001F0C0FC00BF80BD27
:1019A00080B500AF024803F011FD00BF80BD00BF4D
:1019B0004C03002080B500AF024804F067FB00BF75
:1019C00080BD00BFB403002080B586B000AFF860D2
:1019D000B9607A6000237B610AE0AFF300800146C2
:1019E000BB685A1CBA60CAB21A707B6901337B614A
:1019F0007A697B689A42F0DB7B6818461837BD46E7
:101A000080BD80B483B000AF78604FF0FF331846DC
:101A10000C37BD465DF8047B704780B483B000AFDF
:101A2000786039603B684FF400525A6000231846D2
:101A30000C37BD465DF8047B704780B483B000AFBF
:101A40007860012318460C37BD465DF8047B70476B
:101A500080B485B000AFF860B9607A6000231846A2
:101A60001437BD465DF8047B7047000080B586B032
:101A700000AF7860144A154BD31A7B617B693B61D8
:101A8000134B1B68002B02D1114B124A1A60104BEA
:101A90001A687B6813443A699A4207D206F00AF83A
:101AA00003460C221A604FF0FF3309E0084B1B6815
:101AB000FB60074B1A687B681344054A1360FB6898
:101AC00018461837BD4680BD000003200004000002
:101AD000840A0020D80B002080B400AF064BD3F856
:101AE0008830054A43F47003C2F8883000BFBD4611
:101AF0005DF8047B704700BF00ED00E0DFF834D0F4
:101B00000D480E490E4A002302E0D458C450043355
:101B1000C4188C42F9D30B4A0B4C002301E013602C
:101B20000432A242FBD3FFF7D7FF05F0C9FFFEF74F
:101B300027FF7047000003200000002068000020FD
:101B4000848A000868000020D80B0020FEE700000F
:101B500080B500AF0E4B1B680D4A43F40073136051
:101B60000B4B1B680A4A43F480631360084B1B68E5
:101B7000074A43F480731360032000F0DBFD00206C
:101B800000F008F8FFF7FAFB0023184680BD00BFFD
:101B9000003C024080B582B000AF7860124B1A68FA
:101BA000124B1B7819464FF47A73B3FBF1F3B2FB77
:101BB000F3F3184600F0F3FD0346002B01D0012398
:101BC0000EE07B680F2B0AD8002279684FF0FF30B7
:101BD00000F0BBFD064A7B681360002300E0012390
:101BE00018460837BD4680BD0000002008000020D0
:101BF0000400002080B400AF064B1B781A46064B49
:101C00001B681344044A136000BFBD465DF8047BA3
:101C1000704700BF08000020880A002080B400AF91
:101C2000034B1B681846BD465DF8047B704700BF38
:101C3000880A002080B584B000AF7860FFF7EEFF1F
:101C4000B8607B68FB60FB68B3F1FF3F05D00A4BCF
:101C50001B781A46FB681344FB6000BFFFF7DEFFEA
:101C60000246BB68D31AFA689A42F7D800BF00BF91
:101C70001037BD4680BD00BF0800002080B584B08D
:101C800000AF78600023FB737B68002B01D1012338
:101C900033E07B681B6C002B09D17868FFF796FB5B
:101CA0007B6800225A647B68002283F83C207B68B2
:101CB0001B6C03F01003002B18D17B681B6C23F402
:101CC000885323F0020343F002027B681A647868A9
:101CD00000F05AFB7B6800225A647B681B6C23F07F
:101CE000030343F001027B681A6401E00123FB73E4
:101CF0007B68002283F83C20FB7B18461037BD46EA
:101D000080BD000080B485B000AF78600023BB6068
:101D10007B6893F83C30012B01D10223BDE07B6846
:101D2000012283F83C207B681B689B6803F0010359
:101D3000012B18D07B681B689A687B681B6842F08F
:101D400001029A60584B1B68584AA2FB03239A0C65
:101D500013465B001344BB6002E0BB68013BBB6001
:101D6000BB68002BF9D17B681B689B6803F00103FB
:101D7000012B40F085807B681B6C23F4E06323F02B
:101D8000010343F480727B681A647B681B685B689C
:101D900003F48063002B07D07B681B6C23F4405353
:101DA00043F480527B681A647B681B6C03F4805395
:101DB000B3F5805F06D17B685B6C23F006027B681D
:101DC0005A6402E07B6800225A647B68002283F830
:101DD0003C20374BFB607B681B686FF022021A6067
:101DE0007B681B685B687A68126843F0806343F025
:101DF00020035360FB685B6803F01F03002B2AD1AC
:101E00007B681B682B4A934215D07B681B682A4A63
:101E1000934205D1264B5B6803F01F03002B0AD0C9
:101E20007B681B68254A934236D1214B5B6803F0DF
:101E30001003002B30D17B681B689B6803F0405374
:101E4000002B29D17B681B689A687B681B6842F06D
:101E500080429A6020E07B681B68164A93421BD13F
:101E60007B681B689B6803F04053002B14D17B6890
:101E70001B689A687B681B6842F080429A600BE09E
:101E80007B681B6C43F010027B681A647B685B6C98
:101E900043F001027B685A64002318461437BD469C
:101EA0005DF8047B704700BF0000002083DE1B4309
:101EB0000023014000200140002101400022014098
:101EC00080B586B000AF786000237B6100233B6162
:101ED0007B681B681B68FB607B681B685B68BB607A
:101EE000FB6803F002037B61BB6803F020033B61E6
:101EF0007B69002B49D03B69002B46D07B681B6C6B
:101F000003F01003002B05D17B681B6C43F40072B7
:101F10007B681A647B681B689B6803F04053002B46
:101F20002BD17B681B7E002B27D17B681B68DB6A6B
:101F300003F47003002B06D07B681B689B6803F4D6
:101F40008063002B19D17B681B685A687B681B680B
:101F500022F020025A607B681B6C23F480727B683D
:101F60001A647B681B6C03F48053002B05D17B68DB
:101F70001B6C43F001027B681A647868FFF762F912
:101F80007B681B686FF012021A60FB6803F00403A1
:101F90007B61BB6803F080033B617B69002B57D0FA
:101FA0003B69002B54D07B681B6C03F01003002BA3
:101FB00005D17B681B6C43F400527B681A647B6814
:101FC0001B689B6803F44013002B39D17B681B68A6
:101FD0009B6B03F44013002B06D07B681B689B6847
:101FE00003F48063002B2BD17B681B685B6803F4D0
:101FF0008063002B24D17B681B689B6803F04053EF
:10200000002B1DD17B681B7E002B19D17B681B68C0
:102010005A687B681B6822F080025A607B681B6CE0
:1020200023F480527B681A647B681B6C03F4807312
:10203000002B05D17B681B6C43F001027B681A649E
:10204000786800F09DFA7B681B686FF00C021A60DC
:10205000FB6803F001037B61BB6803F040033B6155
:102060007B69002B17D03B69002B14D07B681B6861
:102070001B6803F00103012B0DD17B681B6C43F43B
:1020800080327B681A64786800F037F87B681B68D8
:102090006FF001021A60FB6803F020037B61BB68EC
:1020A00003F080633B617B69002B15D03B69002BFB
:1020B00012D07B685B6C43F002027B685A647B68D9
:1020C0001B686FF020021A60786800F020F87B68C7
:1020D0001B686FF020021A6000BF1837BD4680BD34
:1020E00080B483B000AF78607B681B68DB6C1846F7
:1020F0000C37BD465DF8047B704780B483B000AFF9
:10210000786000BF0C37BD465DF8047B704780B433
:1021100083B000AF786000BF0C37BD465DF8047B2C
:102120007047000080B485B000AF7860396000234C
:10213000BB607B6893F83C30012B01D1022313E193
:102140007B68012283F83C203B681B68092B25D95A
:102150007B681B68D9683B681B689BB21A461346AC
:102160005B0013441E3B072202FA03F3DA437B6849
:102170001B680A40DA607B681B68D9683B689A680C
:102180003B681B689BB2184603465B0003441E3B3A
:102190009A407B681B680A43DA6022E07B681B6810
:1021A00019693B681B689BB21A4613465B001344CF
:1021B000072202FA03F3DA437B681B680A401A61BC
:1021C0007B681B6819693B689A683B681B689BB20F
:1021D000184603465B0003449A407B681B680A4329
:1021E0001A613B685B68062B24D87B681B68596BB7
:1021F0003B685A6813469B001344053B1F2202FAB2
:1022000003F3DA437B681B680A405A637B681B68E8
:10221000596B3B681B689BB218463B685A6813466B
:102220009B001344053B00FA03F27B681B680A43DA
:102230005A634CE03B685B680C2B24D87B681B68B6
:10224000196B3B685A6813469B001344233B1F22BB
:1022500002FA03F3DA437B681B680A401A637B685F
:102260001B68196B3B681B689BB218463B685A6831
:1022700013469B001344233B00FA03F27B681B6860
:102280000A431A6323E07B681B68D96A3B685A6873
:1022900013469B001344413B1F2202FA03F3DA4327
:1022A0007B681B680A40DA627B681B68D96A3B68F6
:1022B0001B689BB218463B685A6813469B00134440
:1022C000413B00FA03F27B681B680A43DA62294B40
:1022D000FB607B681B68284A93420FD13B681B68F0
:1022E000122B0BD1FB685B6823F40002FB685A6079
:1022F000FB685B6843F48002FB685A607B681B687C
:102300001D4A93422BD13B681B681C4A934203D061
:102310003B681B68112B22D1FB685B6823F48002A9
:10232000FB685A60FB685B6843F40002FB685A6014
:102330003B681B68114A934211D1114B1B68114A2B
:10234000A2FB03239A0C13469B0013445B00BB6063
:1023500002E0BB68013BBB60BB68002BF9D17B6826
:10236000002283F83C20002318461437BD465DF850
:10237000047B704700230140002001401200001040
:102380000000002083DE1B4380B485B000AF78607E
:10239000794BFB60FB685B6823F44032FB685A6052
:1023A000FB685A687B685B681A43FB685A607B6805
:1023B0001B685A687B681B6822F480725A607B68CD
:1023C0001B6859687B681B691A027B681B680A4393
:1023D0005A607B681B685A687B681B6822F04072F1
:1023E0005A607B681B6859687B689A687B681B68C1
:1023F0000A435A607B681B689A687B681B6822F4F2
:1024000000629A607B681B6899687B68DA687B6801
:102410001B680A439A607B689B6A584A934222D0A1
:102420007B681B689A687B681B6822F070629A6000
:102430007B681B6899687B689A6A7B681B680A439B
:102440009A607B681B689A687B681B6822F0405220
:102450009A607B681B6899687B68DA6A7B681B688E
:102460000A439A600FE07B681B689A687B681B6868
:1024700022F070629A607B681B689A687B681B68B0
:1024800022F040529A607B681B689A687B681B68E0
:1024900022F002029A607B681B6899687B681B7E49
:1024A0005A007B681B680A439A607B6893F8203067
:1024B000002B1BD07B681B685A687B681B6842F442
:1024C00000625A607B681B685A687B681B6822F44C
:1024D00060425A607B681B6859687B685B6A013B95
:1024E0005A037B681B680A435A6007E07B681B68D5
:1024F0005A687B681B6822F400625A607B681B681C
:10250000DA6A7B681B6822F47002DA627B681B68F7
:10251000D96A7B68DB69013B1A057B681B680A4343
:10252000DA627B681B689A687B681B6822F4007219
:102530009A607B681B6899687B6893F830305A0210
:102540007B681B680A439A607B681B689A687B6893
:102550001B6822F480629A607B681B6899687B68BC
:102560005B699A027B681B680A439A6000BF143754
:10257000BD465DF8047B7047002301400100000F59
:1025800080B483B000AF786000BF0C37BD465DF803
:10259000047B704780B485B000AF78607B6803F03F
:1025A0000703FB600C4BDB68BB60BA684FF6FF03A8
:1025B0001340BB60FB681A02BB68134343F0BF6360
:1025C00043F40033BB60044ABB68D36000BF1437D8
:1025D000BD465DF8047B704700ED00E080B400AFBD
:1025E000044BDB681B0A03F007031846BD465DF881
:1025F000047B704700ED00E080B483B000AF034679
:10260000FB7197F90730002B0BDBFB7903F01F02FE
:10261000074997F907305B09012000FA02F241F8F7
:10262000232000BF0C37BD465DF8047B704700BF18
:1026300000E100E080B483B000AF03463960FB7175
:1026400097F90730002B0ADB3B68DAB20C4997F99F
:1026500007301201D2B20B4483F800230AE03B6832
:10266000DAB20849FB7903F00F03043B1201D2B23E
:102670000B441A7600BF0C37BD465DF8047B7047EB
:1026800000E100E000ED00E080B489B000AFF86048
:10269000B9607A60FB6803F00703FB61FB69C3F173
:1026A0000703042B28BF0423BB61FB690433062BFB
:1026B00002D9FB69033B00E000237B614FF0FF324E
:1026C000BB6902FA03F3DA43BB681A407B699A409C
:1026D0004FF0FF317B6901FA03F3D9437B680B406C
:1026E000134318462437BD465DF8047B704700004D
:1026F00080B582B000AF78607B68013BB3F1807F2A
:1027000001D301230FE00A4A7B68013B53600F218C
:102710004FF0FF30FFF78EFF054B00229A60044B0D
:1027200007221A60002318460837BD4680BD00BF47
:1027300010E000E080B582B000AF78607868FFF705
:1027400029FF00BF0837BD4680BD80B586B000AF09
:102750000346B9607A60FB7300237B61FFF73EFF9D
:1027600078617A68B9687869FFF78EFF024697F951
:102770000F3011461846FFF75DFF00BF1837BD4602
:1027800080BD80B582B000AF0346FB7197F907307A
:102790001846FFF731FF00BF0837BD4680BD80B542
:1027A00082B000AF78607868FFF7A2FF0346184652
:1027B0000837BD4680BD80B584B000AF78607B68C7
:1027C0009B6DFB60FFF72AFAB8607B6893F83530A1
:1027D000DBB2022B08D07B6880225A657B6800221E
:1027E00083F83420012352E07B681B681A687B68F9
:1027F0001B6822F016021A607B681B685A697B68A6
:102800001B6822F080025A617B681B6C002B03D18D
:102810007B689B6C002B07D07B681B681A687B6801
:102820001B6822F008021A607B681B681A687B68C4
:102830001B6822F001021A6013E0FFF7EFF902466D
:10284000BB68D31A052B0CD97B6820225A657B689C
:10285000032283F835207B68002283F83420032389
:1028600015E07B681B681B6803F00103002BE4D1B3
:102870007B68DB6D3F229A40FB689A607B6801228F
:1028800083F835207B68002283F834200023184623
:102890001037BD4680BD80B483B000AF78607B68E0
:1028A00093F83530DBB2022B04D07B6880225A6566
:1028B00001230CE07B68052283F835207B681B68C8
:1028C0001A687B681B6822F001021A600023184610
:1028D0000C37BD465DF8047B7047000080B584B0BE
:1028E00000AF78607B68002B01D101236CE07B682E
:1028F000D3F88430002B06D17B682322C3F88420D0
:102900007868FEF7C3FD0023BB60314B5B6C304A37
:1029100043F4804353642E4B5B6C03F48043BB60F1
:10292000BB682C4B5B682B4A23F400035360294B94
:102930005A687B689B68274913434B60254B5B684B
:102940007B681B6803F580531B687A68126843F044
:10295000010302F580521360FFF760F9F86011E09F
:10296000FFF75CF90246FB68D31AB3F5FA7F09D981
:102970007B680422C3F888207B68E022C3F88420A7
:10298000012321E07B681B6803F580531B6803F07B
:102990000103002BE4D1786800F058F9786800F062
:1029A000FFF9786800F055FA7B685B681A460021E9
:1029B000786800F0BDF97B680022C3F888207B6846
:1029C0001022C3F88420002318461037BD4680BD6E
:1029D000003802400038014080B584B000AF786014
:1029E00039607B681B681B68FB60FA68514B1340B9
:1029F000FB603B681B7C002B02D14FF4000200E01F
:102A000000223B685B7C002B02D14FF4800300E086
:102A100000231A433B689B681A433B68DB7F1B0417
:102A20001A433B685B6913433A68927F002A02D1DC
:102A30004FF4005200E000221A433B681B7F1B0347
:102A40001A433B689B691A433B681B799B021343FB
:102A50003A6892F82020002A02D14FF4007200E078
:102A600000221A433B68DB7BDB011A433B685B6A4D
:102A70001A433B6893F828301B011343FA68134349
:102A8000FB607B681B68FA681A607B681B681B68C0
:102A9000FB600120FFF7CEF87B681B68FA681A60BC
:102AA0007B681B689B69FB60FA684FF641731340B3
:102AB000FB603B689B6C1B043A6892F84C20002A30
:102AC00001D1802200E000221A433B681B6D1343B2
:102AD0003A6892F85520012A01D1082200E000222C
:102AE00013433A6892F85620012A01D1042200E0EB
:102AF000002213433A6892F85420012A01D102229D
:102B000000E000221343FA681343FB607B681B68F4
:102B1000FA689A617B681B689B69FB600120FFF77C
:102B200089F87B681B68FA689A6100BF1037BD4658
:102B300080BD00BF0F8120FF80B584B000AF7860FA
:102B400039607B681B6803F580539B69FB60FA68FA
:102B50003D4B1340FB603B681B7B002B02D14FF0C9
:102B6000806200E000223B685B7B5B0613433A68AF
:102B7000527F002A02D14FF4801200E000221A4353
:102B80003B689B7B5B051A433B685B691A433B6868
:102B90001B7FDB011A433B689B7F9B011A433B6809
:102BA0001B6A1A433B6893F824309B001343FA686E
:102BB0001343FB607B681B6803F580531A46FB6870
:102BC00093617B681B6803F580539B69FB60012060
:102BD000FFF730F87B681B6803F580531A46FB68E3
:102BE00093613B681B795A063B689B681A433B68B4
:102BF0009B691A433B681B691A433B6893F825306D
:102C0000DB011A433B689B6A9B001A433B681B68C5
:102C100013437A68126843F4000302F5805213608C
:102C20007B681B6803F580531B68FB600120FFF77E
:102C300001F87B681B6803F580531A46FB68136034
:102C400000BF1037BD4680BD233FDEF880B5A6B07B
:102C500000AF7860012387F84430012387F84530BE
:102C60000023FB63002387F85330012387F8523099
:102C7000002387F85030012387F83830002387F885
:102C80005430002387F843300023BB65002387F8C6
:102C90005C300023FB67002387F880300023C7F8EF
:102CA0008430002387F88A30002387F888304FF477
:102CB0008043BB644FF40063FB64002387F88930D2
:102CC00007F1340319467868FFF786FE01233B7548
:102CD00001237B75012387F825300123BB75002371
:102CE000FB61002387F82430002387F82630002377
:102CF000BB62012387F82C3001233B734FF48033F0
:102D00003B614FF480033B624FF40053BB610123EE
:102D100087F82D3000233B630023BB6007F10803D5
:102D200019467868FFF708FF00BF9837BD4680BD99
:102D300080B487B000AFF860B9607A607B68053313
:102D40001B781B027A680432127813437B61BA68DD
:102D5000114B13441A467B6913607B6803331B785D
:102D60001A067B6802331B781B041A437B68013305
:102D70001B781B0213437A68127813437B61BA688D
:102D8000064B13441A467B69136000BF1C37BD46CF
:102D90005DF8047B704700BF4080024044800240E1
:102DA00080B485B000AF78600023FB603EE07B68B4
:102DB000D968FA6813469B001344DB000B44BB60E0
:102DC000BB6800221A60BB6800225A60BB68002200
:102DD0009A60BB680022DA60B9687B68FA680632DC
:102DE00043F82210BB681B6843F48012BB681A606A
:102DF000FB68022B0CD87B68D968FB685A1C134609
:102E00009B001344DB000B441A46BB68DA6004E005
:102E10007B68DB681A46BB68DA60BB681B6843F4F2
:102E20004002BB681A60FB680133FB60FB68032B40
:102E3000BDD97B6800229A627B68DA687B681B6870
:102E400003F580531A6100BF1437BD465DF8047B5B
:102E5000704780B485B000AF78600023FB6046E027
:102E60007B681969FA6813469B001344DB000B4426
:102E7000BB60BB6800221A60BB6800225A60BB6856
:102E800000229A60BB680022DA60BB6800221A62E6
:102E9000BB6800225A62BB684FF000421A60BB68F0
:102EA00044F2F4525A60BB685B6823F00042BB688E
:102EB0005A60B9687B68FA68123243F82210FB68DE
:102EC000022B0CD87B681969FB685A1C13469B00BF
:102ED0001344DB000B441A46BB68DA6004E07B68ED
:102EE0001B691A46BB68DA60FB680133FB60FB684C
:102EF000032BB5D97B680022DA657B6800221A664D
:102F00007B6800229A667B680022DA667B68002272
:102F10009A657B681A697B681B6803F58053DA60E1
:102F200000BF1437BD465DF8047B704780B489B09C
:102F300000AF7860396000237B6100233B61002390
:102F4000BB610023FB6177E10122FB6902FA03F315
:102F50007B613B681B687A6913403B613A697B6916
:102F60009A4240F066813B685B6803F00303012BE3
:102F700005D03B685B6803F00303022B30D17B680C
:102F80009B68BB61FB695B00032202FA03F3DB432E
:102F9000BA691340BB613B68DA68FB695B0002FAFF
:102FA00003F3BA691343BB617B68BA699A607B68B3
:102FB0005B68BB610122FB6902FA03F3DB43BA6978
:102FC0001340BB613B685B681B0903F00102FB69AE
:102FD00002FA03F3BA691343BB617B68BA695A60AA
:102FE0003B685B6803F00303032B17D07B68DB6847
:102FF000BB61FB695B00032202FA03F3DB43BA699E
:103000001340BB613B689A68FB695B0002FA03F3FB
:10301000BA691343BB617B68BA69DA603B685B6875
:1030200003F00303022B23D1FB69DA087B68083223
:1030300053F82230BB61FB6903F007039B000F22AA
:1030400002FA03F3DB43BA691340BB613B681A69B8
:10305000FB6903F007039B0002FA03F3BA69134309
:10306000BB61FB69DA087B680832B96943F8221052
:103070007B681B68BB61FB695B00032202FA03F3F8
:10308000DB43BA691340BB613B685B6803F0030232
:10309000FB695B0002FA03F3BA691343BB617B6807
:1030A000BA691A603B685B6803F44033002B00F098
:1030B000C0800023FB60664B5B6C654A43F4804331
:1030C0005364634B5B6C03F48043FB60FB68614AB1
:1030D000FB699B08023352F82330BB61FB6903F0A4
:1030E00003039B000F2202FA03F3DB43BA69134088
:1030F000BB617B68584A934237D07B68574A9342FA
:1031000031D07B68564A93422BD07B68554A934214
:1031100025D07B68544A93421FD07B68534A934220
:1031200019D07B68524A934213D07B68514A93422C
:103130000DD07B68504A934207D07B684F4A934238
:1031400001D1092312E00A2310E008230EE007232F
:103150000CE006230AE0052308E0042306E003232D
:1031600004E0022302E0012300E00023FA6902F0F8
:10317000030292009340BA691343BB613549FB696E
:103180009B080233BA6941F823203D4B9B68BB6121
:103190003B69DB43BA691340BB613B685B6803F47E
:1031A0008013002B03D0BA693B691343BB61344AD7
:1031B000BB699360324BDB68BB613B69DB43BA6937
:1031C0001340BB613B685B6803F40013002B03D022
:1031D000BA693B691343BB61294ABB69D360284B79
:1031E0005B68BB613B69DB43BA691340BB613B6809
:1031F0005B6803F40033002B03D0BA693B691343C7
:10320000BB611F4ABB6953601D4B1B68BB613B69B7
:10321000DB43BA691340BB613B685B6803F48033EE
:10322000002B03D0BA693B691343BB61144ABB69E5
:103230001360FB690133FB61FB690F2B7FF684AEE2
:1032400000BF00BF2437BD465DF8047B704700BF58
:1032500000380240003801400000024000040240F3
:1032600000080240000C024000100240001402401E
:1032700000180240001C02400020024000240240CE
:10328000003C014080B485B000AF78600B467B8085
:103290007B681A697B881340002B02D00123FB73E3
:1032A00001E00023FB73FB7B18461437BD465DF835
:1032B000047B704780B483B000AF78600B467B809E
:1032C00013467B707B78002B03D07A887B689A61E9
:1032D00003E07B881A047B689A6100BF0C37BD4607
:1032E0005DF8047B704780B485B000AF78600B4612
:1032F0007B807B685B69FB607A88FB6813401A04FB
:10330000FB68D9437B880B401A437B689A6100BFF6
:103310001437BD465DF8047B7047000080B582B06D
:1033200000AF0346FB80084B5A69FB881340002B13
:1033300006D0054AFB885361FB881846FDF732FF2B
:1033400000BF0837BD4680BD003C014080B584B059
:1033500000AF78607B68002B01D101232BE17B68F3
:1033600093F83D30DBB2002B06D17B68002283F856
:103370003C207868FEF750F97B68242283F83D20D2
:103380007B681B681A687B681B6822F001021A6060
:103390007B681B681A687B681B6842F400421A60ED
:1033A0007B681B681A687B681B6822F400421A60FD
:1033B00001F04EFBF8607B685B68814A934207D856
:1033C000FB68804A934294BF01230023DBB206E0EE
:1033D000FB687D4A934294BF01230023DBB2002B9C
:1033E00001D00123E7E0FB68784AA2FB03239B0C92
:1033F000BB607B681B685B6823F03F017B681B68D0
:10340000BA680A435A607B681B681B6A23F03F0155
:103410007B685B686A4A934202D8BB68013309E063
:10342000BB684FF4967202FB03F3694AA2FB0323C5
:103430009B0901337A6812680B4313627B681B682F
:10344000DB6923F44F4222F0FF027B685B685C4932
:103450008B4219D8FB68591E7B685B685B00B1FB27
:10346000F3F3591C40F6FC730B40002B0AD0FB68A9
:10347000591E7B685B685B00B1FBF3F30133C3F358
:103480000B0351E004234FE07B689B68002B11D1B4
:10349000FB68581E7B6859680B465B000B44B0FB09
:1034A000F3F30133C3F30B03002B0CBF0123002301
:1034B000DBB212E0FB68581E7B6859680B469B0024
:1034C0000B4499000B44B0FBF3F30133C3F30B033C
:1034D000002B0CBF01230023DBB2002B01D0012302
:1034E00022E07B689B68002B0ED1FB68581E7B682E
:1034F00059680B465B000B44B0FBF3F30133C3F395
:103500000B0343F400430FE0FB68581E7B685968C7
:103510000B469B000B4499000B44B0FBF3F30133C3
:10352000C3F30B0343F44043796809681343CB6149
:103530007B681B681B6823F0C0017B68DA697B68C5
:103540001B6A1A437B681B680A431A607B681B6806
:103550009B6823F4034323F0FF037A6811697A68B8
:10356000D26811437A6812680B4393607B681B68CA
:10357000DB6823F0FF017B685A697B689B691A430B
:103580007B681B680A43DA607B681B681A687B6883
:103590001B6842F001021A607B6800221A647B6893
:1035A000202283F83D207B6800221A637B6800227A
:1035B00083F83E20002318461037BD4680BD00BF6B
:1035C000A08601007F841E00FF083D0083DE1B43B0
:1035D000D34D621080B588B002AFF8607A601A46A9
:1035E0000B467B8113463B81FEF718FB7861FB6835
:1035F00093F83D30DBB2202B40F0E0807B690093F4
:10360000192301227049F86800F092FA0346002B52
:1036100001D00223D3E0FB6893F83C30012B01D1A9
:103620000223CCE0FB68012283F83C20FB681B6886
:103630001B6803F00103012B07D0FB681B681A68A5
:10364000FB681B6842F001021A60FB681B681A687D
:10365000FB681B6822F400621A60FB68212283F871
:103660003D20FB68102283F83E20FB6800221A648C
:10367000FB687A685A62FB683A895A85FB685B8DF9
:103680009AB2FB681A85FB68504ADA6279897B69CD
:103690003A6AF86800F0CAF90346002B01D001230A
:1036A0008DE000233B61FB681B685B693B61FB6845
:1036B0001B689B693B613B6966E07A69396AF86817
:1036C00000F00CFB0346002B0DD0FB681B6C042B99
:1036D00007D1FB681B681A68FB681B6842F400721C
:1036E0001A6001236BE0FB685B6A1A78FB681B6851
:1036F0001A61FB685B6A5A1CFB685A62FB685B8D47
:103700009BB2013B9AB2FB685A85FB681B8D013B5B
:103710009AB2FB681A85FB681B685B6903F00403B7
:10372000042B1BD1FB681B8D002B17D0FB685B6A39
:103730001A78FB681B681A61FB685B6A5A1CFB6895
:103740005A62FB685B8D9BB2013B9AB2FB685A855B
:10375000FB681B8D013B9AB2FB681A857A69396A4E
:10376000F86800F0FCFA0346002B0DD0FB681B6CD8
:10377000042B07D1FB681B681A68FB681B6842F4BE
:1037800000721A6001231AE0FB681B8D002B94D194
:10379000FB681B681A68FB681B6842F400721A60B9
:1037A000FB68202283F83D20FB68002283F83E203E
:1037B000FB68002283F83C20002300E00223184627
:1037C0001837BD4680BD00BF020010000000FFFF9B
:1037D00080B58AB002AFF8607A603B600B467B81AF
:1037E000FEF71CFAF8610023BB61FB6893F83D30DB
:1037F000DBB2202B40F01181FB69009319230122D9
:103800008849F86800F094F90346002B01D00223A0
:1038100004E1FB6893F83C30012B01D10223FDE069
:10382000FB68012283F83C20FB681B681B6803F0DF
:103830000103012B07D0FB681B681A68FB681B6833
:1038400042F001021A60FB681B681A68FB681B687B
:1038500022F400621A60FB68242283F83D20FB6892
:1038600000221A64FB68704ADA62FB681B681A68F7
:10387000FB681B6842F480721A60FB6900933B6826
:1038800000224FF00111F86800F052F90346002BB6
:103890000DD0FB681B681B6803F48073B3F5807F51
:1038A00003D1FB684FF400721A640323B6E07B89EE
:1038B000DBB21A46FB681B6802F0FE021A61FEF7D3
:1038C000ADF9F861FB681B685B6903F00203022B2A
:1038D0000CBF01230023DBB2FB75FB681B685B692F
:1038E00003F48063B3F5806F0CBF01230023DBB2C8
:1038F000BB7525E0FEF792F90246FB69D31A3A68D8
:103900009A4202D33B68002B03D1FB68A02283F8C4
:103910003D20FB681B685B6903F00203022B0CBFB0
:1039200001230023DBB2FB75FB681B685B6903F4B2
:103930008063B3F5806F0CBF01230023DBB2BB753E
:10394000FB6893F83D30DBB2A02B05D0FB7D002B4C
:1039500002D1BB7D002BCDD0FB68202283F83D2017
:10396000FB681B685B6903F00203022B29D1FB682B
:103970001B681A68FB681B6842F400721A60002317
:103980003B61FB681B685B693B61FB681B689B696B
:103990003B613B69FB690093192301222149F868C7
:1039A00000F0C6F80346002B01D0012336E0FB6887
:1039B000202283F83D20FB68002283F83C2000236E
:1039C0002CE0FB681B681A68FB681B6842F40072F5
:1039D0001A60FB681B686FF480625A61FB69009390
:1039E000192301220F49F86800F0A2F80346002BC2
:1039F00001D0012312E0BB690133BB61BA697B6866
:103A00009A42FFF432AFFB68202283F83D20FB6826
:103A1000002283F83C20012300E0022318462037CF
:103A2000BD4680BD020010000000FFFF80B588B0D9
:103A300002AFF8607A603B600B467B81FB68DB6A13
:103A40007B617B69082B06D07B69012B03D07B69E6
:103A500013F5803F08D1FB681B681A68FB681B6878
:103A600042F480721A600BE0FB681B6B122B07D1CB
:103A7000FB681B681A68FB681B6842F480721A6056
:103A80003B6800937B6800224FF00111F86800F05A
:103A90004FF80346002B0DD0FB681B681B6803F42E
:103AA0008073B3F5807F03D1FB684FF400721A6412
:103AB000032335E0FB681B69B3F5804F08D17B8990
:103AC000DBB21A46FB681B6802F0FE021A611BE0BB
:103AD0007B89DB11DBB203F00603DBB263F00F037B
:103AE000DAB2FB681B681A613B687A680E49F868AD
:103AF00000F075F80346002B01D0012310E07B890C
:103B0000DAB2FB681B681A613B687A680749F86893
:103B100000F065F80346002B01D0012300E00023EC
:103B200018461837BD4680BD08000100020001009C
:103B300080B584B000AFF860B9603B601346FB719C
:103B400025E03B68B3F1FF3F21D0FEF767F802465E
:103B5000BB69D31A3A689A4202D33B68002B16D14C
:103B6000FB6800221A63FB68202283F83D20FB6873
:103B7000002283F83E20FB681B6C43F02002FB68A8
:103B80001A64FB68002283F83C20012323E0BB6811
:103B90001B0CDBB2012B0DD1FB681B685B69DA43A0
:103BA000BB6813409BB2002B0CBF01230023DBB288
:103BB0001A460CE0FB681B689B69DA43BB6813403C
:103BC0009BB2002B0CBF01230023DBB21A46FB790A
:103BD0009A42B6D0002318461037BD4680BD80B546
:103BE00084B000AFF860B9607A603B6051E0FB6878
:103BF0001B685B6903F48063B3F5806F23D1FB68B6
:103C00001B681A68FB681B6842F400721A60FB6844
:103C10001B686FF480625A61FB6800221A63FB68BC
:103C2000202283F83D20FB68002283F83E20FB68B9
:103C30001B6C43F00402FB681A64FB68002283F8E3
:103C40003C20012346E07B68B3F1FF3F21D0FDF724
:103C5000E5FF02463B68D31A7A689A4202D37B6832
:103C6000002B16D1FB6800221A63FB68202283F820
:103C70003D20FB68002283F83E20FB681B6C43F06C
:103C80002002FB681A64FB68002283F83C200123B1
:103C900020E0BB681B0CDBB2012B0CD1FB681B685E
:103CA0005B69DA43BB6813409BB2002B14BF01234E
:103CB0000023DBB20BE0FB681B689B69DA43BB683F
:103CC00013409BB2002B14BF01230023DBB2002B57
:103CD0008DD1002318461037BD4680BD80B584B015
:103CE00000AFF860B9607A602DE0F86800F078F80D
:103CF0000346002B01D001232DE0BB68B3F1FF3F49
:103D000021D0FDF78BFF02467B68D31ABA689A422E
:103D100002D3BB68002B16D1FB6800221A63FB6834
:103D2000202283F83D20FB68002283F83E20FB68B8
:103D30001B6C43F02002FB681A64FB68002283F8C6
:103D40003C20012307E0FB681B685B6903F08003EC
:103D5000802BCAD1002318461037BD4680BD80B5E0
:103D600084B000AFF860B9607A602DE0F86800F0C8
:103D700037F80346002B01D001232DE0BB68B3F1D7
:103D8000FF3F21D0FDF74AFF02467B68D31ABA688D
:103D90009A4202D3BB68002B16D1FB6800221A633B
:103DA000FB68202283F83D20FB68002283F83E2038
:103DB000FB681B6C43F02002FB681A64FB6800225E
:103DC00083F83C20012307E0FB681B685B6903F074
:103DD0000403042BCAD1002318461037BD4680BD0A
:103DE00080B483B000AF78607B681B685B6903F4C4
:103DF0008063B3F5806F1BD17B681B686FF48062B2
:103E00005A617B6800221A637B68202283F83D2078
:103E10007B68002283F83E207B681B6C43F0040221
:103E20007B681A647B68002283F83C20012300E051
:103E3000002318460C37BD465DF8047B704780B4FC
:103E400083B000AF786039607B6893F83D30DBB2B7
:103E5000202B29D17B68242283F83D207B681B68B6
:103E60001A687B681B6822F001021A607B681B6875
:103E70005A6A7B681B6822F010025A627B681B68D2
:103E8000596A7B681B683A680A435A627B681B68F8
:103E90001A687B681B6842F001021A607B68202266
:103EA00083F83D20002300E0022318460C37BD466E
:103EB0005DF8047B704780B485B000AF78603960EE
:103EC0000023FB817B6893F83D30DBB2202B2AD1A5
:103ED0007B68242283F83D207B681B681A687B6816
:103EE0001B6822F001021A607B681B685B6AFB8119
:103EF000FB8923F00F03FB813B689AB2FB891343D4
:103F0000FB817B681B68FA895A627B681B681A68A8
:103F10007B681B6842F001021A607B68202283F8EC
:103F20003D20002300E0022318461437BD465DF80B
:103F3000047B7047F0B58FB00AAF78607B68002BC8
:103F400001D101230FE17B681B68BB607B6893F89C
:103F5000BD34DBB2002B06D17B68002283F8BC2481
:103F60007868FDF76BFC7B68032283F8BD24BB688F
:103F7000DB6B03F48073002B02D17B6800221A6193
:103F80007B681B68184603F04AF87B681B683B6037
:103F90007E686D4606F110040FCC0FC50FCC0FC51F
:103FA00094E8030085E80300331D0ECB386802F067
:103FB000D5FF0346002B05D07B68022283F8BD2481
:103FC0000123D0E07B681B680021184603F038F815
:103FD0000023FB734AE0FA7B79681346DB00134445
:103FE0009B000B443D3301221A70FA7B796813461B
:103FF000DB0013449B000B443C33FA7B1A70FA7BC2
:10400000FB7B98B279681346DB0013449B000B449A
:10401000443302461A80FA7B79681346DB00134466
:104020009B000B44403300221A70FA7B79681346D8
:10403000DB0013449B000B44483300221A60FA7BD8
:1040400079681346DB0013449B000B444C33002279
:104050001A60FA7B79681346DB0013449B000B441B
:10406000543300221A60FB7B0133FB73FA7B7B68BD
:104070005B689A42AFD30023FB7344E0FA7B796814
:104080001346DB0013449B000B4403F27D23002204
:104090001A70FA7B79681346DB0013449B000B44CB
:1040A00003F51F73FA7B1A70FA7B79681346DB00FD
:1040B00013449B000B4403F5207300221A70FA7B13
:1040C00079681346DB0013449B000B4403F522730D
:1040D00000221A60FA7B79681346DB0013449B00C8
:1040E0000B4403F5237300221A60FA7B79681346A8
:1040F000DB0013449B000B4403F5257300221A6078
:10410000FB7B0133FB73FA7B7B685B689A42B5D318
:104110007B681B683B607E686D4606F110040FCC1F
:104120000FC50FCC0FC594E8030085E80300331DCD
:104130000ECB386802F0D0FF0346002B05D07B6819
:10414000022283F8BD2401230DE07B68002283F85E
:1041500038207B68012283F8BD247B681B681846E1
:1041600003F09BF9002318461437BD46F0BD00004C
:1041700080B586B000AF78607B68002B01D1012349
:1041800067E27B681B6803F00103002B75D0884B46
:104190009B6803F00C03042B0CD0854B9B6803F049
:1041A0000C03082B12D1824B5B6803F48003B3F538
:1041B000800F0BD17E4B1B6803F40033002B5BD0C8
:1041C0007B685B68002B57D1012342E27B685B6808
:1041D000B3F5803F06D1764B1B68754A43F48033B4
:1041E00013601DE07B685B68B3F5A02F0CD1704BAA
:1041F0001B686F4A43F4802313606D4B1B686C4A45
:1042000043F4803313600BE0694B1B68684A23F466
:1042100080331360664B1B68654A23F48023136068
:104220007B685B68002B13D0FDF7F8FC386108E071
:10423000FDF7F4FC02463B69D31A642B01D9032332
:1042400007E25B4B1B6803F40033002BF0D014E053
:10425000FDF7E4FC386108E0FDF7E0FC02463B694D
:10426000D31A642B01D90323F3E1514B1B6803F4E8
:104270000033002BF0D100E000BF7B681B6803F027
:104280000203002B63D04A4B9B6803F00C03002B06
:104290000BD0474B9B6803F00C03082B1CD1444BFD
:1042A0005B6803F48003002B16D1414B1B6803F0BD
:1042B0000203002B05D07B68DB68012B01D00123B2
:1042C000C7E13B4B1B6823F0F8027B681B69DB00EE
:1042D000374913430B603AE07B68DB68002B20D042
:1042E000344B01221A60FDF799FC386108E0FDF7B4
:1042F00095FC02463B69D31A022B01D90323A8E19E
:104300002B4B1B6803F00203002BF0D0284B1B68DB
:1043100023F0F8027B681B69DB00254913430B601F
:1043200015E0244B00221A60FDF778FC386108E0A4
:10433000FDF774FC02463B69D31A022B01D9032313
:1043400087E11B4B1B6803F00203002BF0D17B6855
:104350001B6803F00803002B36D07B685B69002BD9
:1043600016D0154B01221A60FDF758FC386108E0A1
:10437000FDF754FC02463B69D31A022B01D90323F3
:1043800067E10B4B5B6F03F00203002BF0D01BE0E7
:10439000094B00221A60FDF741FC38610EE0FDF781
:1043A0003DFC02463B69D31A022B07D9032350E197
:1043B0000038024000004742800E4742884B5B6F46
:1043C00003F00203002BEAD17B681B6803F00403AF
:1043D000002B00F097800023FB75814B1B6C03F0D2
:1043E0008053002B0FD10023BB607D4B1B6C7C4A9C
:1043F00043F0805313647A4B1B6C03F08053BB6013
:10440000BB680123FB75774B1B6803F48073002B9B
:1044100018D1744B1B68734A43F480731360FDF723
:10442000FDFB386108E0FDF7F9FB02463B69D31A52
:10443000022B01D903230CE16A4B1B6803F4807340
:10444000002BF0D07B689B68012B06D1644B1B6F5F
:10445000634A43F0010313671CE07B689B68052BEC
:104460000CD15F4B1B6F5E4A43F0040313675C4B38
:104470001B6F5B4A43F0010313670BE0584B1B6F44
:10448000574A23F001031367554B1B6F544A23F01F
:10449000040313677B689B68002B15D0FDF7BEFBF8
:1044A00038610AE0FDF7BAFB02463B69D31A41F2D4
:1044B0008832934201D90323CBE0494B1B6F03F0B1
:1044C0000203002BEED014E0FDF7A8FB38610AE0F0
:1044D000FDF7A4FB02463B69D31A41F288329342AE
:1044E00001D90323B5E03E4B1B6F03F00203002B01
:1044F000EED1FB7D012B05D1394B1B6C384A23F0E3
:10450000805313647B689B69002B00F0A180344BBF
:104510009B6803F00C03082B5CD07B689B69022B23
:1045200041D1314B00221A60FDF778FB386108E079
:10453000FDF774FB02463B69D31A022B01D9032312
:1045400087E0274B1B6803F00073002BF0D17B68DA
:10455000DA697B681B6A1A437B685B6A9B011A43B2
:104560007B689B6A5B08013B1B041A437B68DB6A20
:104570001B061B4913434B601B4B01221A60FDF7BE
:104580004DFB386108E0FDF749FB02463B69D31A51
:10459000022B01D903235CE0114B1B6803F000736D
:1045A000002BF0D054E0104B00221A60FDF736FBD0
:1045B000386108E0FDF732FB02463B69D31A022B53
:1045C00001D9032345E0064B1B6803F00073002B61
:1045D000F0D13DE07B689B69012B07D1012338E0D6
:1045E0000038024000700040600047421B4B5B688F
:1045F000FB607B689B69012B28D0FB6803F4800279
:104600007B68DB699A4221D1FB6803F03F027B683B
:104610001B6A9A421AD1FA6847F6C07313407A6847
:10462000526A9201934211D1FB6803F440327B68D5
:104630009B6A5B08013B1B049A4207D1FB6803F0AD
:1046400070627B68DB6A1B069A4201D0012300E09E
:10465000002318461837BD4680BD00BF0038024011
:1046600080B584B000AF786039607B68002B01D1E1
:104670000123CCE0684B1B6803F00F033A689A42B1
:104680000CD9654B3A68D2B21A70634B1B6803F0C1
:104690000F033A689A4201D00123B8E07B681B6897
:1046A00003F00203002B20D07B681B6803F0040397
:1046B000002B05D0594B9B68584A43F4E053936054
:1046C0007B681B6803F00803002B05D0534B9B68E5
:1046D000524A43F460439360504B9B6823F0F002CE
:1046E0007B689B684D4913438B607B681B6803F0B4
:1046F0000103002B44D07B685B68012B07D1474B3B
:104700001B6803F40033002B19D101237FE07B6881
:104710005B68022B03D07B685B68032B07D13F4BA0
:104720001B6803F00073002B09D101236FE03B4BA2
:104730001B6803F00203002B01D1012367E0374B14
:104740009B6823F003027B685B68344913438B60EA
:10475000FDF764FAF8600AE0FDF760FA0246FB68CC
:10476000D31A41F28832934201D903234FE02B4BF5
:104770009B6803F00C027B685B689B009A42EBD15C
:10478000254B1B6803F00F033A689A420CD2224B68
:104790003A68D2B21A70204B1B6803F00F033A68D4
:1047A0009A4201D0012332E07B681B6803F00403C6
:1047B000002B08D0194B9B6823F4E0527B68DB6820
:1047C000164913438B607B681B6803F00803002BBA
:1047D00009D0124B9B6823F460427B681B69DB00A5
:1047E0000E4913438B6000F021F802460B4B9B6887
:1047F0001B0903F00F030A49CB5C22FA03F3094AB1
:104800001360094B1B681846FDF7C4F900231846CE
:104810001037BD4680BD00BF003C0240003802405A
:10482000288A000800000020040000202DE9B04F75
:1048300094B000AF00237B640023FB6400233B643F
:104840000023BB64794B9B6803F00C03082B0DD04D
:10485000082B00F2E180002B02D0042B03D0DBE018
:10486000734BBB64DBE0734BBB64D8E06F4B5B689E
:1048700003F03F037B646D4B5B6803F48003002B04
:1048800063D06A4B5B689B090022BB63FA63BB6B16
:10489000C3F308033B6300237B63D7E90C4522463F
:1048A0002B464FF000004FF00001590141EAD26160
:1048B000500102460B462146511A3961294663EBE5
:1048C00001037B614FF000024FF00003D7E904AB16
:1048D00059468B01514643EA916351468A0151463C
:1048E000B2EB0108594663EB01094FF000024FF0AB
:1048F00000034FEAC90343EA58734FEAC8029046DF
:104900009946234618EB0303BB602B4649EB030390
:10491000FB604FF000024FF00003D7E90245294643
:104920004B02214643EAD15321464A02104619461A
:104930007B6C0022BB62FA62D7E90A23FBF7B0FC6A
:1049400002460B461346FB6458E0384B5B689B09F4
:10495000002218461146C0F308033B6200237B6225
:10496000D7E9088942464B464FF000004FF000015E
:10497000590141EAD261500102460B464146B2EB71
:10498000010A494663EB010B4FF000024FF00003B0
:104990004FEA8B1343EA9A634FEA8A12B2EB0A0496
:1049A00063EB0B054FF000024FF00003EB0043EA0E
:1049B0005473E20014461D464346E3183B604B46E1
:1049C00045EB03037B604FF000024FF00003D7E993
:1049D000004529468B02214643EA915321468A022B
:1049E000104619467B6C0022BB61FA61D7E90623A9
:1049F000FBF756FC02460B461346FB640B4B5B6809
:104A00001B0C03F0030301335B003B64FA6C3B6C4B
:104A1000B2FBF3F3BB6402E0054BBB6400BFBB6CAD
:104A200018465037BD46BDE8B08F00BF0038024081
:104A30000024F40000127A0080B400AF034B1B681E
:104A40001846BD465DF8047B704700BF000000209B
:104A500080B500AFFFF7F0FF0246054B9B689B0A4D
:104A600003F007030349CB5C22FA03F3184680BD29
:104A700000380240388A000880B500AFFFF7DCFF3D
:104A80000246054B9B685B0B03F007030349CB5CB5
:104A900022FA03F3184680BD00380240388A000825
:104AA00080B586B000AF786000237B6100233B6156
:104AB0007B681B6803F00103002B0BD17B681B682C
:104AC00003F00203002B05D17B681B6803F0400351
:104AD000002B75D0914B00221A60FDF79FF878618A
:104AE00008E0FDF79BF802467B69D31A022B01D937
:104AF000032389E18A4B1B6803F00063002BF0D18C
:104B00007B681B6803F00103002B09D07B685B689E
:104B10009A017B689B681B0781491343C1F8843065
:104B20007B681B6803F00203002B1FD07C4BD3F87B
:104B300084301B0F03F007033B617B685B689A01BD
:104B40007B68DB681B061A433B691B0774491343E8
:104B5000C1F88430724BD3F88C3023F01F027B688D
:104B6000DB69013B6E491343C1F88C307B681B68DD
:104B700003F04003002B0DD07B685B689A017B68D3
:104B8000DB681B061A437B689B681B076449134359
:104B9000C1F88430614B01221A60FDF73FF878615B
:104BA00008E0FDF73BF802467B69D31A022B01D9D6
:104BB000032329E15A4B1B6803F00063002BF0D05C
:104BC0007B681B6803F00403002B05D17B681B681E
:104BD00003F00803002B79D0524B00221A60FDF736
:104BE0001DF8786108E0FDF719F802467B69D31AD1
:104BF000022B01D9032307E1494B1B6803F0005343
:104C0000B3F1005FEFD07B681B6803F00403002B57
:104C100020D0434BD3F888301B0F03F007033B61D0
:104C20007B681B699A017B685B691B061A433B69B9
:104C30001B073B491343C1F88830394BD3F88C30FC
:104C400023F4F8527B681B6A013B1B02344913436F
:104C5000C1F88C307B681B6803F00803002B1ED062
:104C60002F4BD3F888301B0E03F00F033B617B689A
:104C70001B699A013B691B061A437B689B691B07EA
:104C800027491343C1F88830254BD3F88C3023F4DF
:104C900040327B685B6A22491343C1F88C30214B58
:104CA00001221A60FCF7BAFF786108E0FCF7B6FF52
:104CB00002467B69D31A022B01D90323A4E0184BC7
:104CC0001B6803F00053B3F1005FEFD17B681B68F2
:104CD00003F02003002B00F08B800023FB60104BBF
:104CE0001B6C0F4A43F0805313640D4B1B6C03F095
:104CF0008053FB60FB680C4B1B680B4A43F48073CA
:104D00001360FCF78BFF786110E0FCF787FF024629
:104D10007B69D31A022B09D9032375E06800474247
:104D2000003802407000474200700040384B1B685A
:104D300003F48073002BE8D0364B1B6F03F44073F1
:104D40003B613B69002B2FD07B689B6A03F4407367
:104D50003A699A4228D02F4B1B6F23F440733B6172
:104D60002D4B01221A602C4B00221A60294A3B6904
:104D70001367284B1B6F03F00103012B14D1FCF7C1
:104D80004DFF78610AE0FCF749FF02467B69D31AC0
:104D900041F28832934201D9032335E01D4B1B6F4A
:104DA00003F00203002BEED07B689B6A03F4407390
:104DB000B3F5407F0DD1174B9B6823F4F8127B6845
:104DC0009B6A23F0704323F44073124913438B60B2
:104DD00005E0104B9B680F4A23F4F81393600D4BCA
:104DE0001A6F7B689B6AC3F30B030A4913430B6773
:104DF0007B681B6803F01003002B04D07B6893F8DA
:104E00002C20064B1A60002318461837BD4680BD7B
:104E10000070004000380240400E4742E011474217
:104E200080B584B000AF78600123FB737B68002BF2
:104E300001D1012366E07B685B7FDBB2002B05D1EB
:104E40007B6800221A777868FCF72EFC7B680222C8
:104E50005A777B681B68CA225A627B681B68532298
:104E60005A62786800F020FB0346FB73FB7B002B43
:104E70002CD17B681B689B687A68126823F4E00376
:104E800023F0400393607B681B6899687B685A68CD
:104E90007B681B691A437B685B691A437B681B68E4
:104EA0000A439A607B681B687A68D2681A617B68DB
:104EB0001B6819697B689B681A047B681B680A4336
:104EC0001A61786800F027FB0346FB73FB7B002B1D
:104ED00013D17B681B681A6C7B681B6822F48022E4
:104EE0001A647B681B68196C7B689A697B681B680D
:104EF0000A431A647B6801225A777B681B68FF2289
:104F00005A62FB7B18461037BD4680BD90B587B00E
:104F100000AFF860B9607A6000237B61FB681B7F9B
:104F2000012B01D1022387E0FB6801221A77FB687D
:104F300002225A777B68002B26D1FB681B689B688E
:104F400003F04003002B02D1BB680022DA70BB687B
:104F50001B78184600F004FB03461C04BB685B7812
:104F6000184600F0FDFA03461B021C43BB689B7801
:104F7000184600F0F5FA034644EA0302BB68DB7802
:104F80009B0513437B6118E0FB681B689B6803F07B
:104F90004003002B02D1BB680022DA70BB681B788B
:104FA0001A04BB685B781B021343BA6892781A43F1
:104FB000BB68DB789B0513437B61FB681B68CA22D7
:104FC0005A62FB681B6853225A62F86800F06CFA58
:104FD0000346FB74FB7C002B20D1FB681A687B69BD
:104FE00003F07F3323F0FE431360FB681B689A686D
:104FF000FB681B6822F480229A60FB681B68996832
:10500000BB68DA68BB681B691A43FB681B680A4304
:105010009A60F86800F07FFA0346FB74FB7C002B73
:1050200002D1FB6801225A77FB681B68FF225A6293
:10503000FB6800221A77FB7C18461C37BD4690BDE2
:1050400090B587B000AFF860B9607A6000237B61EB
:10505000FB681B7F012B01D1022371E0FB68012259
:105060001A77FB6802225A777B68002B0ED1BB6847
:105070005B7803F01003002B08D0BB685B7823F04B
:105080001003DBB20A33DAB2BB685A707B68002BBC
:105090001CD1BB68DB78184600F062FA03461C049A
:1050A000BB685B78184600F05BFA03461B021C43A2
:1050B000BB689B78184600F053FA034644EA0302A3
:1050C000BB681B785B0313437B610EE0BB68DB7836
:1050D0001A04BB685B781B021343BA6892781A43C0
:1050E000BB681B785B0313437B61FB681B68CA22A8
:1050F0005A62FB681B6853225A62F86800F0D4F9C0
:105100000346FB74FB7C002B0CD1FB681A687B699F
:1051100023F07F4323F0C0035360F86800F0FBF9ED
:105120000346FB74FB7C002B02D1FB6801225A77FB
:10513000FB681B68FF225A62FB6800221A77FB7C1F
:1051400018461C37BD4690BD90B589B000AFF860D9
:10515000B9607A609A4B1B689A4AA2FB0323DB0A68
:105160004FF47A7202FB03F37B610023FB6100239F
:10517000BB61FB681B7F012B01D102231CE1FB6893
:1051800001221A77FB6802225A777B68002B37D1FD
:10519000FB681B689B6803F04003002B02D1BB68CF
:1051A0000022DA70BB681B78184600F0D9F9034674
:1051B0001C04BB685B78184600F0D2F903461B025A
:1051C0001C43BB689B78184600F0CAF9034644EAC2
:1051D0000302BB68DB789B0542EA0304BB6893F8D3
:1051E0002030184600F0BCF903461B0644EA0302CF
:1051F000BB68DB691A43BB685B691343FB6123E04F
:10520000FB681B689B6803F04003002B02D1BB685E
:105210000022DA70BB681B781A04BB685B781B023B
:105220001343BA6892781A43BB68DB789B051A432C
:10523000BB6893F820301B061A43BB68DB691A432E
:10524000BB685B691343FB61BB685A68BB689B69B9
:105250001343BB61FB681B68CA225A62FB681B6868
:1052600053225A62BB685B6AB3F5807F41D1FB6809
:105270001B689A68FB681B6822F480729A60FB685E
:105280001B68DB68DAB2FB681B6862F4C072DA6024
:105290007B695A1E7A61002B0BD1FB681B68FF22C9
:1052A0005A62FB6803225A77FB6800221A770323AD
:1052B00082E0FB681B68DB6803F00103002BE7D08A
:1052C000FB681B68FA69DA61FB681B68BA695A6493
:1052D000FB681B689A68FB681B6842F480729A60DE
:1052E000FB681B689A68FB681B6842F480529A60EE
:1052F0004BE0FB681B689A68FB681B6822F400722D
:105300009A60FB681B68DB68DAB2FB681B6862F4B2
:105310002072DA602A4B1B682A4AA2FB0323DB0AAD
:105320004FF47A7202FB03F37B617B695A1E7A6148
:10533000002B0BD1FB681B68FF225A62FB6803221B
:105340005A77FB6800221A77032335E0FB681B6855
:10535000DB6803F00203002BE7D0FB681B68FA69E7
:105360001A62FB681B68BA699A64FB681B689A68D2
:10537000FB681B6842F400729A60FB681B689A68BD
:10538000FB681B6842F400529A600F4B1B680E4A80
:1053900043F4003313600C4B9B680B4A43F4003317
:1053A0009360FB681B68FF225A62FB6801225A77F0
:1053B000FB6800221A77002318462437BD4690BDAB
:1053C00000000020D34D6210003C014080B582B047
:1053D00000AF78607B681B689B6803F48053002BE8
:1053E00012D07B681B68DB6803F48073002B0BD042
:1053F0007868FBF7C3FE7B681B68DB68DAB27B6802
:105400001B6862F4C072DA607B681B689B6803F4F7
:105410000053002B12D07B681B68DB6803F4007319
:10542000002B0BD0786800F0B8F87B681B68DB684D
:10543000DAB27B681B6862F42072DA60054B4FF4C5
:1054400000325A617B6801225A7700BF0837BD4697
:1054500080BD00BF003C014080B584B000AF7860E3
:105460000023FB607B681B68DA687B681B6822F09E
:10547000A002DA60FCF7D2FBF86009E0FCF7CEFB93
:105480000246FB68D31AB3F57A7F01D9032307E0FC
:105490007B681B68DB6803F02003002BEED0002341
:1054A00018461037BD4680BD80B584B000AF786027
:1054B0000023BB600023FB737B681B68DB6803F081
:1054C0004003002B22D17B681B68DA687B681B686D
:1054D00042F08002DA60FCF7A1FBB8600CE0FCF758
:1054E0009DFB0246BB68D31AB3F57A7F04D97B686B
:1054F00004225A770123FB737B681B68DB6803F087
:105500004003002B02D1FB7B012BE8D1FB7B18462B
:105510001037BD4680BD80B584B000AF78600023F1
:10552000FB737B681B68DA687B681B6822F080026B
:10553000DA607B681B689B6803F02003002B0AD1AC
:105540007868FFF789FF0346002B04D07B680422AC
:105550005A770123FB73FB7B18461037BD4680BD8D
:1055600080B485B000AF0346FB710023FB7305E0F8
:10557000FB7B0133FB73FB790A3BFB71FB79092B46
:10558000F6D8FB7B1B01DAB2FB791343DBB218467A
:105590001437BD465DF8047B704780B483B000AF1C
:1055A000786000BF0C37BD465DF8047B704780B55E
:1055B00082B000AF78607B68002B01D1012341E00D
:1055C0007B6893F83D30DBB2002B06D17B6800226C
:1055D00083F83C207868FCF791F87B68022283F816
:1055E0003D207B681A687B6804331946104600F03A
:1055F0002FFA7B68012283F846207B68012283F81A
:105600003E207B68012283F83F207B68012283F8DB
:1056100040207B68012283F841207B68012283F8C7
:1056200042207B68012283F843207B68012283F8B3
:1056300044207B68012283F845207B68012283F89F
:105640003D20002318460837BD4680BD80B582B096
:1056500000AF78607B681B681B6903F00203022BB4
:1056600022D17B681B68DB6803F00203022B1BD18D
:105670007B681B686FF002021A617B6801221A774F
:105680007B681B689B6903F00303002B03D07868D9
:1056900000F0BFF905E0786800F0B1F9786800F033
:1056A000C2F97B6800221A777B681B681B6903F0CC
:1056B0000403042B22D17B681B68DB6803F004031E
:1056C000042B1BD17B681B686FF004021A617B6896
:1056D00002221A777B681B689B6903F44073002BD6
:1056E00003D0786800F095F905E0786800F087F954
:1056F000786800F098F97B6800221A777B681B684D
:105700001B6903F00803082B22D17B681B68DB6848
:1057100003F00803082B1BD17B681B686FF008029D
:105720001A617B6804221A777B681B68DB6903F0C7
:105730000303002B03D0786800F06BF905E078686C
:1057400000F05DF9786800F06EF97B6800221A7746
:105750007B681B681B6903F01003102B22D17B6848
:105760001B68DB6803F01003102B1BD17B681B68E0
:105770006FF010021A617B6808221A777B681B6839
:10578000DB6903F44073002B03D0786800F041F923
:1057900005E0786800F033F9786800F044F97B6838
:1057A00000221A777B681B681B6903F00103012B39
:1057B0000ED17B681B68DB6803F00103012B07D166
:1057C0007B681B686FF001021A61786800F00DF9C0
:1057D0007B681B681B6903F08003802B0ED17B68FC
:1057E0001B68DB6803F08003802B07D17B681B6894
:1057F0006FF080021A61786800F0EAFA7B681B6833
:105800001B6903F04003402B0ED17B681B68DB68EB
:1058100003F04003402B07D17B681B686FF0400208
:105820001A61786800F009F97B681B681B6903F04E
:105830002003202B0ED17B681B68DB6803F020035C
:10584000202B07D17B681B686FF020021A617868F3
:1058500000F0B4FA00BF0837BD4680BD80B584B003
:1058600000AF786039600023FB737B6893F83C30AD
:10587000012B01D10223B4E07B68012283F83C2094
:105880007B68022283F83D207B681B689B68BB60B5
:10589000BB6823F07703BB60BB6823F47F43BB6026
:1058A0007B681B68BA689A603B681B68B3F5005F49
:1058B0003ED0B3F5005F00F28780B3F5805F00F063
:1058C0008680B3F5805F7FD8702B1AD0702B7BD881
:1058D000602B50D0602B77D8502B3CD0502B73D8F6
:1058E000402B58D0402B6FD8302B64D0302B6BD846
:1058F000202B60D0202B67D8002B5CD0102B5AD0E7
:1059000062E07B6818683B6899683B685A683B6846
:10591000DB6800F0B7F97B681B689B68BB60BB68FD
:1059200043F07703BB607B681B68BA689A604FE0FE
:105930007B6818683B6899683B685A683B68DB6815
:1059400000F0A0F97B681B689A687B681B6842F4CA
:1059500080429A603CE07B6818683B6859683B6805
:10596000DB681A4600F014F97B681B685021184662
:1059700000F06DF92CE07B6818683B6859683B685B
:10598000DB681A4600F033F97B681B686021184613
:1059900000F05DF91CE07B6818683B6859683B685B
:1059A000DB681A4600F0F4F87B681B684021184653
:1059B00000F04DF90CE07B681A683B681B681946DB
:1059C000104600F044F903E00123FB7300E000BF40
:1059D0007B68012283F83D207B68002283F83C200D
:1059E000FB7B18461037BD4680BD80B483B000AF46
:1059F000786000BF0C37BD465DF8047B704780B40B
:105A000083B000AF786000BF0C37BD465DF8047B03
:105A1000704780B483B000AF786000BF0C37BD46DC
:105A20005DF8047B704780B483B000AF786000BF3E
:105A30000C37BD465DF8047B704780B483B000AF7F
:105A4000786000BF0C37BD465DF8047B70470000EE
:105A500080B485B000AF786039607B681B68FB60FC
:105A60007B68404A934213D07B68B3F1804F0FD0DC
:105A70007B683D4A93420BD07B683C4A934207D0F7
:105A80007B683B4A934203D07B683A4A934208D1F1
:105A9000FB6823F07003FB603B685B68FA681343A4
:105AA000FB607B682F4A93422BD07B68B3F1804F19
:105AB00027D07B682C4A934223D07B682B4A9342A1
:105AC0001FD07B682A4A93421BD07B68294A9342A5
:105AD00017D07B68284A934213D07B68274A9342A9
