:020000040800F2
:1000000000000320B1230008711C0008771C0008C1
:100010007D1C0008831C0008891C000800000000EB
:100020000000000000000000000000008F1C00081D
:100030009D1C000800000000AB1C0008B91C000853
:1000400001240008012400080124000801240008FC
:1000500001240008012400080124000801240008EC
:1000600001240008012400080124000801240008DC
:1000700001240008012400080124000801240008CC
:100080000124000801240008C51C00080124000800
:10009000012400080124000801240008D91C0008DC
:1000A000012400080124000801240008012400089C
:1000B000E91C0008012400080124000801240008AC
:1000C000012400080124000801240008012400087C
:1000D000012400080124000801240008FD1C000878
:1000E000111D0008211D000801240008012400083A
:1000F000012400080124000801240008012400084C
:10010000012400080124000801240008012400083B
:10011000351D0008012400080124000801240008FE
:10012000491D0008012400080124000801240008DA
:10013000012400080124000801240008012400080B
:1001400001240008012400080124000801240008FB
:1001500001240008012400080124000801240008EB
:1001600001240008012400080124000801240008DB
:1001700001240008012400080124000800000000F8
:1001800001240008012400080124000801240008BB
:1001900001240008012400080124000801240008AB
:0C01A000012400080124000801240008CC
:1001B00010B5054C237833B9044B13B10448AFF3A1
:1001C00000800123237010BD70000020000000009B
:1001D00048A0000808B5034B1BB103490348AFF31F
:1001E000008008BD000000007400002048A0000846
:1001F000034613F8012B002AFBD1181A0138704767
:1002000001F0FF01102A2BDB10F0070F08D010F8C7
:10021000013B013A8B422DD010F0070F42B3F6D1CB
:10022000F0B441EA012141EA014122F007047FF0E4
:1002300000070023F0E80256083C85EA010586EA3B
:10024000010685FA47F5A3FA87F586FA47F6A5FA77
:1002500087F68EB9EED1F0BC01F0FF0102F0070283
:1002600032B110F8013B013A83EA010313B1F8D12E
:100270000020704701387047002D06BF354603380F
:10028000073815F0010F07D1013015F4807F02BF48
:10029000013015F4C03F0130F0BC0138704700BF99
:1002A00053B94AB9002908BF00281CBF4FF0FF31DD
:1002B0004FF0FF3000F070B9ADF1080C6DE904CEDD
:1002C00000F006F8DDF804E0DDE9022304B0704731
:1002D0002DE9F047089E0D4604460F46002B4AD1F3
:1002E0008A42944665D9B2FA82F343B102FA03FC1A
:1002F000C3F120029F4020FA02F217439C404FEACC
:100300001C4E1FFA8CF5B7FBFEF1220C0EFB117789
:1003100042EA074201FB05F090420AD91CEB0202B7
:1003200001F1FF3780F01C81904240F219810239BF
:100330006244121AA4B2B2FBFEF00EFB102244EA91
:10034000024400FB05F5A5420AD91CEB040400F1A8
:10035000FF3280F00781A54240F2048164440238F4
:1003600040EA0140641B00211EB1DC400023C6E9C5
:100370000043BDE8F0878B4208D9002E00F0ED80E5
:100380000021C6E900050846BDE8F087B3FA83F10D
:10039000002949D1AB4202D3824200F2F880841A8C
:1003A00065EB030201201746002EE2D0C6E90047A4
:1003B000DFE702B9FFDEB2FA82F3002B40F0908053
:1003C0008A1A4FEA1C471FFA8CFE0121B2FBF7F58F
:1003D00007FB1520220C42EA00420EFB05F090427A
:1003E00008D91CEB020205F1FF3802D2904200F25C
:1003F000CB804546121AA4B2B2FBF7F007FB1022DD
:1004000044EA02440EFB00FEA64508D91CEB040496
:1004100000F1FF3202D2A64500F2BB801046A4EBE9
:100420000E0440EA05409FE7C1F120078B4022FA05
:1004300007FC4CEA030C05FA01F420FA07F3FD402F
:100440004FEA1C492343B5FBF9F81FFA8CFE09FB60
:1004500018551C0C44EA054408FB0EF5A54202FAA7
:1004600001F200FA01F00BD91CEB040408F1FF3A89
:1004700080F08880A54240F28580A8F1020864449B
:10048000641B9DB2B4FBF9F309FB134445EA044431
:1004900003FB0EFEA64508D91CEB040403F1FF354F
:1004A0006CD2A6456AD9023B644443EA0843A3FBE5
:1004B0000295A4EB0E04AC42C846AE4656D353D0C8
:1004C00056B1B0EB080264EB0E0404FA07F7CA4019
:1004D000CC401743C6E9007418460021BDE8F087F8
:1004E000C3F1200102FA03FC20FA01F225FA01F11E
:1004F0009D402A434FEA1C471FFA8CFEB1FBF7F0E0
:1005000007FB1015110C41EA054100FB0EF58D4269
:1005100004FA03F408D91CEB010100F1FF382FD2D3
:100520008D422DD902386144491B92B2B1FBF7F5D7
:1005300007FB151142EA014205FB0EF1914208D971
:100540001CEB020205F1FF3816D2914214D9023D8C
:100550006244521A45EA004138E73146304608E71E
:100560003946E6E61046FBE64845A9D2B9EB020853
:1005700065EB0C0E013BA3E74546EAE72B4694E703
:100580004046D1E7D0467BE7023D624432E7084669
:100590000AE76444023842E7704700BF80B584B080
:1005A00000AF3B4600221A605A609A60DA60284B1E
:1005B000284A1A60264B4FF480325A60244B00229E
:1005C0009A60234B01221A61214B01221A76204B9B
:1005D000002283F820201E4B0022DA621C4B1E4AA8
:1005E0009A621B4B0022DA60194B0222DA61184B27
:1005F000012283F83020164B01225A61144801F081
:1006000097FF0346002B01D001F046FA0A233B6016
:1006100001237B600323BB603B4619460C4802F074
:1006200013FA0346002B01D001F036FA03233B6096
:1006300002237B603B461946054802F005FA034653
:10064000002B01D001F028FA00BF1037BD4680BD55
:100650008C000020002001400100000F80B58AB00E
:1006600000AF786007F1140300221A605A609A60A4
:10067000DA601A617B681B683C4A934271D100239F
:100680003B613B4B5B6C3A4A43F480735364384B99
:100690005B6C03F480733B613B690023FB60344B6C
:1006A0001B6B334A43F004031363314B1B6B03F0A2
:1006B0000403FB60FB680023BB602D4B1B6B2C4AC3
:1006C00043F0010313632A4B1B6B03F00103BB6070
:1006D000BB6801237B610323BB610023FB6107F13E
:1006E00014031946234803F0A5FC08237B61032368
:1006F000BB610023FB6107F1140319461E4803F098
:1007000099FC1E4B1E4A1A601C4B00225A601B4B60
:1007100000229A60194B0022DA60184B4FF4806275
:100720001A61164B4FF480525A61144B4FF48042B9
:100730009A61124B4FF48072DA61104B00221A62F8
:100740000E4B00225A620D4802F04AFD0346002B70
:1007500001D001F0A1F97B68084A9A63074A7B68D7
:10076000936300BF2837BD4680BD00BF0020014015
:10077000003802400008024000000240D40000207F
:100780001064024080B582B000AF00237B600C4B48
:100790001B6B0B4A43F480031363094B1B6B03F47D
:1007A00080037B607B6800220021382002F0E1FC9E
:1007B000382002F0FAFC00BF0837BD4680BD00BFFC
:1007C0000038024080B500AF1F4B204A1A60204B12
:1007D00000221A701E4B80225A701D4BE1229A7023
:1007E0001B4B0022DA701A4B00221A71184B0022A0
:1007F0005A71154B164A5A60134B4FF400029A6017
:10080000114B144ADA60104B134A1A610E4B40F236
:10081000F4525A610C4803F0E5F80346002B01D06E
:1008200001F03AF9382200210C4808F0CBFC0B4BC0
:1008300021221A60094B4FF440025A61074B0022F3
:100840001A6100BF80BD00BFAC02002000800240E2
:100850005C030020D4010020340100207402002039
:1008600080B58EB000AF786007F1240300221A60D3
:100870005A609A60DA601A617B681B68554A934235
:1008800040F0A48000233B62534B1B6B524A43F061
:1008900000731363504B1B6B03F000733B623B6AA6
:1008A0000023FB614C4B1B6B4B4A43F0806313638B
:1008B000494B1B6B03F08063FB61FB690023BB6149
:1008C000454B1B6B444A43F000631363424B1B6B65
:1008D00003F00063BB61BB6900237B613E4B1B6B74
:1008E0003D4A43F0040313633B4B1B6B03F00403CB
:1008F0007B617B6900233B61374B1B6B364A43F0BE
:1009000001031363344B1B6B03F001033B613B6931
:100910000023FB60304B1B6B2F4A43F00203136331
:100920002D4B1B6B03F00203FB60FB680023BB60D5
:10093000294B1B6B284A43F040031363264B1B6B68
:1009400003F04003BB60BB6832237B620223BB62BF
:100950000023FB6203233B630B237B6307F1240328
:1009600019461E4803F066FB86237B620223BB62A6
:100970000023FB6203233B630B237B6307F1240308
:100980001946174803F056FB4FF400537B620223CD
:10099000BB620023FB6203233B630B237B6307F1F2
:1009A000240319460F4803F045FB4FF420537B62A4
:1009B0000223BB620023FB6203233B630B237B63A5
:1009C00007F124031946084803F034FB00BF383709
:1009D000BD4680BD00800240003802400008024051
:1009E00000000240000402400018024080B58CB0B4
:1009F00000AF07F11C0300221A605A609A60DA60A7
:100A00001A610023BB61524B1B6B514A43F0040334
:100A100013634F4B1B6B03F00403BB61BB690023E3
:100A20007B614B4B1B6B4A4A43F080031363484B7B
:100A30001B6B03F080037B617B6900233B61444BAC
:100A40001B6B434A43F001031363414B1B6B03F0E1
:100A500001033B613B690023FB603D4B1B6B3C4A40
:100A600043F0020313633A4B1B6B03F00203FB607A
:100A7000FB680023BB60364B1B6B354A43F0080311
:100A80001363334B1B6B03F00803BB60BB6800238D
:100A90007B602F4B1B6B2E4A43F0400313632C4BA0
:100AA0001B6B03F040037B607B68002244F28101F2
:100AB000284803F083FC00224021274803F07EFCF5
:100AC0004FF40053FB614FF444133B6200237B62FD
:100AD00007F11C031946214803F0ACFA44F28103E4
:100AE000FB6101233B6200237B620023BB6207F1B1
:100AF0001C031946174803F09DFA4023FB610123AC
:100B00003B6200237B620023BB6207F11C03194692
:100B1000114803F08FFA8023FB6100233B6200231E
:100B20007B6207F11C0319460B4803F083FA80230C
:100B3000FB614FF444133B6201237B6207F11C030A
:100B40001946074803F076FA00BF3037BD4680BD2E
:100B50000038024000040240001802400008024031
:100B6000000C024080B500AF1B4B1C4A1A601A4BA8
:100B70001B4A5A60184B00229A60174B0022DA6019
:100B8000154B4FF480421A61134B00225A61124BED
:100B900000229A61104B0022DA610F4B00221A6288
:100BA0000D4803F057FC0346002B01D000F074FF02
:100BB0000021094804F0C7F90346002B01D000F0DA
:100BC0006BFF0021044804F0FAF90346002B01D022
:100BD00000F062FF00BF80BD6403002000540040AD
:100BE000A086010080B58AB000AF786007F11403D9
:100BF00000221A605A609A60DA601A617B681B688A
:100C0000194A93422CD100233B61184B1B6B174AA6
:100C100043F002031363154B1B6B03F002033B61AC
:100C20003B694FF440737B611223BB610023FB617E
:100C300003233B6204237B6207F1140319460C482B
:100C400003F0F8F90023FB60084B1B6C074A43F4E0
:100C500000131364054B1B6C03F40013FB60FB686B
:100C600000BF2837BD4680BD005400400038024018
:100C700000040240B0B598B000AF2E4B07F1440419
:100C80001D460FCD0FC495E8030020600434218079
:100C900007F144031846FFF7ABFA03469AB207F18F
:100CA00044014FF0FF33244806F003FD0023A7F86A
:100CB0005E302FE0B7F85E305B0099B20A23012264
:100CC0001E4803F009FE034687F85D3097F85D3053
:100CD000002B13D1B7F85E30381D194A402108F0B7
:100CE00045F93B1D1846FFF783FA03469AB2391DB2
:100CF0004FF0FF33104806F0DCFC06E04FF0FF3306
:100D0000012210490C4806F0D4FCB7F85E300133DC
:100D1000A7F85E30B7F85E307F2BCBD94FF0FF33AA
:100D200002220949044806F0C4FC00BF6037BD46F2
:100D3000B0BD00BF70A00008400600206403002082
:100D400060A0000868A000086CA0000880B586B00C
:100D500002AF0346FB710B46BB7113467B71FB79F7
:100D600099B24FF0FF330122224803F0B5FD03464C
:100D7000FB73FB7B002B00D0F1E700BFBB7923F0B6
:100D80000F03BB73BB791B017B73BA7B7B79134366
:100D9000DBB243F00C03DBB23B72BA7B7B791343CB
:100DA000DBB243F00803DBB27B727A7B7B791343BF
:100DB000DBB243F00C03DBB2BB727A7B7B7913436B
:100DC000DBB243F00803DBB2FB72FB7999B207F1A7
:100DD00008024FF0FF3300930423064803F07EFC23
:100DE0000346FB73052001F07FFBFB7B18461037A1
:100DF000BD4680BD6403002080B582B000AF0346CD
:100E00000A46FB711346BB71B979FB79002218467B
:100E1000FFF79CFF00BF0837BD4680BD80B582B09C
:100E200000AF03460A46FB711346BB71B979FB79E3
:100E300001221846FFF78AFF00BF0837BD4680BD74
:100E400080B582B000AF0346FB71FB7930211846B4
:100E5000FFF7D2FFFB7902211846FFF7CDFFFB79A0
:100E60000C211846FFF7C8FFFB7901211846FFF750
:100E7000C3FF00BF0837BD4680BD80B582B000AF5C
:100E800003463960FB7109E03B681A78FB7911462B
:100E90001846FFF7C3FF3B6801333B603B681B7894
:100EA000002BF1D100BF00BF0837BD4680BD000058
:100EB00080B500AFFFF7DEFE4E20FFF7C1FF8021B7
:100EC0004E20FFF799FF07494E20FFF7D6FFC021BC
:100ED0004E20FFF791FF04494E20FFF7CEFF00BFE1
:100EE00080BD00BF88A0000898A0000880B582B02F
:100EF00000AF7860396080214E20FFF77DFF796870
:100F00004E20FFF7BAFFC0214E20FFF775FF39686A
:100F10004E20FFF7B2FF00BF0837BD4680BD00007E
:100F200080B500AF80214E20FFF766FF06494E20B6
:100F3000FFF7A3FFC0214E20FFF75EFF02494E20BE
:100F4000FFF79BFF00BF80BDA8A0000880B584B05C
:100F500000AFF860B9607A607B689AB24FF4FA73B8
:100F6000B968044806F0A5FB7B6818461037BD46F3
:100F700080BD00BF4006002098B500AF01F042FAE6
:100F800000F09EF8FFF732FDFFF7FCFBFFF71AFCBD
:100F900001F0DCF801F084F9FFF7E4FD00F082FDD8
:100FA00000F076FF01F0A8F8FFF7F8FA00F0BEFFB6
:100FB00000F0F2F802223249324801F00DFC012221
:100FC0003149324806F007FC01223149314806F028
:100FD00002FC00223049314805F0E8F9FFF768FFCC
:100FE000FFF79EFF17230D220B21012000F076F959
:100FF000002219210D2000F00BF90522002100200C
:1010000000F024F9264B1B78032B2FD801A252F8AD
:1010100023F000BF251000082B1000085D10000809
:101020006510000800F07EF924E01E4B1B78012BB0
:1010300008D11D4A1D4B14460FCB84E80F00194BF5
:1010400000221A7000F0CAF9194B1B78002B01D04E
:1010500000F08EFB174807F081FF0BE0164807F001
:101060007DFF07E0154807F079FF03E00C4B0022F5
:101070001A7000BF4FF4967001F036FAC2E700BF55
:10108000E40300208C000020B9030020400600206B
:10109000BA030020FC050020BC0300204805002006
:1010A000B8030020AE0400200C040020EC03002054
:1010B000B0040020BCA00008CCA00008D8A0000804
:1010C00080B594B000AF07F120033022002118460C
:1010D00008F078F807F10C0300221A605A609A6051
:1010E000DA601A610023BB60294B1B6C284A43F06D
:1010F00080531364264B1B6C03F08053BB60BB68AA
:1011000000237B60234B1B68224A43F44043136057
:10111000204B1B6803F440437B607B6805233B62E4
:101120004FF4A0237B620123BB620223BB634FF415
:101130008003FB6304233B64A8237B640223BB641A
:101140000723FB6407F12003184604F095F80346D3
:10115000002B01D000F0A0FC0F23FB6002233B61B9
:1011600000237B614FF4A053BB614FF48053FB61BC
:1011700007F10C030521184604F0F6FA0346002B8C
:1011800001D000F089FC00BF5037BD4680BD00BFD4
:10119000003802400070004080B500AF00220021FE
:1011A0001C2001F0E6FF1C2001F0FFFF00220021BF
:1011B000292001F0DEFF292001F0F7FF00220021A5
:1011C000172001F0D6FF172001F0EFFF00220021C9
:1011D000122001F0CEFF122001F0E7FF00220021D3
:1011E000272001F0C6FF272001F0DFFF00220021A9
:1011F000342001F0BEFF342001F0D7FF002200218F
:10120000282001F0B6FF282001F0CFFF00BF80BDED
:1012100080B588B000AF0346FB710B46BB71134627
:101220007B71FB790133DBB23B73BB797B737B79D9
:10123000BB7307F10C0300221946034804F0EAFED1
:1012400000BF2037BD4680BD4805002080B582B074
:1012500000AF0346FB710B46BB7113467B711D4A01
:10126000FB7913701B4ABB7953701A4A7B799370D0
:10127000184B00225A60174B0022DA70154B0022DF
:10128000DA60144B00221A61124B4FF000425A618F
:10129000104B00229A610F4B0022DA610D4B0122A4
:1012A00083F820200B4B4FF480725A6201220949C7
:1012B000094805F07BF80346002B01D000F0ECFB59
:1012C00000220449044805F071F800BF0837BD4604
:1012D00080BD00BFBC0300204805002090B585B04C
:1012E00000AF0446084611461A462346FB710346E2
:1012F000BB710B467B7113463B71FB793B73BB792A
:101300007B737B79BB733B79FB7307F10C03002282
:101310001946034804F076FF00BF1437BD4690BD60
:101320004805002080B588B002AF3B460022194630
:10133000204804F009FF07F11403002219461D4854
:1013400004F0E4FFFA781C4B1A703A781B4B1A70C1
:101350007A781B4B1A70BA781A4B1A701A4B002203
:101360001A701A4B00221A70FB781A4613465B005B
:101370001344174A1A443B7818467B78B978019190
:10138000009303461349104807F024FEFB7D03F544
:10139000FA627B7D1946BB7D00930B460E490B48D4
:1013A00007F018FE08490948FFF7A0FD00BF1837ED
:1013B000BD4680BD48050020B1040020B2040020D5
:1013C000B3040020B4040020EC030020FC03002040
:1013D00000000020E4A00008F8A0000880B582B05A
:1013E00002AF00F09DFA0346002B0DD09D4B1B78F9
:1013F0000133DAB29B4B1A709A4B1B78032B15D929
:10140000984B00221A7011E000F09CFA0346002B62
:101410000CD0944B1B78013BDAB2924B1A70914B73
:101420001B78042B02D98F4B03221A708D4B1B782B
:10143000032B00F2728101A252F823F04D14000830
:10144000DF1400088B15000835160008864B1B7842
:10145000002B0ED0854B1B781A46854B1B781946FE
:10146000844B1B7800930B468349844807F0B2FDF8
:1014700054E100F079FA0346002B06D0804B1B782C
:101480000133DAB27E4B1A700AE000F07FFA0346AD
:10149000002B05D07A4B1B78013BDAB2784B1A70DF
:1014A000774B1B7803F00103DAB2754B1A70744B5B
:1014B0001B781A4613465B001344724A1A446B4B5E
:1014C0001B7818466A4B1B7819466A4B1B780193A8
:1014D000009103466C49694807F07CFD1EE1624BB0
:1014E0001B78002B14D0664B1B7803F001021346C7
:1014F0005B001344634A1A445D4B1B7819465D4BED
:101500001B7800930B4661495C4807F063FD05E1D9
:1015100000F02AFA0346002B06D0544B1B78013307
:10152000DAB2524B1A700AE000F030FA0346002B90
:1015300005D04E4B1B78013BDAB24C4B1A704B4B2B
:101540001A78534BA3FB021319090B465B000B449B
:10155000DB00D31ADAB2454B1A70494B1B781A4696
:1015600013465B001344474A1A44404B1B78184605
:101570003F4B1B7819463F4B1B7801930091034664
:1015800041493E4807F026FDC8E0374B1B78002B49
:1015900013D03B4B1B781A4613465B001344394A61
:1015A0001A44324B1B781946324B1B7800930B467A
:1015B0003849324807F00EFDB0E000F0D5F9034697
:1015C000002B06D02A4B1B780133DAB2284B1A7055
:1015D0000AE000F0DBF90346002B05D0244B1B7812
:1015E000013BDAB2224B1A70214B1A782A4BA3FB2B
:1015F000021359090B461B015B1A9B00D31ADAB27E
:101600001B4B1A701E4B1B781A4613465B00134483
:101610001C4A1A44154B1B781846154B1B78194663
:10162000144B1B780193009103461749134807F0A8
:10163000D1FC73E00C4B1B78002B31D0104B1B7886
:101640001A4613465B0013440E4A1A44074B1B7894
:101650001946074B1B7800930B461049074807F0C3
:10166000B9FC5BE04405002045050020B2040020E1
:10167000B3040020B40400200CA100081C040020C6
:10168000B104002000000020E4A0000820A1000810
:10169000ABAAAAAA30A100088988888840A10008BE
:1016A00000F062F90346002B06D0274B1B7801336C
:1016B000DAB2254B1A700AE000F068F90346002BF5
:1016C00005D0214B1B78013BDAB21F4B1A701E4B21
:1016D0001A781E4BA3FB021359090B461B015B1A18
:1016E0009B00D31ADAB2184B1A70194B1B781A46A2
:1016F00013465B001344174A1A44174B1B781846CD
:10170000164B1B781946104B1B780193009103462A
:101710001349144807F05EFC00E000BF114912486D
:10172000FFF7E4FB114B1B78002B14BF01230023B0
:10173000DBB283F00103DBB203F00103DAB20B4B3F
:101740001A7000BFBD4680BDB40400208988888817
:10175000B104002000000020B2040020B3040020E7
:10176000E4A000081C04002050A10008450500204A
:1017700080B400AF054B00221A70054B00221A708E
:1017800000BFBD465DF8047B704700BFB004002079
:10179000B803002080B582B000AF786044F28101C8
:1017A000044802F024FE044807F0D8FB00BF0837C5
:1017B000BD4680BD0004024060A1000880B584B031
:1017C00000AF0346FB80FB88802B40F0818000F057
:1017D0007FFE0346404A13603F4B1A683F4B1B682D
:1017E000D31A3F4A13603C4B1B683C4A13603C4B86
:1017F0001B68642B6CD9782200213A4807F0E2FC80
:101800008021394802F0C2FD0346FB73FB7B012BAC
:1018100014D1364807F0A2FB314B1B68344A1360E1
:10182000344B1B780133DAB2324B1A70314B1B78D0
:1018300003F00103DAB22F4B1A7016E0FB7B002B8A
:1018400013D12D4807F08AFB294B00221A60244B44
:101850001B68B3F57A7F05D2284B1B680133274AF2
:10186000136002E0254B00221A60214B1B6840F6F2
:10187000B732934203D9224807F070FB09E01F4BAF
:101880001B68012B05D91F4807F068FB1B4B002282
:101890001A60184B1B78012B1AD11B4807F05EFB0E
:1018A0001A4B01221A701A4B1B78002B06D1184BC9
:1018B00001221A70174807F051FB09E0144B1B78FE
:1018C000012B05D1144807F049FB144B01221A7073
:1018D00000BF1037BD4680BDB8040020BC04002006
:1018E000C0040020CC040020000C024088A10008A5
:1018F000C8040020AF04002090A10008C404002008
:1019000094A10008B0A10008D0A10008AE040020F6
:10191000B8030020E0A10008F0A10008B0040020F6
:1019200080B400AF064B1B6840F6B73293428CBFC1
:1019300001230023DBB21846BD465DF8047B7047E7
:10194000E403002080B400AF064B1B68B3F57A7F38
:1019500094BF01230023DBB21846BD465DF8047B2B
:10196000704700BFE403002080B400AF064B5B6803
:1019700040F6B73293428CBF01230023DBB21846F6
:10198000BD465DF8047B7047E403002080B400AFDF
:10199000064B5B68B3F57A7F94BF01230023DBB26B
:1019A0001846BD465DF8047B704700BFE403002085
:1019B00080B582B000AF78607B681B682C4A934288
:1019C00041D12C4B1B780D2B04D02B4B93F880303E
:1019D000402B1CD9294807F0C1FA274807F058FACC
:1019E000274807F0BBFA244B93F880309AB24FF4A3
:1019F000FA732149234805F05CFE402200211E486D
:101A000007F0E0FB1C4B002283F8802015E01A4B06
:101A100093F880301A46174B1978174B9954154B89
:101A20001B781946184807F033FA134B93F88030A7
:101A30000133DAB2104B83F8802001220D4913489C
:101A400005F0C9FE0FE07B681B68114A93420AD17A
:101A5000642301220F490D4805F02BFE01220D4998
:101A6000084805F0B8FE00BF0837BD4680BD00BF7E
:101A700000480040B90300202C04002000A2000808
:101A800020A20008FC05002024A200084006002037
:101A9000004C0040BA03002080B400AF72B600BF13
:101AA000FEE7000080B590B000AF07F12C030022E4
:101AB0001A605A609A60DA601A610023BB623B4682
:101AC00028220021184607F07DFB3D4B3D4A1A6055
:101AD0003B4B40225A603A4B7F229A60384BFF22A0
:101AE000DA60374B00221A61354B00225A61344BC1
:101AF00000229A61324804F017FA0346002B01D005
:101B0000FFF7CAFF012387F82C30002387F82D3018
:101B1000002387F82E30002387F82F300023BB6383
:101B20000023FB6307F12C0301221946244804F02B
:101B300071FA0346002B01D0FFF7AEFF012387F8AF
:101B40002830012387F82930012387F82A30002321
:101B500087F82B3007F1280301221946184804F0B2
:101B600051FB0346002B01D0FFF796FF01233B708A
:101B700001237B700023BB7000237B600023FB707C
:101B80000023FB6000233B610F4B7B610023BB61A3
:101B90000023FB61012387F820304FF480737B62C0
:101BA0003B4601221946064804F000FC0346002B80
:101BB00001D0FFF771FF00BF4037BD4680BD00BFB9
:101BC00048050020002800400080808080B58EB04D
:101BD00000AF786007F1080330220021184607F0B3
:101BE000F1FA7B681B680C4A934211D12023BB6039
:101BF0004FF480733B6307F10803184603F0D4FFEA
:101C00000346002B01D0FFF747FF044B01221A6067
:101C100000BF3837BD4680BD002800403C0E47421B
:101C200080B483B000AF00237B60104B5B6C0F4A25
:101C300043F4804353640D4B5B6C03F480437B603F
:101C40007B6800233B60094B1B6C084A43F08053C0
:101C50001364064B1B6C03F080533B603B6800BF72
:101C60000C37BD465DF8047B704700BF003802406A
:101C700080B400AFFEE780B400AFFEE780B400AFF1
:101C8000FEE780B400AFFEE780B400AFFEE780B4AB
:101C900000AF00BFBD465DF8047B704780B400AF65
:101CA00000BFBD465DF8047B704780B400AF00BF45
:101CB000BD465DF8047B704780B500AF00F0F4FBD3
:101CC00000BF80BD80B500AF024800F074FC00BFCB
:101CD00080BD00BF8C00002080B500AF802002F0E6
:101CE000A1FB00BF80BD000080B500AF024804F03A
:101CF00054FE00BF80BD00BF6C05002080B500AF62
:101D0000024805F099FD00BF80BD00BF40060020DD
:101D100080B500AF4FF4005002F084FB00BF80BDDF
:101D200080B500AF024804F083FC00BF80BD00BF57
:101D30004805002080B500AF024805F07DFD00BFDA
:101D400080BD00BFFC05002080B500AF024801F057
:101D5000DFFB00BF80BD00BFD400002080B586B08F
:101D600000AFF860B9607A6000237B610AE0AFF3EE
:101D700000800146BB685A1CBA60CAB21A707B69FF
:101D800001337B617A697B689A42F0DB7B68184695
:101D90001837BD4680BD80B483B000AF78604FF087
:101DA000FF3318460C37BD465DF8047B704780B49E
:101DB00083B000AF786039603B684FF400525A60DE
:101DC000002318460C37BD465DF8047B704780B48D
:101DD00083B000AF7860012318460C37BD465DF82C
:101DE000047B704780B485B000AFF860B9607A605A
:101DF000002318461437BD465DF8047B7047000089
:101E000080B586B000AF7860144A154BD31A7B6159
:101E10007B693B61134B1B68002B02D1114B124AAB
:101E20001A60104B1A687B6813443A699A4207D2C9
:101E300007F016FA03460C221A604FF0FF3309E050
:101E4000084B1B68FB60074B1A687B681344054A04
:101E50001360FB6818461837BD4680BD000003209C
:101E60000004000068050020E00C002080B400AFF2
:101E7000064BD3F88830054A43F47003C2F8883023
:101E800000BFBD465DF8047B704700BF00ED00E079
:101E900080B586B000AF07F1080300221A605A60CF
:101EA0009A60DA603B4600221A605A601E4B4FF07F
:101EB00080421A601C4B42F2CF025A601A4B002239
:101EC0009A60194B4FF6FE72DA60174B00221A61C6
:101ED000154B00229A61144804F0B7FC0346002B0E
:101EE00001D0FFF7D9FD4FF48053BB6007F1080321
:101EF00019460D4804F01CFF0346002B01D0FFF7E4
:101F0000CBFD00233B6000237B603B46194606481F
:101F100005F0F2FA0346002B01D0FFF7BDFD00BF2C
:101F20001837BD4680BD00BF6C05002080B58EB05F
:101F300000AF07F1280300221A605A609A60DA6045
:101F400007F1200300221A605A603B1D00221A602C
:101F50005A609A60DA601A615A619A612C4B2D4A74
:101F60001A602B4B53225A60294B00229A60284B4F
:101F700040F2CF72DA60264B00221A61244B002215
:101F80009A61234804F061FC0346002B01D0FFF75F
:101F900083FD4FF48053BB6207F1280319461C48A8
:101FA00004F0C6FE0346002B01D0FFF775FD18486C
:101FB00004F09AFC0346002B01D0FFF76DFD0023CF
:101FC0003B6200237B6207F120031946104805F0AD
:101FD00093FA0346002B01D0FFF75EFD60237B6080
:101FE0000023BB600023FB6000237B613B1D0822B4
:101FF0001946074804F0DAFD0346002B01D0FFF72D
:102000004BFD034800F03EF800BF3837BD4680BDA9
:10201000B40500200004004080B485B000AF7860B3
:102020007B681B68B3F1804F0ED10023FB60134B1C
:102030001B6C124A43F001031364104B1B6C03F03A
:102040000103FB60FB6812E07B681B680C4A93424B
:102050000DD10023BB60094B1B6C084A43F00203FF
:102060001364064B1B6C03F00203BB60BB6800BF2C
:102070001437BD465DF8047B704700BF003802404E
:102080000004004080B588B000AF786007F10C0311
:1020900000221A605A609A60DA601A617B681B68D5
:1020A000124A93421ED10023BB60114B1B6B104A96
:1020B00043F0040313630E4B1B6B03F00403BB607C
:1020C000BB684FF48073FB6002233B6100237B619C
:1020D0000023BB610223FB6107F10C03194605488D
:1020E00001F0A8FF00BF2037BD4680BD00040040BE
:1020F000003802400008024080B500AF114B124A80
:102100001A60104B4FF416525A600E4B00229A6020
:102110000C4B0022DA600B4B00221A61094B0C2297
:102120005A61084B00229A61064B0022DA61054889
:1021300005F072FA0346002B01D0FFF7ADFC00BF9B
:1021400080BD00BFFC050020004C004080B500AF02
:10215000114B124A1A60104B4FF4E1325A600E4B89
:1021600000229A600C4B0022DA600B4B00221A61AD
:10217000094B0C225A61084B00229A61064B00223F
:10218000DA61054805F048FA0346002B01D0FFF755
:1021900083FC00BF80BD00BF400600200048004017
:1021A00080B58CB000AF786007F11C0300221A6084
:1021B0005A609A60DA601A617B681B68334A9342FE
:1021C0002DD10023BB61324B1B6C314A43F40023F9
:1021D00013642F4B1B6C03F40023BB61BB6900230A
:1021E0007B612B4B1B6B2A4A43F004031363284B80
:1021F0001B6B03F004037B617B694FF44063FB615D
:1022000002233B6200237B620323BB620823FB6241
:1022100007F11C0319461F4801F00CFF31E07B68F1
:102220001B681D4A93422CD100233B61184B1B6C49
:10223000174A43F480231364154B1B6C03F480236B
:102240003B613B690023FB60114B1B6B104A43F061
:10225000080313630E4B1B6B03F00803FB60FB6862
:102260004FF44073FB6102233B6200237B62032334
:10227000BB620723FB6207F11C031946074801F004
:10228000D9FE00BF3037BD4680BD00BF004C0040C6
:10229000003802400008024000480040000C0240A4
:1022A00080B500AF144B4FF0A0421A60124B0422CD
:1022B0005A60114B0222DA600F4B00221A610E4B5A
:1022C00002229A610C4B0122DA610B4B00221A6246
:1022D000094B00225A62084B0122DA62064B0022A7
:1022E0001A63054802F0AAFE0346002B01D0FFF74F
:1022F000D3FB00BF80BD00BF8406002080B58AB03C
:1023000000AF786007F1140300221A605A609A60E7
:10231000DA601A617B681B68B3F1A04F3FD10023DC
:102320003B61214B1B6B204A43F0010313631E4B9F
:102330001B6B03F001033B613B694FF4E8537B6186
:102340000223BB610023FB6103233B620A237B6200
:1023500007F114031946154801F06CFE4FF40073A1
:102360007B610023BB610023FB6107F11403194665
:102370000E4801F05FFE0C4B5B6B0B4A43F0800391
:1023800053630023FB60084B5B6C074A43F48043B4
:102390005364054B5B6C03F48043FB60FB6800BF38
:1023A0002837BD4680BD00BF003802400000024013
:1023B000DFF834D00D480E490E4A002302E0D4580D
:1023C000C4500433C4188C42F9D30B4A0B4C00237D
:1023D00001E013600432A242FBD3FFF747FD06F091
:1023E00045FFFEF7C9FD70470000032000000020F4
:1023F000700000209CA2000870000020E00C00206B
:10240000FEE7000080B500AF0E4B1B680D4A43F499
:10241000007313600B4B1B680A4A43F4806313601C
:10242000084B1B68074A43F480731360032000F0D5
:1024300095FE002000F008F8FFF7F2FB0023184695
:1024400080BD00BF003C024080B582B000AF786024
:10245000124B1A68124B1B7819464FF47A73B3FB70
:10246000F1F3B2FBF3F3184600F0ADFE0346002B88
:1024700001D001230EE07B680F2B0AD80022796877
:102480004FF0FF3000F075FE064A7B6813600023B2
:1024900000E0012318460837BD4680BD0800002033
:1024A000100000200C00002080B400AF064B1B7809
:1024B0001A46064B1B681344044A136000BFBD460E
:1024C0005DF8047B704700BF10000020900B0020D7
:1024D00080B400AF034B1B681846BD465DF8047B13
:1024E000704700BF900B002080B584B000AF7860CB
:1024F000FFF7EEFFB8607B68FB60FB68B3F1FF3F5E
:1025000005D00A4B1B781A46FB681344FB6000BFDA
:10251000FFF7DEFF0246BB68D31AFA689A42F7D883
:1025200000BF00BF1037BD4680BD00BF10000020B7
:1025300080B584B000AF78600023FB737B68002B0C
:1025400001D1012333E07B681B6C002B09D1786833
:10255000FEF784F87B6800225A647B68002283F8C7
:102560003C207B681B6C03F01003002B18D17B68A8
:102570001B6C23F4885323F0020343F002027B68B0
:102580001A64786800F092FB7B6800225A647B68CA
:102590001B6C23F0030343F001027B681A6401E023
:1025A0000123FB737B68002283F83C20FB7B1846E9
:1025B0001037BD4680BD80B586B000AF786000237F
:1025C0007B6100233B617B681B681B68FB607B6849
:1025D0001B685B68BB60FB6803F002037B61BB6840
:1025E00003F020033B617B69002B49D03B69002B42
:1025F00046D07B681B6C03F01003002B05D17B6871
:102600001B6C43F400727B681A647B681B689B68D0
:1026100003F04053002B2BD17B681B7E002B27D16E
:102620007B681B68DB6A03F47003002B06D07B68B1
:102630001B689B6803F48063002B19D17B681B68BF
:102640005A687B681B6822F020025A607B681B6C0A
:1026500023F480727B681A647B681B6C03F48053DC
:10266000002B05D17B681B6C43F001027B681A6468
:10267000786800F0C1F97B681B686FF012021A607D
:10268000FB6803F004037B61BB6803F080033B61DC
:102690007B69002B57D03B69002B54D07B681B6CA7
:1026A00003F01003002B05D17B681B6C43F4005230
:1026B0007B681A647B681B689B6803F44013002BDB
:1026C00039D17B681B689B6B03F44013002B06D049
:1026D0007B681B689B6803F48063002B2BD17B68AD
:1026E0001B685B6803F48063002B24D17B681B6844
:1026F0009B6803F04053002B1DD17B681B7E002B91
:1027000019D17B681B685A687B681B6822F08002BD
:102710005A607B681B6C23F480527B681A647B6868
:102720001B6C03F48073002B05D17B681B6C43F09A
:1027300001027B681A64786800F036FC7B681B68CD
:102740006FF00C021A60FB6803F001037B61BB6849
:1027500003F040033B617B69002B17D03B69002BE2
:1027600014D07B681B681B6803F00103012B0DD19B
:102770007B681B6C43F480327B681A64786800F0D5
:102780004FF97B681B686FF001021A60FB6803F069
:1027900020037B61BB6803F080633B617B69002B96
:1027A00015D03B69002B12D07B685B6C43F00202B2
:1027B0007B685A647B681B686FF020021A60786837
:1027C00000F038F97B681B686FF020021A6000BFC8
:1027D0001837BD4680BD000080B586B000AFF860F8
:1027E000B9607A6000233B61FB6893F83C30012BB1
:1027F00001D10223E9E0FB68012283F83C20FB6859
:102800001B689B6803F00103012B18D0FB681B6851
:102810009A68FB681B6842F001029A606D4B1B6866
:102820006D4AA2FB03239A0C13465B0013443B61E1
:1028300002E03B69013B3B613B69002BF9D1FB683E
:102840001B689B6803F48073B3F5807F07D1FB6836
:102850001B689A68FB681B6822F480729A60FB68A8
:102860001B689B6803F00103012B40F0A180FB680B
:102870001B6C23F4E06323F0010343F48072FB68D4
:102880001A64FB681B685B6803F48063002B07D045
:10289000FB681B6C23F4405343F48052FB681A64BA
:1028A000FB681B6C03F48053B3F5805F06D1FB68B3
:1028B0005B6C23F00602FB685A6402E0FB680022AE
:1028C0005A64FB68002283F83C20444B7B61FB6820
:1028D0009B6B434ADA63FB689B6B424A1A64FB6852
:1028E0009B6B414ADA64FB681B686FF022021A6036
:1028F000FB681B685A68FB681B6842F080625A607C
:10290000FB681B689A68FB681B6842F480729A60D7
:10291000FB68986BFB681B684C331946BA687B6888
:1029200000F00CFD7B695B6803F01F03002B2AD1CC
:10293000FB681B682D4A934215D0FB681B682C4A24
:10294000934205D1254B5B6803F01F03002B0AD08F
:10295000FB681B68274A934236D1204B5B6803F023
:102960001003002B30D1FB681B689B6803F04053B9
:10297000002B29D1FB681B689A68FB681B6842F032
:1029800080429A6020E0FB681B68184A93421BD182
:10299000FB681B689B6803F04053002B14D1FB6855
:1029A0001B689A68FB681B6842F080429A600BE0E3
:1029B000FB681B6C43F01002FB681A64FB685B6CDD
:1029C00043F00102FB685A64002318461837BD46DD
:1029D00080BD00BF0800002083DE1B4300230140B0
:1029E000A52E00085F2F00087B2F00080020014063
:1029F000002101400022014080B483B000AF786024
:102A000000BF0C37BD465DF8047B704780B483B0CF
:102A100000AF786000BF0C37BD465DF8047B70479F
:102A200080B483B000AF786000BF0C37BD465DF85E
:102A3000047B704780B483B000AF786000BF0C3770
:102A4000BD465DF8047B704780B485B000AF786008
:102A500039600023BB607B6893F83C30012B01D1C7
:102A6000022313E17B68012283F83C203B681B684A
:102A7000092B25D97B681B68D9683B681B689BB20A
:102A80001A4613465B0013441E3B072202FA03F367
:102A9000DA437B681B680A40DA607B681B68D96888
:102AA0003B689A683B681B689BB2184603465B000C
:102AB00003441E3B9A407B681B680A43DA6022E0AD
:102AC0007B681B6819693B681B689BB21A461346F2
:102AD0005B001344072202FA03F3DA437B681B68A6
:102AE0000A401A617B681B6819693B689A683B68F1
:102AF0001B689BB2184603465B0003449A407B6800
:102B00001B680A431A613B685B68062B24D87B6804
:102B10001B68596B3B685A6813469B001344053B7E
:102B20001F2202FA03F3DA437B681B680A405A63E8
:102B30007B681B68596B3B681B689BB218463B68F7
:102B40005A6813469B001344053B00FA03F27B6866
:102B50001B680A435A634CE03B685B680C2B24D823
:102B60007B681B68196B3B685A6813469B001344CB
:102B7000233B1F2202FA03F3DA437B681B680A40F7
:102B80001A637B681B68196B3B681B689BB218460D
:102B90003B685A6813469B001344233B00FA03F238
:102BA0007B681B680A431A6323E07B681B68D96A49
:102BB0003B685A6813469B001344413B1F2202FAAC
:102BC00003F3DA437B681B680A40DA627B681B68A0
:102BD000D96A3B681B689BB218463B685A68134623
:102BE0009B001344413B00FA03F27B681B680A43D5
:102BF000DA62294BFB607B681B68284A93420FD13D
:102C00003B681B68122B0BD1FB685B6823F4000246
:102C1000FB685A60FB685B6843F48002FB685A609B
:102C20007B681B681D4A93422BD13B681B681C4A7A
:102C3000934203D03B681B68112B22D1FB685B6871
:102C400023F48002FB685A60FB685B6843F400026F
:102C5000FB685A603B681B68114A934211D1114BC3
:102C60001B68114AA2FB03239A0C13469B001344D2
:102C70005B00BB6002E0BB68013BBB60BB68002B34
:102C8000F9D17B68002283F83C20002318461437D2
:102C9000BD465DF8047B70470023014000200140E1
:102CA000120000100800002083DE1B4380B485B0B2
:102CB00000AF7860794BFB60FB685B6823F44032BF
:102CC000FB685A60FB685A687B685B681A43FB685C
:102CD0005A607B681B685A687B681B6822F48072A4
:102CE0005A607B681B6859687B681B691A027B689D
:102CF0001B680A435A607B681B685A687B681B68BC
:102D000022F040725A607B681B6859687B689A6839
:102D10007B681B680A435A607B681B689A687B68FB
:102D20001B6822F400629A607B681B6899687B6864
:102D3000DA687B681B680A439A607B689B6A584A1A
:102D4000934222D07B681B689A687B681B6822F0DC
:102D500070629A607B681B6899687B689A6A7B6876
:102D60001B680A439A607B681B689A687B681B68CB
:102D700022F040529A607B681B6899687B68DA6A27
:102D80007B681B680A439A600FE07B681B689A683F
:102D90007B681B6822F070629A607B681B689A6887
:102DA0007B681B6822F040529A607B681B689A68B7
:102DB0007B681B6822F002029A607B681B68996836
:102DC0007B681B7E5A007B681B680A439A607B689D
:102DD00093F82030002B1BD07B681B685A687B68F7
:102DE0001B6842F400625A607B681B685A687B6803
:102DF0001B6822F460425A607B681B6859687B68D4
:102E00005B6A013B5A037B681B680A435A6007E010
:102E10007B681B685A687B681B6822F400625A60F2
:102E20007B681B68DA6A7B681B6822F47002DA62CE
:102E30007B681B68D96A7B68DB69013B1A057B6884
:102E40001B680A43DA627B681B689A687B681B68A8
:102E500022F400729A607B681B6899687B6893F81B
:102E600030305A027B681B680A439A607B681B6893
:102E70009A687B681B6822F480629A607B681B6892
:102E800099687B685B699A027B681B680A439A6051
:102E900000BF1437BD465DF8047B70470023014036
:102EA0000100000F80B584B000AF78607B689B6B39
:102EB000FB60FB681B6C03F05003002B3CD1FB68EC
:102EC0001B6C43F40072FB681A64FB681B689B6808
:102ED00003F04053002B2BD1FB681B7E002B27D126
:102EE000FB681B68DB6A03F47003002B06D0FB68E9
:102EF0001B689B6803F48063002B19D1FB681B6877
:102F00005A68FB681B6822F020025A60FB681B6C41
:102F100023F48072FB681A64FB681B6C03F4805313
:102F2000002B05D1FB681B6C43F00102FB681A649F
:102F3000F868FFF761FD0EE0FB681B6C03F01003FF
:102F4000002B03D0F868FFF775FD04E0FB689B6B6E
:102F5000DB6C7868984700BF1037BD4680BD80B5F0
:102F600084B000AF78607B689B6BFB60F868FFF70C
:102F70004DFD00BF1037BD4680BD80B584B000AFA9
:102F800078607B689B6BFB60FB6840221A64FB687F
:102F90005B6C43F00402FB685A64F868FFF74AFD73
:102FA00000BF1037BD4680BD80B483B000AF7860ED
:102FB00000BF0C37BD465DF8047B704780B485B018
:102FC00000AF78607B6803F00703FB600C4BDB68A5
:102FD000BB60BA684FF6FF031340BB60FB681A0280
:102FE000BB68134343F0BF6343F40033BB60044A40
:102FF000BB68D36000BF1437BD465DF8047B7047E3
:1030000000ED00E080B400AF044BDB681B0A03F066
:1030100007031846BD465DF8047B704700ED00E0ED
:1030200080B483B000AF0346FB7197F90730002BE3
:103030000BDBFB7903F01F02074997F907305B09A7
:10304000012000FA02F241F8232000BF0C37BD46F0
:103050005DF8047B704700BF00E100E080B483B0FE
:1030600000AF03463960FB7197F90730002B0ADB8C
:103070003B68DAB20C4997F907301201D2B20B441F
:1030800083F800230AE03B68DAB20849FB7903F0D1
:103090000F03043B1201D2B20B441A7600BF0C3767
:1030A000BD465DF8047B704700E100E000ED00E004
:1030B00080B489B000AFF860B9607A60FB6803F053
:1030C0000703FB61FB69C3F10703042B28BF04233B
:1030D000BB61FB690433062B02D9FB69033B00E0AB
:1030E00000237B614FF0FF32BB6902FA03F3DA433E
:1030F000BB681A407B699A404FF0FF317B6901FA47
:1031000003F3D9437B680B40134318462437BD466D
:103110005DF8047B7047000080B582B000AF786036
:103120007B68013BB3F1807F01D301230FE00A4AA2
:103130007B68013B53600F214FF0FF30FFF78EFF9C
:10314000054B00229A60044B07221A6000231846A0
:103150000837BD4680BD00BF10E000E080B582B0FA
:1031600000AF78607868FFF729FF00BF0837BD46D9
:1031700080BD80B586B000AF0346B9607A60FB734E
:1031800000237B61FFF73EFF78617A68B968786950
:10319000FFF78EFF024697F90F3011461846FFF7EA
:1031A0005DFF00BF1837BD4680BD80B582B000AF5F
:1031B0000346FB7197F907301846FFF731FF00BF50
:1031C0000837BD4680BD80B582B000AF78607868B2
:1031D000FFF7A2FF034618460837BD4680BD000032
:1031E00080B586B000AF786000237B61FFF770F98F
:1031F00038617B68002B01D1012399E07B680222B2
:1032000083F835207B68002283F834207B681B68B4
:103210001A687B681B6822F001021A600FE0FFF752
:1032200057F902463B69D31A052B08D97B6820223F
:103230005A657B68032283F83520032378E07B6896
:103240001B681B6803F00103002BE8D17B681B6837
:103250001B687B617A69384B13407B617B685A68D5
:103260007B689B681A437B68DB681A437B681B6931
:103270001A437B685B691A437B689B691A437B68C6
:10328000DB691A437B681B6A13437A6913437B61CA
:103290007B685B6A042B07D17B68DA6A7B681B6BEF
:1032A00013437A6913437B617B681B687A691A60F0
:1032B0007B681B685B697B617B6923F007037B612B
:1032C0007B685B6A7A6913437B617B685B6A042B6A
:1032D00017D17B689B6A7A6913437B617B68DB6AE1
:1032E000002B0ED0786800F001FB0346002B08D0BD
:1032F0007B6840225A657B68012283F835200123D0
:1033000016E07B681B687A695A61786800F0B8FA41
:103310000346FB607B68DB6D3F229A40FB689A6046
:103320007B6800225A657B68012283F835200023E0
:1033300018461837BD4680BD3F8010F080B586B076
:1033400000AFF860B9607A603B600023FB75FB68F2
:103350009B6D3B61FB6893F83430012B01D1022354
:1033600040E0FB68012283F83420FB6893F8353095
:10337000DBB2012B2FD1FB68022283F83520FB68DA
:1033800000225A653B687A68B968F86800F04AFA22
:10339000FB68DB6D3F229A403B699A60FB681B68C3
:1033A0001A68FB681B6842F016021A60FB681B6C07
:1033B000002B07D0FB681B681A68FB681B6842F08B
:1033C00008021A60FB681B681A68FB681B6842F0F9
:1033D00001021A6005E0FB68002283F83420022312
:1033E000FB75FB7D18461837BD4680BD80B584B09F
:1033F00000AF78607B689B6DFB60FFF769F8B86091
:103400007B6893F83530DBB2022B08D07B688022D2
:103410005A657B68002283F83420012352E07B68E0
:103420001B681A687B681B6822F016021A607B68AA
:103430001B685A697B681B6822F080025A617B68AE
:103440001B6C002B03D17B689B6C002B07D07B6827
:103450001B681A687B681B6822F008021A607B6888
:103460001B681A687B681B6822F001021A6013E06F
:10347000FFF72EF80246BB68D31A052B0CD97B68E0
:1034800020225A657B68032283F835207B6800225E
:1034900083F83420032315E07B681B681B6803F066
:1034A0000103002BE4D17B68DB6D3F229A40FB686F
:1034B0009A607B68012283F835207B68002283F8BC
:1034C0003420002318461037BD4680BD80B483B039
:1034D00000AF78607B6893F83530DBB2022B04D004
:1034E0007B6880225A6501230CE07B68052283F803
:1034F00035207B681B681A687B681B6822F0010214
:103500001A60002318460C37BD465DF8047B7047EF
:1035100080B586B000AF78600023BB608E4B1B681F
:103520008E4AA2FB03239B0A7B617B689B6D3B61F8
:103530003B691B68FB607B68DB6D08229A40FB6877
:103540001340002B1AD07B681B681B6803F0040330
:10355000002B13D07B681B681A687B681B6822F0FD
:1035600004021A607B68DB6D08229A403B699A600E
:103570007B685B6D43F001027B685A657B68DB6D9D
:1035800001229A40FB681340002B12D07B681B6815
:103590005B6903F08003002B0BD07B68DB6D01229D
:1035A0009A403B699A607B685B6D43F002027B68DE
:1035B0005A657B68DB6D04229A40FB681340002B40
:1035C00012D07B681B681B6803F00203002B0BD032
:1035D0007B68DB6D04229A403B699A607B685B6D77
:1035E00043F004027B685A657B68DB6D10229A40C9
:1035F000FB681340002B43D07B681B681B6803F0FB
:103600000803002B3CD07B68DB6D10229A403B699D
:103610009A607B681B681B6803F48023002B18D01A
:103620007B681B681B6803F40023002B08D17B68B0
:103630001B6C002B24D07B681B6C786898471FE0BC
:103640007B689B6C002B1BD07B689B6C78689847D1
:1036500016E07B681B681B6803F48073002B07D19E
:103660007B681B681A687B681B6822F008021A6076
:103670007B681B6C002B03D07B681B6C78689847B9
:103680007B68DB6D20229A40FB681340002B00F022
:103690008F807B681B681B6803F01003002B00F011
:1036A00087807B68DB6D20229A403B699A607B684B
:1036B00093F83530DBB2052B36D17B681B681A686E
:1036C0007B681B6822F016021A607B681B685A69C7
:1036D0007B681B6822F080025A617B681B6C002BA0
:1036E00003D17B689B6C002B07D07B681B681A6832
:1036F0007B681B6822F008021A607B68DB6D3F2242
:103700009A403B699A607B68012283F835207B6888
:10371000002283F834207B681B6D002B7ED07B68F1
:103720001B6D7868984779E07B681B681B6803F419
:103730008023002B1DD07B681B681B6803F40023CB
:10374000002B0DD17B685B6C002B31D07B685B6CF0
:10375000786898472CE000BF08000020B5814E1B18
:103760007B68DB6B002B23D07B68DB6B786898472A
:103770001EE07B681B681B6803F48073002B0FD16D
:103780007B681B681A687B681B6822F010021A604D
:103790007B68012283F835207B68002283F834207F
:1037A0007B68DB6B002B03D07B68DB6B786898470A
:1037B0007B685B6D002B32D07B685B6D03F001038F
:1037C000002B22D07B68052283F835207B681B689C
:1037D0001A687B681B6822F001021A60BB6801331B
:1037E000BB607A699A4207D37B681B681B6803F049
:1037F0000103002BF2D100E000BF7B68012283F8B7
:1038000035207B68002283F834207B68DB6C002B3A
:1038100005D07B68DB6C7868984700E000BF1837FC
:10382000BD4680BD80B485B000AFF860B9607A60F5
:103830003B60FB681B681A68FB681B6822F48022E7
:103840001A60FB681B683A685A60FB689B68402BEB
:1038500008D1FB681B687A689A60FB681B68BA68C5
:10386000DA6007E0FB681B68BA689A60FB681B684F
:103870007A68DA6000BF1437BD465DF8047B704794
:1038800080B485B000AF78607B681B68DBB2103B0A
:10389000144AA2FB03231B09FB60134AFB68134471
:1038A0001B781A467B68DA65FB68032B09D97B68AD
:1038B0001B6823F47F7323F003031A1D7B689A654A
:1038C00007E07B681B6823F47F7323F003037A68A7
:1038D00093657B689B6D18461437BD465DF8047B85
:1038E000704700BFABAAAAAA50A2000880B485B056
:1038F00000AF78600023FB737B689B6ABB607B68CA
:103900009B69002B1FD1BB68032B56D801A252F82C
:1039100023F000BF25390008373900082539000891
:10392000BB3900087B68DB6A03F08073002B46D04C
:103930000123FB7343E07B68DB6AB3F1C07F40D1B6
:103940000123FB733DE07B689B69B3F5005F21D1E8
:10395000BB68032B37D801A252F823F06D39000859
:10396000733900086D390008853900080123FB739D
:1039700030E07B68DB6A03F08073002B25D00123E5
:10398000FB7322E07B68DB6AB3F1C07F1FD10123A8
:10399000FB731CE0BB68022B03D9BB68032B03D06D
:1039A00018E00123FB7315E07B68DB6A03F080738A
:1039B000002B0ED00123FB730BE000BF0AE000BF19
:1039C00008E000BF06E000BF04E000BF02E000BF67
:1039D00000E000BFFB7B18461437BD465DF8047B52
:1039E000704700BF80B584B000AF78607B68002B63
:1039F00001D101236CE07B68D3F88430002B06D121
:103A00007B682322C3F884207868FCF729FF002311
:103A1000BB60314B5B6C304A43F4804353642E4BA4
:103A20005B6C03F48043BB60BB682C4B5B682B4A28
:103A300023F400035360294B5A687B689B6827492D
:103A400013434B60254B5B687B681B6803F5805311
:103A50001B687A68126843F0010302F58052136014
:103A6000FEF736FDF86011E0FEF732FD0246FB6816
:103A7000D31AB3F5FA7F09D97B680422C3F88820EA
:103A80007B68E022C3F88420012321E07B681B6867
:103A900003F580531B6803F00103002BE4D1786821
:103AA00000F058F9786800F0FFF9786800F055FAEE
:103AB0007B685B681A460021786800F0BDF97B6876
:103AC0000022C3F888207B681022C3F884200023DA
:103AD00018461037BD4680BD00380240003801400E
:103AE00080B584B000AF786039607B681B681B6864
:103AF000FB60FA68514B1340FB603B681B7C002B5A
:103B000002D14FF4000200E000223B685B7C002BF6
:103B100002D14FF4800300E000231A433B689B6806
:103B20001A433B68DB7F1B041A433B685B69134302
:103B30003A68927F002A02D14FF4005200E000223E
:103B40001A433B681B7F1B031A433B689B691A435C
:103B50003B681B799B0213433A6892F82020002AA5
:103B600002D14FF4007200E000221A433B68DB7B75
:103B7000DB011A433B685B6A1A433B6893F82830C1
:103B80001B011343FA681343FB607B681B68FA68E8
:103B90001A607B681B681B68FB600120FEF7A4FCB1
:103BA0007B681B68FA681A607B681B689B69FB600E
:103BB000FA684FF641731340FB603B689B6C1B0433
:103BC0003A6892F84C20002A01D1802200E00022BD
:103BD0001A433B681B6D13433A6892F85520012A3B
:103BE00001D1082200E0002213433A6892F85620DF
:103BF000012A01D1042200E0002213433A6892F81E
:103C00005420012A01D1022200E000221343FA6865
:103C10001343FB607B681B68FA689A617B681B68CA
:103C20009B69FB600120FEF75FFC7B681B68FA68FC
:103C30009A6100BF1037BD4680BD00BF0F8120FFD5
:103C400080B584B000AF786039607B681B6803F58D
:103C500080539B69FB60FA683D4B1340FB603B68F7
:103C60001B7B002B02D14FF0806200E000223B68FA
:103C70005B7B5B0613433A68527F002A02D14FF404
:103C8000801200E000221A433B689B7B5B051A43CD
:103C90003B685B691A433B681B7FDB011A433B6847
:103CA0009B7F9B011A433B681B6A1A433B6893F84E
:103CB00024309B001343FA681343FB607B681B6846
:103CC00003F580531A46FB6893617B681B6803F514
:103CD00080539B69FB600120FEF706FC7B681B6834
:103CE00003F580531A46FB6893613B681B795A06BB
:103CF0003B689B681A433B689B691A433B681B6996
:103D00001A433B6893F82530DB011A433B689B6AF2
:103D10009B001A433B681B6813437A68126843F49C
:103D2000000302F5805213607B681B6803F5805323
:103D30001B68FB600120FEF7D7FB7B681B6803F55F
:103D400080531A46FB68136000BF1037BD4680BD24
:103D5000233FDEF880B5A6B000AF7860012387F876
:103D60004430012387F845300023FB63002387F8A4
:103D70005330012387F85230002387F85030012355
:103D800087F83830002387F85430002387F8433011
:103D90000023BB65002387F85C300023FB6700230A
:103DA00087F880300023C7F88430002387F88A30F2
:103DB000002387F888304FF48043BB644FF40063DE
:103DC000FB64002387F8893007F1340319467868CB
:103DD000FFF786FE01233B7501237B75012387F8DE
:103DE00025300123BB750023FB61002387F82430B5
:103DF000002387F826300023BB62012387F82C308C
:103E000001233B734FF480333B614FF480033B62EB
:103E10004FF40053BB61012387F82D3000233B632F
:103E20000023BB6007F1080319467868FFF708FF15
:103E300000BF9837BD4680BD80B487B000AFF86042
:103E4000B9607A607B6805331B781B027A6804329C
:103E5000127813437B61BA68114B13441A467B698D
:103E600013607B6803331B781A067B6802331B7868
:103E70001B041A437B6801331B781B0213437A68C7
:103E8000127813437B61BA68064B13441A467B6968
:103E9000136000BF1C37BD465DF8047B704700BF50
:103EA000408002404480024080B485B000AF78601A
:103EB0000023FB603EE07B68D968FA6813469B00EC
:103EC0001344DB000B44BB60BB6800221A60BB6874
:103ED00000225A60BB6800229A60BB680022DA6048
:103EE000B9687B68FA68063243F82210BB681B6821
:103EF00043F48012BB681A60FB68022B0CD87B6805
:103F0000D968FB685A1C13469B001344DB000B4422
:103F10001A46BB68DA6004E07B68DB681A46BB6857
:103F2000DA60BB681B6843F44002BB681A60FB6838
:103F30000133FB60FB68032BBDD97B6800229A62CA
:103F40007B68DA687B681B6803F580531A6100BFE1
:103F50001437BD465DF8047B704780B485B000AF70
:103F600078600023FB6046E07B681969FA681346B5
:103F70009B001344DB000B44BB60BB6800221A604B
:103F8000BB6800225A60BB6800229A60BB680022AE
:103F9000DA60BB6800221A62BB6800225A62BB6802
:103FA0004FF000421A60BB6844F2F4525A60BB689A
:103FB0005B6823F00042BB685A60B9687B68FA68A6
:103FC000123243F82210FB68022B0CD87B68196967
:103FD000FB685A1C13469B001344DB000B441A4633
:103FE000BB68DA6004E07B681B691A46BB68DA606C
:103FF000FB680133FB60FB68032BB5D97B680022AB
:10400000DA657B6800221A667B6800229A667B6804
:104010000022DA667B6800229A657B681A697B68F1
:104020001B6803F58053DA6000BF1437BD465DF8A6
:10403000047B704780B489B000AF7860396000239A
:104040007B6100233B610023BB610023FB6177E1BF
:104050000122FB6902FA03F37B613B681B687A6902
:1040600013403B613A697B699A4240F066813B6844
:104070005B6803F00303012B05D03B685B6803F02A
:104080000303022B30D17B689B68BB61FB695B003B
:10409000032202FA03F3DB43BA691340BB613B68B6
:1040A000DA68FB695B0002FA03F3BA691343BB6188
:1040B0007B68BA699A607B685B68BB610122FB69B7
:1040C00002FA03F3DB43BA691340BB613B685B68E8
:1040D0001B0903F00102FB6902FA03F3BA691343F7
:1040E000BB617B68BA695A603B685B6803F0030395
:1040F000032B17D07B68DB68BB61FB695B00032285
:1041000002FA03F3DB43BA691340BB613B689A6868
:10411000FB695B0002FA03F3BA691343BB617B6876
:10412000BA69DA603B685B6803F00303022B23D1B2
:10413000FB69DA087B68083253F82230BB61FB69FF
:1041400003F007039B000F2202FA03F3DB43BA6973
:104150001340BB613B681A69FB6903F007039B00CE
:1041600002FA03F3BA691343BB61FB69DA087B689F
:104170000832B96943F822107B681B68BB61FB6990
:104180005B00032202FA03F3DB43BA691340BB610D
:104190003B685B6803F00302FB695B0002FA03F310
:1041A000BA691343BB617B68BA691A603B685B6894
:1041B00003F44033002B00F0C0800023FB60664B0B
:1041C0005B6C654A43F480435364634B5B6C03F45C
:1041D0008043FB60FB68614AFB699B08023352F82D
:1041E0002330BB61FB6903F003039B000F2202FA3B
:1041F00003F3DB43BA691340BB617B68584A9342BF
:1042000037D07B68574A934231D07B68564A9342F5
:104210002BD07B68554A934225D07B68544A934201
:104220001FD07B68534A934219D07B68524A93420D
:1042300013D07B68514A93420DD07B68504A934219
:1042400007D07B684F4A934201D1092312E00A2329
:1042500010E008230EE007230CE006230AE0052304
:1042600008E0042306E0032304E0022302E0012324
:1042700000E00023FA6902F0030292009340BA6959
:104280001343BB613549FB699B080233BA6941F8A6
:1042900023203D4B9B68BB613B69DB43BA691340FC
:1042A000BB613B685B6803F48013002B03D0BA69E1
:1042B0003B691343BB61344ABB699360324BDB6893
:1042C000BB613B69DB43BA691340BB613B685B6818
:1042D00003F40013002B03D0BA693B691343BB619D
:1042E000294ABB69D360284B5B68BB613B69DB43F0
:1042F000BA691340BB613B685B6803F40033002B71
:1043000003D0BA693B691343BB611F4ABB69536061
:104310001D4B1B68BB613B69DB43BA691340BB6142
:104320003B685B6803F48033002B03D0BA693B69B8
:104330001343BB61144ABB691360FB690133FB6122
:10434000FB690F2B7FF684AE00BF00BF2437BD464C
:104350005DF8047B704700BF003802400038014020
:10436000000002400004024000080240000C02402D
:10437000001002400014024000180240001C0240DD
:104380000020024000240240003C014080B485B07F
:1043900000AF78600B467B807B681A697B8813408E
:1043A000002B02D00123FB7301E00023FB73FB7B96
:1043B00018461437BD465DF8047B704780B483B05F
:1043C00000AF78600B467B8013467B707B78002BB8
:1043D00003D07A887B689A6103E07B881A047B6843
:1043E0009A6100BF0C37BD465DF8047B704780B40E
:1043F00085B000AF78600B467B807B685B69FB60B3
:104400007A88FB6813401A04FB68D9437B880B4009
:104410001A437B689A6100BF1437BD465DF8047B80
:104420007047000080B582B000AF0346FB80084BA8
:104430005A69FB881340002B06D0054AFB8853615C
:10444000FB881846FDF7BAF900BF0837BD4680BDA6
:10445000003C014080B584B000AF78607B68002BE1
:1044600001D101232BE17B6893F83D30DBB2002BB7
:1044700006D17B68002283F83C207868FCF7B2FB09
:104480007B68242283F83D207B681B681A687B6860
:104490001B6822F001021A607B681B681A687B683F
:1044A0001B6842F400421A607B681B681A687B68CC
:1044B0001B6822F400421A6001F04EFBF8607B6832
:1044C0005B68814A934207D8FB68804A934294BF55
:1044D00001230023DBB206E0FB687D4A934294BFD0
:1044E00001230023DBB2002B01D00123E7E0FB68AE
:1044F000784AA2FB03239B0CBB607B681B685B684C
:1045000023F03F017B681B68BA680A435A607B68E6
:104510001B681B6A23F03F017B685B686A4A934211
:1045200002D8BB68013309E0BB684FF4967202FB06
:1045300003F3694AA2FB03239B0901337A681268DB
:104540000B4313627B681B68DB6923F44F4222F044
:10455000FF027B685B685C498B4219D8FB68591E77
:104560007B685B685B00B1FBF3F3591C40F6FC739E
:104570000B40002B0AD0FB68591E7B685B685B0010
:10458000B1FBF3F30133C3F30B0351E004234FE01A
:104590007B689B68002B11D1FB68581E7B685968AB
:1045A0000B465B000B44B0FBF3F30133C3F30B0387
:1045B000002B0CBF01230023DBB212E0FB68581E66
:1045C0007B6859680B469B000B4499000B44B0FB79
:1045D000F3F30133C3F30B03002B0CBF01230023C0
:1045E000DBB2002B01D0012322E07B689B68002B0B
:1045F0000ED1FB68581E7B6859680B465B000B4464
:10460000B0FBF3F30133C3F30B0343F400430FE0B8
:10461000FB68581E7B6859680B469B000B44990049
:104620000B44B0FBF3F30133C3F30B0343F44043F8
:10463000796809681343CB617B681B681B6823F0AA
:10464000C0017B68DA697B681B6A1A437B681B6858
:104650000A431A607B681B689B6823F4034323F0BA
:10466000FF037A6811697A68D26811437A68126820
:104670000B4393607B681B68DB6823F0FF017B685A
:104680005A697B689B691A437B681B680A43DA6036
:104690007B681B681A687B681B6842F001021A601D
:1046A0007B6800221A647B68202283F83D207B68A7
:1046B00000221A637B68002283F83E2000231846FC
:1046C0001037BD4680BD00BFA08601007F841E005C
:1046D000FF083D0083DE1B43D34D621080B588B0D8
:1046E00002AFF8607A601A460B467B8113463B8125
:1046F000FDF7EEFE7861FB6893F83D30DBB2202BCE
:1047000040F0E0807B690093192301227049F8682A
:1047100000F092FA0346002B01D00223D3E0FB689D
:1047200093F83C30012B01D10223CCE0FB6801223D
:1047300083F83C20FB681B681B6803F00103012B16
:1047400007D0FB681B681A68FB681B6842F001020F
:104750001A60FB681B681A68FB681B6822F4006219
:104760001A60FB68212283F83D20FB68102283F841
:104770003E20FB6800221A64FB687A685A62FB6874
:104780003A895A85FB685B8D9AB2FB681A85FB688B
:10479000504ADA6279897B693A6AF86800F0CAF9A6
:1047A0000346002B01D001238DE000233B61FB6811
:1047B0001B685B693B61FB681B689B693B613B69EC
:1047C00066E07A69396AF86800F00CFB0346002B52
:1047D0000DD0FB681B6C042B07D1FB681B681A68A3
:1047E000FB681B6842F400721A6001236BE0FB68EF
:1047F0005B6A1A78FB681B681A61FB685B6A5A1C63
:10480000FB685A62FB685B8D9BB2013B9AB2FB6806
:104810005A85FB681B8D013B9AB2FB681A85FB68C1
:104820001B685B6903F00403042B1BD1FB681B8D21
:10483000002B17D0FB685B6A1A78FB681B681A614B
:10484000FB685B6A5A1CFB685A62FB685B8D9BB213
:10485000013B9AB2FB685A85FB681B8D013B9AB2FB
:10486000FB681A857A69396AF86800F0FCFA034631
:10487000002B0DD0FB681B6C042B07D1FB681B6859
:104880001A68FB681B6842F400721A6001231AE080
:10489000FB681B8D002B94D1FB681B681A68FB68B2
:1048A0001B6842F400721A60FB68202283F83D20E6
:1048B000FB68002283F83E20FB68002283F83C203E
:1048C000002300E0022318461837BD4680BD00BF14
:1048D000020010000000FFFF80B58AB002AFF86050
:1048E0007A603B600B467B81FDF7F2FDF8610023A7
:1048F000BB61FB6893F83D30DBB2202B40F01181A7
:10490000FB690093192301228849F86800F094F9A3
:104910000346002B01D0022304E1FB6893F83C30EE
:10492000012B01D10223FDE0FB68012283F83C202A
:10493000FB681B681B6803F00103012B07D0FB68B1
:104940001B681A68FB681B6842F001021A60FB686A
:104950001B681A68FB681B6822F400621A60FB6817
:10496000242283F83D20FB6800221A64FB68704A09
:10497000DA62FB681B681A68FB681B6842F4807285
:104980001A60FB6900933B6800224FF00111F86840
:1049900000F052F90346002B0DD0FB681B681B6822
:1049A00003F48073B3F5807F03D1FB684FF400728A
:1049B0001A640323B6E07B89DBB21A46FB681B68E6
:1049C00002F0FE021A61FDF783FDF861FB681B68C7
:1049D0005B6903F00203022B0CBF01230023DBB24F
:1049E000FB75FB681B685B6903F48063B3F5806F3C
:1049F0000CBF01230023DBB2BB7525E0FDF768FD8A
:104A00000246FB69D31A3A689A4202D33B68002BEC
:104A100003D1FB68A02283F83D20FB681B685B691B
:104A200003F00203022B0CBF01230023DBB2FB7552
:104A3000FB681B685B6903F48063B3F5806F0CBF90
:104A400001230023DBB2BB75FB6893F83D30DBB27A
:104A5000A02B05D0FB7D002B02D1BB7D002BCDD040
:104A6000FB68202283F83D20FB681B685B6903F02C
:104A70000203022B29D1FB681B681A68FB681B68BC
:104A800042F400721A6000233B61FB681B685B699B
:104A90003B61FB681B689B693B613B69FB69009359
:104AA000192301222149F86800F0C6F80346002BBB
:104AB00001D0012336E0FB68202283F83D20FB680B
:104AC000002283F83C2000232CE0FB681B681A6856
:104AD000FB681B6842F400721A60FB681B686FF485
:104AE00080625A61FB690093192301220F49F8681B
:104AF00000F0A2F80346002B01D0012312E0BB69AD
:104B00000133BB61BA697B689A42FFF432AFFB683C
:104B1000202283F83D20FB68002283F83C200123FB
:104B200000E0022318462037BD4680BD0200100079
:104B30000000FFFF80B588B002AFF8607A603B608C
:104B40000B467B81FB68DB6A7B617B69082B06D0A7
:104B50007B69012B03D07B6913F5803F08D1FB688B
:104B60001B681A68FB681B6842F480721A600BE0CD
:104B7000FB681B6B122B07D1FB681B681A68FB686C
:104B80001B6842F480721A603B6800937B680022C5
:104B90004FF00111F86800F04FF80346002B0DD0DC
:104BA000FB681B681B6803F48073B3F5807F03D137
:104BB000FB684FF400721A64032335E0FB681B693D
:104BC000B3F5804F08D17B89DBB21A46FB681B68BE
:104BD00002F0FE021A611BE07B89DB11DBB203F0FD
:104BE0000603DBB263F00F03DAB2FB681B681A61DD
:104BF0003B687A680E49F86800F075F80346002BA8
:104C000001D0012310E07B89DAB2FB681B681A61CE
:104C10003B687A680749F86800F065F80346002B9E
:104C200001D0012300E0002318461837BD4680BD9F
:104C3000080001000200010080B584B000AFF860F8
:104C4000B9603B601346FB7125E03B68B3F1FF3F61
:104C500021D0FDF73DFC0246BB69D31A3A689A425F
:104C600002D33B68002B16D1FB6800221A63FB6855
:104C7000202283F83D20FB68002283F83E20FB6859
:104C80001B6C43F02002FB681A64FB68002283F867
:104C90003C20012323E0BB681B0CDBB2012B0DD1B0
:104CA000FB681B685B69DA43BB6813409BB2002B4F
:104CB0000CBF01230023DBB21A460CE0FB681B6823
:104CC0009B69DA43BB6813409BB2002B0CBF0123E6
:104CD0000023DBB21A46FB799A42B6D0002318466D
:104CE0001037BD4680BD80B584B000AFF860B960B4
:104CF0007A603B6051E0FB681B685B6903F480638A
:104D0000B3F5806F23D1FB681B681A68FB681B68CA
:104D100042F400721A60FB681B686FF480625A618B
:104D2000FB6800221A63FB68202283F83D20FB68A1
:104D3000002283F83E20FB681B6C43F00402FB68F2
:104D40001A64FB68002283F83C20012346E07B685C
:104D5000B3F1FF3F21D0FDF7BBFB02463B68D31AFE
:104D60007A689A4202D37B68002B16D1FB68002236
:104D70001A63FB68202283F83D20FB68002283F839
:104D80003E20FB681B6C43F02002FB681A64FB6842
:104D9000002283F83C20012320E0BB681B0CDBB21F
:104DA000012B0CD1FB681B685B69DA43BB681340BD
:104DB0009BB2002B14BF01230023DBB20BE0FB6886
:104DC0001B689B69DA43BB6813409BB2002B14BF7E
:104DD00001230023DBB2002B8DD1002318461037AE
:104DE000BD4680BD80B584B000AFF860B9607A6020
:104DF0002DE0F86800F078F80346002B01D001237D
:104E00002DE0BB68B3F1FF3F21D0FDF761FB024607
:104E10007B68D31ABA689A4202D3BB68002B16D1BA
:104E2000FB6800221A63FB68202283F83D20FB68A0
:104E3000002283F83E20FB681B6C43F02002FB68D5
:104E40001A64FB68002283F83C20012307E0FB681A
:104E50001B685B6903F08003802BCAD100231846CE
:104E60001037BD4680BD80B584B000AFF860B96032
:104E70007A602DE0F86800F037F80346002B01D087
:104E800001232DE0BB68B3F1FF3F21D0FDF720FBEC
:104E900002467B68D31ABA689A4202D3BB68002BD9
:104EA00016D1FB6800221A63FB68202283F83D209C
:104EB000FB68002283F83E20FB681B6C43F0200255
:104EC000FB681A64FB68002283F83C20012307E09A
:104ED000FB681B685B6903F00403042BCAD1002341
:104EE00018461037BD4680BD80B483B000AF7860EF
:104EF0007B681B685B6903F48063B3F5806F1BD12B
:104F00007B681B686FF480625A617B6800221A63B9
:104F10007B68202283F83D207B68002283F83E20B6
:104F20007B681B6C43F004027B681A647B68002278
:104F300083F83C20012300E0002318460C37BD46CF
:104F40005DF8047B704780B483B000AF786039604F
:104F50007B6893F83D30DBB2202B29D17B6824227B
:104F600083F83D207B681B681A687B681B6822F009
:104F700001021A607B681B685A6A7B681B6822F012
:104F800010025A627B681B68596A7B681B683A6822
:104F90000A435A627B681B681A687B681B6842F088
:104FA00001021A607B68202283F83D20002300E084
:104FB000022318460C37BD465DF8047B704780B469
:104FC00085B000AF786039600023FB817B6893F87F
:104FD0003D30DBB2202B2AD17B68242283F83D2090
:104FE0007B681B681A687B681B6822F001021A60E4
:104FF0007B681B685B6AFB81FB8923F00F03FB81E5
:105000003B689AB2FB891343FB817B681B68FA8972
:105010005A627B681B681A687B681B6842F0010251
:105020001A607B68202283F83D20002300E00223E1
:1050300018461437BD465DF8047B7047F0B58FB055
:105040000AAF78607B68002B01D101230FE17B68F8
:105050001B68BB607B6893F8BD34DBB2002B06D1C4
:105060007B68002283F8BC247868FDF747F97B68E9
:10507000032283F8BD24BB68DB6B03F48073002B31
:1050800002D17B6800221A617B681B68184603F016
:105090009CFB7B681B683B607E686D4606F11004D4
:1050A0000FCC0FC50FCC0FC594E8030085E80300B3
:1050B000331D0ECB386803F027FB0346002B05D0C9
:1050C0007B68022283F8BD240123D0E07B681B6843
:1050D0000021184603F08AFB0023FB734AE0FA7BA9
:1050E00079681346DB0013449B000B443D330122D7
:1050F0001A70FA7B79681346DB0013449B000B445B
:105100003C33FA7B1A70FA7BFB7B98B279681346C2
:10511000DB0013449B000B44443302461A80FA7BA5
:1051200079681346DB0013449B000B444033002294
:105130001A70FA7B79681346DB0013449B000B441A
:10514000483300221A60FA7B79681346DB00134467
:105150009B000B444C3300221A60FA7B796813469B
:10516000DB0013449B000B44543300221A60FB7B8A
:105170000133FB73FA7B7B685B689A42AFD30023F1
:10518000FB7344E0FA7B79681346DB0013449B0011
:105190000B4403F27D2300221A70FA7B79681346D0
:1051A000DB0013449B000B4403F51F73FA7B1A705A
:1051B000FA7B79681346DB0013449B000B4403F52C
:1051C000207300221A70FA7B79681346DB001344BF
:1051D0009B000B4403F5227300221A60FA7B796866
:1051E0001346DB0013449B000B4403F5237300229A
:1051F0001A60FA7B79681346DB0013449B000B446A
:1052000003F5257300221A60FB7B0133FB73FA7BE5
:105210007B685B689A42B5D37B681B683B607E689D
:105220006D4606F110040FCC0FC50FCC0FC594E8E6
:10523000030085E80300331D0ECB386803F022FB22
:105240000346002B05D07B68022283F8BD2401238E
:105250000DE07B68002283F838207B68012283F808
:10526000BD247B681B68184603F0EDFC002318463C
:105270001437BD46F0BD000080B586B000AF786041
:105280007B68002B01D1012367E27B681B6803F078
:105290000103002B75D0884B9B6803F00C03042B93
:1052A0000CD0854B9B6803F00C03082B12D1824B6A
:1052B0005B6803F48003B3F5800F0BD17E4B1B6852
:1052C00003F40033002B5BD07B685B68002B57D165
:1052D000012342E27B685B68B3F5803F06D1764BE1
:1052E0001B68754A43F4803313601DE07B685B687C
:1052F000B3F5A02F0CD1704B1B686F4A43F4802389
:1053000013606D4B1B686C4A43F4803313600BE0F1
:10531000694B1B68684A23F480331360664B1B6833
:10532000654A23F4802313607B685B68002B13D0ED
:10533000FDF7CEF8386108E0FDF7CAF802463B6990
:10534000D31A642B01D9032307E25B4B1B6803F4D8
:105350000033002BF0D014E0FDF7BAF8386108E014
:10536000FDF7B6F802463B69D31A642B01D9032333
:10537000F3E1514B1B6803F40033002BF0D100E044
:1053800000BF7B681B6803F00203002B63D04A4B0D
:105390009B6803F00C03002B0BD0474B9B6803F07A
:1053A0000C03082B1CD1444B5B6803F48003002BD7
:1053B00016D1414B1B6803F00203002B05D07B681C
:1053C000DB68012B01D00123C7E13B4B1B6823F0B5
:1053D000F8027B681B69DB00374913430B603AE036
:1053E0007B68DB68002B20D0344B01221A60FDF76C
:1053F0006FF8386108E0FDF76BF802463B69D31A95
:10540000022B01D90323A8E12B4B1B6803F00203F5
:10541000002BF0D0284B1B6823F0F8027B681B6937
:10542000DB00254913430B6015E0244B00221A6072
:10543000FDF74EF8386108E0FDF74AF802463B698F
:10544000D31A022B01D9032387E11B4B1B6803F0FE
:105450000203002BF0D17B681B6803F00803002BCC
:1054600036D07B685B69002B16D0154B01221A6081
:10547000FDF72EF8386108E0FDF72AF802463B698F
:10548000D31A022B01D9032367E10B4B5B6F03F0A7
:105490000203002BF0D01BE0094B00221A60FDF73D
:1054A00017F838610EE0FDF713F802463B69D31A8E
:1054B000022B07D9032350E1003802400000474285
:1054C000800E4742884B5B6F03F00203002BEAD14A
:1054D0007B681B6803F00403002B00F09780002317
:1054E000FB75814B1B6C03F08053002B0FD1002305
:1054F000BB607D4B1B6C7C4A43F0805313647A4B3A
:105500001B6C03F08053BB60BB680123FB75774BBA
:105510001B6803F48073002B18D1744B1B68734A0B
:1055200043F480731360FCF7D3FF386108E0FCF7A5
:10553000CFFF02463B69D31A022B01D903230CE1AA
:105540006A4B1B6803F48073002BF0D07B689B6868
:10555000012B06D1644B1B6F634A43F001031367B1
:105560001CE07B689B68052B0CD15F4B1B6F5E4A70
:1055700043F0040313675C4B1B6F5B4A43F001036A
:1055800013670BE0584B1B6F574A23F00103136757
:10559000554B1B6F544A23F0040313677B689B68C9
:1055A000002B15D0FCF794FF38610AE0FCF790FF60
:1055B00002463B69D31A41F28832934201D9032350
:1055C000CBE0494B1B6F03F00203002BEED014E03D
:1055D000FCF77EFF38610AE0FCF77AFF02463B6980
:1055E000D31A41F28832934201D90323B5E03E4BEE
:1055F0001B6F03F00203002BEED1FB7D012B05D1C5
:10560000394B1B6C384A23F0805313647B689B69C9
:10561000002B00F0A180344B9B6803F00C03082B97
:105620005CD07B689B69022B41D1314B00221A6010
:10563000FCF74EFF386108E0FCF74AFF02463B6981
:10564000D31A022B01D9032387E0274B1B6803F0F1
:105650000073002BF0D17B68DA697B681B6A1A4300
:105660007B685B6A9B011A437B689B6A5B08013B12
:105670001B041A437B68DB6A1B061B4913434B6000
:105680001B4B01221A60FCF723FF386108E0FCF78E
:105690001FFF02463B69D31A022B01D903235CE0AA
:1056A000114B1B6803F00073002BF0D054E0104B3B
:1056B00000221A60FCF70CFF386108E0FCF708FFD5
:1056C00002463B69D31A022B01D9032345E0064B5E
:1056D0001B6803F00073002BF0D13DE07B689B69F1
:1056E000012B07D1012338E0003802400070004050
:1056F000600047421B4B5B68FB607B689B69012B2A
:1057000028D0FB6803F480027B68DB699A4221D1D0
:10571000FB6803F03F027B681B6A9A421AD1FA6861
:1057200047F6C07313407A68526A9201934211D1CE
:10573000FB6803F440327B689B6A5B08013B1B04F7
:105740009A4207D1FB6803F070627B68DB6A1B0634
:105750009A4201D0012300E0002318461837BD46C5
:1057600080BD00BF0038024080B584B000AF7860D3
:1057700039607B68002B01D10123CCE0684B1B68AA
:1057800003F00F033A689A420CD9654B3A68D2B2DB
:105790001A70634B1B6803F00F033A689A4201D0FA
:1057A0000123B8E07B681B6803F00203002B20D0C4
:1057B0007B681B6803F00403002B05D0594B9B68E2
:1057C000584A43F4E05393607B681B6803F0080376
:1057D000002B05D0534B9B68524A43F460439360BF
:1057E000504B9B6823F0F0027B689B684D49134344
:1057F0008B607B681B6803F00103002B44D07B683F
:105800005B68012B07D1474B1B6803F40033002B67
:1058100019D101237FE07B685B68022B03D07B6892
:105820005B68032B07D13F4B1B6803F00073002B11
:1058300009D101236FE03B4B1B6803F00203002BEF
:1058400001D1012367E0374B9B6823F003027B689B
:105850005B68344913438B60FCF73AFEF8600AE05A
:10586000FCF736FE0246FB68D31A41F288329342B7
:1058700001D903234FE02B4B9B6803F00C027B689C
:105880005B689B009A42EBD1254B1B6803F00F032A
:105890003A689A420CD2224B3A68D2B21A70204B24
:1058A0001B6803F00F033A689A4201D0012332E0EB
:1058B0007B681B6803F00403002B08D0194B9B681E
:1058C00023F4E0527B68DB68164913438B607B68E6
:1058D0001B6803F00803002B09D0124B9B6823F4CC
:1058E00060427B681B69DB000E4913438B6000F04C
:1058F00021F802460B4B9B681B0903F00F030A4972
:10590000CB5C22FA03F3094A1360094B1B68184663
:10591000FCF79AFD002318461037BD4680BD00BF36
:10592000003C02400038024038A200080800002075
:105930000C0000202DE9B04F94B000AF00237B6431
:105940000023FB6400233B640023BB64794B9B680A
:1059500003F00C03082B0DD0082B00F2E180002B84
:1059600002D0042B03D0DBE0734BBB64DBE0734B52
:10597000BB64D8E06F4B5B6803F03F037B646D4B07
:105980005B6803F48003002B63D06A4B5B689B0960
:105990000022BB63FA63BB6BC3F308033B630023C2
:1059A0007B63D7E90C4522462B464FF000004FF0B1
:1059B0000001590141EAD261500102460B462146DD
:1059C000511A3961294663EB01037B614FF00002F4
:1059D0004FF00003D7E904AB59468B01514643EA27
:1059E000916351468A015146B2EB0108594663EB77
:1059F00001094FF000024FF000034FEAC90343EAE8
:105A000058734FEAC80290469946234618EB0303A1
:105A1000BB602B4649EB0303FB604FF000024FF0E5
:105A20000003D7E9024529464B02214643EAD153F8
:105A300021464A02104619467B6C0022BB62FA627C
:105A4000D7E90A23FAF72CFC02460B461346FB64FF
:105A500058E0384B5B689B09002218461146C0F39A
:105A600008033B6200237B62D7E9088942464B4624
:105A70004FF000004FF00001590141EAD26150019E
:105A800002460B464146B2EB010A494663EB010B65
:105A90004FF000024FF000034FEA8B1343EA9A6382
:105AA0004FEA8A12B2EB0A0463EB0B054FF00002D7
:105AB0004FF00003EB0043EA5473E20014461D4626
:105AC0004346E3183B604B4645EB03037B604FF0D6
:105AD00000024FF00003D7E9004529468B0221461A
