:020000040800F2
:1000000000000320DD2D00089D260008A32600081F
:10001000A9260008AF260008B52600080000000049
:10002000000000000000000000000000BB260008E7
:10003000C926000800000000D7260008E5260008B1
:100040002D2E00082D2E00082D2E00082D2E000824
:100050002D2E00082D2E00082D2E00082D2E000814
:100060002D2E00082D2E00082D2E00082D2E000804
:100070002D2E00082D2E00082D2E00082D2E0008F4
:100080002D2E00082D2E0008F12600082D2E000828
:100090002D2E00082D2E00082D2E00080527000803
:1000A0002D2E00082D2E00082D2E00082D2E0008C4
:1000B000152700082D2E00082D2E00082D2E0008D3
:1000C0002D2E00082D2E00082D2E00082D2E0008A4
:1000D0002D2E00082D2E00082D2E0008292700089F
:1000E0003D2700084D2700082D2E00082D2E000862
:1000F0002D2E00082D2E00082D2E00082D2E000874
:100100002D2E00082D2E00082D2E00082D2E000863
:10011000612700082D2E00082D2E00082D2E000826
:10012000752700082D2E00082D2E00082D2E000802
:100130002D2E00082D2E00082D2E00082D2E000833
:100140002D2E00082D2E00082D2E00082D2E000823
:100150002D2E00082D2E00082D2E00082D2E000813
:100160002D2E00082D2E00082D2E00082D2E000803
:100170002D2E00082D2E00082D2E00080000000056
:100180002D2E00082D2E00082D2E00082D2E0008E3
:100190002D2E00082D2E00082D2E00082D2E0008D3
:0C01A0002D2E00082D2E00082D2E00082A
:1001B00010B5054C237833B9044B13B10448AFF3A1
:1001C00000800123237010BD840000200000000087
:1001D0005CB2000808B5034B1BB103490348AFF3F9
:1001E000008008BD00000000880000205CB200080C
:1001F000034613F8012B002AFBD1181A0138704767
:1002000001F0FF01102A2BDB10F0070F08D010F8C7
:10021000013B013A8B422DD010F0070F42B3F6D1CB
:10022000F0B441EA012141EA014122F007047FF0E4
:1002300000070023F0E80256083C85EA010586EA3B
:10024000010685FA47F5A3FA87F586FA47F6A5FA77
:1002500087F68EB9EED1F0BC01F0FF0102F0070283
:1002600032B110F8013B013A83EA010313B1F8D12E
:100270000020704701387047002D06BF354603380F
:10028000073815F0010F07D1013015F4807F02BF48
:10029000013015F4C03F0130F0BC0138704700BF99
:1002A00053B94AB9002908BF00281CBF4FF0FF31DD
:1002B0004FF0FF3000F070B9ADF1080C6DE904CEDD
:1002C00000F006F8DDF804E0DDE9022304B0704731
:1002D0002DE9F047089E0D4604460F46002B4AD1F3
:1002E0008A42944665D9B2FA82F343B102FA03FC1A
:1002F000C3F120029F4020FA02F217439C404FEACC
:100300001C4E1FFA8CF5B7FBFEF1220C0EFB117789
:1003100042EA074201FB05F090420AD91CEB0202B7
:1003200001F1FF3780F01C81904240F219810239BF
:100330006244121AA4B2B2FBFEF00EFB102244EA91
:10034000024400FB05F5A5420AD91CEB040400F1A8
:10035000FF3280F00781A54240F2048164440238F4
:1003600040EA0140641B00211EB1DC400023C6E9C5
:100370000043BDE8F0878B4208D9002E00F0ED80E5
:100380000021C6E900050846BDE8F087B3FA83F10D
:10039000002949D1AB4202D3824200F2F880841A8C
:1003A00065EB030201201746002EE2D0C6E90047A4
:1003B000DFE702B9FFDEB2FA82F3002B40F0908053
:1003C0008A1A4FEA1C471FFA8CFE0121B2FBF7F58F
:1003D00007FB1520220C42EA00420EFB05F090427A
:1003E00008D91CEB020205F1FF3802D2904200F25C
:1003F000CB804546121AA4B2B2FBF7F007FB1022DD
:1004000044EA02440EFB00FEA64508D91CEB040496
:1004100000F1FF3202D2A64500F2BB801046A4EBE9
:100420000E0440EA05409FE7C1F120078B4022FA05
:1004300007FC4CEA030C05FA01F420FA07F3FD402F
:100440004FEA1C492343B5FBF9F81FFA8CFE09FB60
:1004500018551C0C44EA054408FB0EF5A54202FAA7
:1004600001F200FA01F00BD91CEB040408F1FF3A89
:1004700080F08880A54240F28580A8F1020864449B
:10048000641B9DB2B4FBF9F309FB134445EA044431
:1004900003FB0EFEA64508D91CEB040403F1FF354F
:1004A0006CD2A6456AD9023B644443EA0843A3FBE5
:1004B0000295A4EB0E04AC42C846AE4656D353D0C8
:1004C00056B1B0EB080264EB0E0404FA07F7CA4019
:1004D000CC401743C6E9007418460021BDE8F087F8
:1004E000C3F1200102FA03FC20FA01F225FA01F11E
:1004F0009D402A434FEA1C471FFA8CFEB1FBF7F0E0
:1005000007FB1015110C41EA054100FB0EF58D4269
:1005100004FA03F408D91CEB010100F1FF382FD2D3
:100520008D422DD902386144491B92B2B1FBF7F5D7
:1005300007FB151142EA014205FB0EF1914208D971
:100540001CEB020205F1FF3816D2914214D9023D8C
:100550006244521A45EA004138E73146304608E71E
:100560003946E6E61046FBE64845A9D2B9EB020853
:1005700065EB0C0E013BA3E74546EAE72B4694E703
:100580004046D1E7D0467BE7023D624432E7084669
:100590000AE76444023842E7704700BF80B584B080
:1005A00000AF3B4600221A605A609A60DA60284B1E
:1005B000284A1A60264B4FF480325A60244B00229E
:1005C0009A60234B01221A61214B01221A76204B9B
:1005D000002283F820201E4B0022DA621C4B1E4AA8
:1005E0009A621B4B0022DA60194B0222DA61184B27
:1005F000012283F83020164B01225A61144802F080
:10060000ADFC0346002B01D001F0CCFE0A233B6079
:1006100001237B600323BB603B4619460C4802F074
:1006200029FF0346002B01D001F0BCFE03233B60F1
:1006300002237B603B461946054802F01BFF034638
:10064000002B01D001F0AEFE00BF1037BD4680BDCB
:10065000A0000020002001400100000F80B58AB0FA
:1006600000AF786007F1140300221A605A609A60A4
:10067000DA601A617B681B683C4A934271D100239F
:100680003B613B4B5B6C3A4A43F480735364384B99
:100690005B6C03F480733B613B690023FB60344B6C
:1006A0001B6B334A43F004031363314B1B6B03F0A2
:1006B0000403FB60FB680023BB602D4B1B6B2C4AC3
:1006C00043F0010313632A4B1B6B03F00103BB6070
:1006D000BB6801237B610323BB610023FB6107F13E
:1006E00014031946234804F0C1FC08237B6103234B
:1006F000BB610023FB6107F1140319461E4804F097
:10070000B5FC1E4B1E4A1A601C4B00225A601B4B44
:1007100000229A60194B0022DA60184B4FF4806275
:100720001A61164B4FF480525A61144B4FF48042B9
:100730009A61124B4FF48072DA61104B00221A62F8
:100740000E4B00225A620D4803F060FA0346002B5C
:1007500001D001F027FE7B68084A9A63074A7B684C
:10076000936300BF2837BD4680BD00BF0020014015
:10077000003802400008024000000240E80000206B
:100780001064024080B582B000AF00237B600C4B48
:100790001B6B0B4A43F480031363094B1B6B03F47D
:1007A00080037B607B6800220021382003F0F7F98A
:1007B000382003F010FA00BF0837BD4680BD00BFE7
:1007C0000038024080B500AF1F4B204A1A60204B12
:1007D00000221A701E4B80225A701D4BE1229A7023
:1007E0001B4B0022DA701A4B00221A71184B0022A0
:1007F0005A71154B164A5A60134B4FF400029A6017
:10080000114B144ADA60104B134A1A610E4B40F236
:10081000F4525A610C4803F0FBFD0346002B01D053
:1008200001F0C0FD382200210C4809F0D5FD0B4B2A
:1008300021221A60094B4FF440025A61074B0022F3
:100840001A6100BF80BD00BFC002002000800240CE
:1008500070030020E80100204801002088020020E9
:1008600080B58EB000AF786007F1240300221A60D3
:100870005A609A60DA601A617B681B68554A934235
:1008800040F0A48000233B62534B1B6B524A43F061
:1008900000731363504B1B6B03F000733B623B6AA6
:1008A0000023FB614C4B1B6B4B4A43F0806313638B
:1008B000494B1B6B03F08063FB61FB690023BB6149
:1008C000454B1B6B444A43F000631363424B1B6B65
:1008D00003F00063BB61BB6900237B613E4B1B6B74
:1008E0003D4A43F0040313633B4B1B6B03F00403CB
:1008F0007B617B6900233B61374B1B6B364A43F0BE
:1009000001031363344B1B6B03F001033B613B6931
:100910000023FB60304B1B6B2F4A43F00203136331
:100920002D4B1B6B03F00203FB60FB680023BB60D5
:10093000294B1B6B284A43F040031363264B1B6B68
:1009400003F04003BB60BB6832237B620223BB62BF
:100950000023FB6203233B630B237B6307F1240328
:1009600019461E4804F082FB86237B620223BB6289
:100970000023FB6203233B630B237B6307F1240308
:100980001946174804F072FB4FF400537B620223B0
:10099000BB620023FB6203233B630B237B6307F1F2
:1009A000240319460F4804F061FB4FF420537B6287
:1009B0000223BB620023FB6203233B630B237B63A5
:1009C00007F124031946084804F050FB00BF3837EC
:1009D000BD4680BD00800240003802400008024051
:1009E00000000240000402400018024080B485B0BC
:1009F00000AFF860B9607A60FB68BA681A60FB689B
:100A00007A685A60FB681A68FB689A6000BF1437FE
:100A1000BD465DF8047B704780B485B000AF786058
:100A20000023FB607B68824A934206D27B68B3F165
:100A3000006F02D30023FB60F3E07B687D4A9342A2
:100A400006D27B687A4A934202D30123FB60E8E036
:100A50007B68794A934206D27B68764A934202D3F6
:100A60000223FB60DDE07B68744A934206D87B6812
:100A7000714A934202D30323FB60D2E07B68704A41
:100A8000934206D87B686D4A934202D90423FB60E7
:100A9000C7E07B686B4A934206D87B68684A9342FA
:100AA00002D90523FB60BCE07B68674A934206D805
:100AB0007B68644A934202D90623FB60B1E07B68FD
:100AC000624A934206D87B685F4A934202D9072361
:100AD000FB60A6E07B685E4A934206D87B685B4A6F
:100AE000934202D90823FB609BE07B68594A9342FA
:100AF00006D87B68564A934202D90923FB6090E0EE
:100B00007B68554A934206D87B68524A934202D981
:100B10000A23FB6085E07B68B3F1016F06D27B6836
:100B20004D4A934202D90B23FB607AE07B684B4A23
:100B3000934206D27B68B3F1016F02D30C23FB60B2
:100B40006FE07B68464A934206D27B68434A9342F1
:100B500002D30D23FB6064E07B68424A934206D2D5
:100B60007B683F4A934202D30E23FB6059E07B68C7
:100B70003D4A934206D87B683A4A934202D30F23F8
:100B8000FB604EE07B68394A934206D87B68364A60
:100B9000934202D91023FB6043E07B68344A9342BE
:100BA00006D87B68314A934202D91123FB6038E0B2
:100BB0007B68304A934206D87B682D4A934202D91B
:100BC0001223FB602DE07B682B4A934206D87B689A
:100BD000284A934202D91323FB6022E07B68274A0C
:100BE000934206D87B68244A934202D91423FB60BF
:100BF00017E07B68224A934206D87B681F4A9342DB
:100C000002D91523FB600CE07B681E4A934206D88C
:100C10007B681B4A934202D91623FB6001E017232D
:100C2000FB60FB6818461437BD465DF8047B7047CF
:100C3000004000080080000800C00008FFFF000816
:100C4000FFFF0108FFFF0308FFFF0508FFFF07087C
:100C5000FFFF0908FFFF0B08FFFF0D080040100809
:100C60000080100800C01008FFFF1008FFFF1108E7
:100C7000FFFF1308FFFF1508FFFF1708FFFF190804
:100C8000FFFF1B08FFFF1D0880B485B000AF786030
:100C90000023FB607B68002B14D07B68012B11D0F4
:100CA0007B68022B0ED07B68032B0BD07B680C2B50
:100CB00008D07B680D2B05D07B680E2B02D07B689B
:100CC0000F2B03D14FF48043FB600CE07B68042BB7
:100CD00002D07B68102B03D14FF48033FB6002E01D
:100CE0004FF40033FB60FB6818461437BD465DF8CF
:100CF000047B704780B584B000AF78607B681B6868
:100D0000FB60FA687968044809F0CCF9FB6818467A
:100D10001037BD4680BD00BF74B20008B0B584B0C6
:100D200000AF7860396003F0EFFE7B689B68FB6082
:100D30003B6800221C46154622462B46F9680220D5
:100D400003F08EFE0346002B09D1074809F0AAF9EB
:100D5000F868FFF7CFFF03F0F9FE002300E001235E
:100D600018461037BD46B0BD8CB2000880B588B0BB
:100D700000AF786003F0C8FE7B681B681846FFF779
:100D80004BFE0346134A13607B685B681846FFF707
:100D900043FE02460F4B1B68D31A01330E4A136001
:100DA0000023FB600223FB610A4B1B687B610A4B3B
:100DB0001B68BB6107F1080207F10C0311461846D6
:100DC00004F014F803F0C2FE002318462037BD4695
:100DD00080BD00BF780300207C03002080B58CB06C
:100DE00000AF07F11C0300221A605A609A60DA60B3
:100DF0001A610023BB61524B1B6B514A43F0040341
:100E000013634F4B1B6B03F00403BB61BB690023EF
:100E10007B614B4B1B6B4A4A43F080031363484B87
:100E20001B6B03F080037B617B6900233B61444BB8
:100E30001B6B434A43F001031363414B1B6B03F0ED
:100E400001033B613B690023FB603D4B1B6B3C4A4C
:100E500043F0020313633A4B1B6B03F00203FB6086
:100E6000FB680023BB60364B1B6B354A43F008031D
:100E70001363334B1B6B03F00803BB60BB68002399
:100E80007B602F4B1B6B2E4A43F0400313632C4BAC
:100E90001B6B03F040037B607B68002244F28101FE
:100EA000284804F0A7FA00224021274804F0A2FABB
:100EB0004FF40053FB614FF444133B6200237B6209
:100EC00007F11C031946214804F0D0F844F28103CD
:100ED000FB6101233B6200237B620023BB6207F1BD
:100EE0001C031946174804F0C1F84023FB61012395
:100EF0003B6200237B620023BB6207F11C0319469F
:100F0000114804F0B3F88023FB6100233B62002307
:100F10007B6207F11C0319460B4804F0A7F88023F5
:100F2000FB614FF444133B6201237B6207F11C0316
:100F30001946074804F09AF800BF3037BD4680BD17
:100F4000003802400004024000180240000802403D
:100F5000000C024080B500AF1B4B1C4A1A601A4BB4
:100F60001B4A5A60184B00229A60174B0022DA6025
:100F7000154B4FF480421A61134B00225A61124BF9
:100F800000229A61104B0022DA610F4B00221A6294
:100F90000D4804F07BFA0346002B01D001F002FA61
:100FA0000021094804F0EBFF0346002B01D001F0BB
:100FB000F9F90021044805F01EF80346002B01D082
:100FC00001F0F0F900BF80BD800300200054004014
:100FD000A086010080B58AB000AF786007F11403E5
:100FE00000221A605A609A60DA601A617B681B6896
:100FF000194A93422CD100233B61184B1B6B174AB3
:1010000043F002031363154B1B6B03F002033B61B8
:101010003B694FF440737B611223BB610023FB618A
:1010200003233B6204237B6207F1140319460C4837
:1010300004F01CF80023FB60084B1B6C074A43F4C8
:1010400000131364054B1B6C03F40013FB60FB6877
:1010500000BF2837BD4680BD005400400038024024
:1010600000040240B0B598B000AF2E4B07F1440425
:101070001D460FCD0FC495E8030020600434218085
:1010800007F144031846FFF7B3F803469AB207F195
:1010900044014FF0FF33244807F015FC0023A7F864
:1010A0005E302FE0B7F85E305B0099B20A23012270
:1010B0001E4804F02DFC034687F85D3097F85D303C
:1010C000002B13D1B7F85E30381D194A402109F0C2
:1010D00057F83B1D1846FFF78BF803469AB2391DA7
:1010E0004FF0FF33104807F0EEFB06E04FF0FF3300
:1010F000012210490C4807F0E6FBB7F85E300133D7
:10110000A7F85E30B7F85E307F2BCBD94FF0FF33B6
:1011100002220949044807F0D6FB00BF6037BD46EC
:10112000B0BD00BFA8B20008E00600208003002088
:1011300098B20008A0B20008A4B2000880B586B03A
:1011400002AF0346FB710B46BB7113467B71FB7903
:1011500099B24FF0FF330122224804F0D9FB034635
:10116000FB73FB7B002B00D0F1E700BFBB7923F0C2
:101170000F03BB73BB791B017B73BA7B7B79134372
:10118000DBB243F00C03DBB23B72BA7B7B791343D7
:10119000DBB243F00803DBB27B727A7B7B791343CB
:1011A000DBB243F00C03DBB2BB727A7B7B79134377
:1011B000DBB243F00803DBB2FB72FB7999B207F1B3
:1011C00008024FF0FF3300930423064804F0A2FA0C
:1011D0000346FB73052001F09DFEFB7B184610378C
:1011E000BD4680BD8003002080B582B000AF0346BD
:1011F0000A46FB711346BB71B979FB790022184688
:10120000FFF79CFF00BF0837BD4680BD80B582B0A8
:1012100000AF03460A46FB711346BB71B979FB79EF
:1012200001221846FFF78AFF00BF0837BD4680BD80
:1012300080B582B000AF0346FB71FB7930211846C0
:10124000FFF7D2FFFB7902211846FFF7CDFFFB79AC
:101250000C211846FFF7C8FFFB7901211846FFF75C
:10126000C3FF00BF0837BD4680BD80B582B000AF68
:1012700003463960FB7109E03B681A78FB79114637
:101280001846FFF7C3FF3B6801333B603B681B78A0
:10129000002BF1D100BF00BF0837BD4680BD000064
:1012A00080B500AFFFF7DEFE4E20FFF7C1FF8021C3
:1012B0004E20FFF799FF07494E20FFF7D6FFC021C8
:1012C0004E20FFF791FF04494E20FFF7CEFF00BFED
:1012D00080BD00BFC0B20008D0B2000880B582B0A7
:1012E00000AF7860396080214E20FFF77DFF79687C
:1012F0004E20FFF7BAFFC0214E20FFF775FF396877
:101300004E20FFF7B2FF00BF0837BD4680BD00008A
:1013100080B500AF80214E20FFF766FF06494E20C2
:10132000FFF7A3FFC0214E20FFF75EFF02494E20CA
:10133000FFF79BFF00BF80BDE0B2000880B584B01E
:1013400000AFF860B9607A607B689AB24FF4FA73C4
:10135000B968044807F0B7FA7B6818461037BD46ED
:1013600080BD00BFE006002080B500AF01F060FD49
:1013700000F00EF9FFF732FDFFF704FAFFF722FA4B
:1013800001F0FAFB01F0A2FCFFF7E4FD01F010F818
:1013900001F094FA01F0C6FBFFF700F901F0DCFA66
:1013A00000F062F908215F4806F014FB02225E4952
:1013B0005E4801F027FF01225D495E4807F015FBFA
:1013C00001225D495D4807F010FB00225C495D4841
:1013D00006F008F8FFF764FFFFF79AFF5A48FFF797
:1013E00053FC0246594B13441A4657495848FFF7D5
:1013F000FDFA00F075F9574B1B78032B00F28D8036
:1014000001A252F823F000BF191400083314000899
:101410008B140008E314000800F024FA4FF49670CF
:1014200001F078FD4C4B002283F8C22000F090FEC2
:1014300077E0002000F07EFA48494948FFF74EFF68
:10144000484B1B78002B04D1434B93F8C230002B40
:1014500013D0002000F0B0FC434B1B78434A1178B6
:10146000434A1278184600F095F93B4B002283F866
:10147000C22000F06DFEFFF74BFF3E4808F078FEFB
:101480004FF4FA7001F046FD4BE0012000F052FAF3
:1014900032493948FFF722FF324B1B78002B04D129
:1014A0002D4B93F8C230002B13D0012000F084FCA8
:1014B000324B1B78324A1178324A1278184600F0C3
:1014C00089F9254B002283F8C22000F041FEFFF786
:1014D0001FFF2D4808F04CFE4FF4FA7001F01AFD82
:1014E0001FE000F0F5FC1F4B1B78002B04D11A4BBA
:1014F00093F8C230002B0CD001F09CF8022000F0D1
:101500005BFC154B002283F8C22000F021FEFFF7A0
:10151000FFFE1E4808F02CFE03E00E4B00221A705E
:1015200000BF68E75406002018040020A000002037
:10153000D5030020E0060020D60300209C060020F2
:10154000D8030020E805002000001C08FFFF1B084E
:101550002C050020D403002050040020400400206B
:10156000F4B20008150500200B0000200C0000203C
:101570000D00002004B3000814B300080F00002081
:10158000100000201100002024B3000830B3000830
:1015900080B594B000AF07F1200330220021184637
:1015A00008F01AFF07F10C0300221A605A609A60D3
:1015B000DA601A610023BB60294B1B6C284A43F098
:1015C00080531364264B1B6C03F08053BB60BB68D5
:1015D00000237B60234B1B68224A43F44043136083
:1015E000204B1B6803F440437B607B6805233B6210
:1015F0004FF4A0237B620123BB620223BB634FF441
:101600008003FB6304233B64A8237B640223BB6445
:101610000723FB6407F12003184604F049FE034644
:10162000002B01D000F0BEFE0F23FB6002233B61C4
:1016300000237B614FF4A053BB614FF48053FB61E7
:1016400007F10C030521184605F0AAF80346002B04
:1016500001D000F0A7FE00BF5037BD4680BD00BFDF
:10166000003802400070004080B500AF0022002129
:101670001C2002F094FA1C2002F0ADFA0022002196
:10168000292002F08CFA292002F0A5FA002200217C
:10169000172002F084FA172002F09DFA00220021A0
:1016A000122002F07CFA122002F095FA00220021AA
:1016B000272002F074FA272002F08DFA0022002180
:1016C000342002F06CFA342002F085FA0022002166
:1016D000282002F064FA282002F07DFA00BF80BDC5
:1016E00090B583B000AF154B1B681846FFF702FB9F
:1016F0000346012B19D100237B600FE00F4B1A68C2
:101700007B681A447B689C081046FFF7F3FA03468F
:101710000B4A42F824307B6804337B607B682F2BB4
:10172000ECD9084808F024FD02E0074808F020FD45
:1017300000F00CF800BF0C37BD4690BD2C05002012
:10174000B00500203CB300084CB3000880B500AFE2
:101750000D4BDB68DAB20D4BDA700B4B1B69DAB25A
:101760000A4B1A70084B5B69DAB2084B5A70064B89
:101770009B69DAB2054B9A7000220449044805F0CF
:1017800065FC00BF80BD00BFB00500200404002040
:10179000E805002080B582B000AF0346FB710B4620
:1017A000BB7113467B71094AFB791370074ABB79F9
:1017B0005370064A7B79937000220449044805F06F
:1017C00045FC00BF0837BD4680BD00BF04040020B3
:1017D000E805002080B582B000AF0346FB710B46E0
:1017E000BB7113467B711D4AFB7913701B4ABB7991
:1017F00053701A4A7B799370184B00225A60174B2A
:101800000022DA70154B0022DA60144B00221A61B4
:10181000124B4FF000425A61104B00229A610F4B5D
:101820000022DA610D4B012283F820200B4B4FF48C
:1018300080725A6201220949094805F0D3FD034626
:10184000002B01D000F0AEFD00220449044805F051
:10185000C9FD00BF0837BD4680BD00BFD8030020CA
:10186000E805002080B582B002AF00222549264855
:1018700005F086FC00222549234805F063FD214B35
:10188000DA78234B1A701F4B1A78224B1A701D4BB3
:101890005A78214B1A701B4B9A78204B1A70204BA8
:1018A00000221A701F4B00221A70164BDB781A4662
:1018B00013465B0013441C4A1A44124B1B7818460B
:1018C000104B5B7819460F4B9B78019300910346B0
:1018D0001649134808F088FC0C4BDB7803F5FA62D4
:1018E0000A4B5B781946094B9B7800930B461049CD
:1018F0000C4808F079FC0A490A48FFF7EFFC00BFE2
:10190000BD4680BD04040020E8050020000400203E
:101910000600002007000020080000200900002029
:1019200020040020300400200000002068B30008DC
:101930007CB3000880B584B002AF0346FB7100F0B1
:1019400031FC0346002B0DD09D4B1B780133DAB2DE
:101950009B4B1A709A4B1B78032B15D9984B00227E
:101960001A7011E000F030FC0346002B0CD0944BB1
:101970001B78013BDAB2924B1A70914B1B78042B07
:1019800002D98F4B03221A708D4B1B78032B00F268
:10199000B48101A252F823F0A9190008811A0008A5
:1019A000531B0008411C0008864B1B78002B0ED0EF
:1019B000854B1B781A46854B1B781946844B1B7840
:1019C00000930B468349844808F00EFC96E100F032
:1019D0000DFC0346002B06D0804B1B780133DAB296
:1019E0007E4B1A700AE000F013FC0346002B05D072
:1019F0007A4B1B78013BDAB2784B1A70774B1B7825
:101A000003F00103DAB2754B1A70744B1B78012B8B
:101A100010D16D4B1A78724BA3FB0213D9080B46F9
:101A20005B000B449B00D31ADBB20C33DAB2664B7B
:101A30001A700DE0644B1A78694BA3FB0213D908A6
:101A40000B465B000B449B00D31ADAB25E4B1A7054
:101A5000624B1B781A4613465B001344614A1A44D2
:101A6000594B1B781846594B1B781946584B1B7815
:101A70000193009103465C49574808F0B5FB3DE1EE
:101A8000504B1B78002B14D0544B1B7803F00102F1
:101A900013465B001344534A1A444C4B1B781946B7
:101AA0004B4B1B7800930B4650494B4808F09CFB6E
:101AB00024E100F09BFB0346002B06D0424B1B7831
:101AC0000133DAB2404B1A700AE000F0A1FB034682
:101AD000002B05D03C4B1B78013BDAB23A4B1A7015
:101AE000394B1B78FF2B03D1374B17221A7018E0A4
:101AF000354B1A783A4BA3FB021319090B465B00CE
:101B00000B44DB00D31ADAB22F4B1A702E4B1B7822
:101B10000B2B03D9314B01221A7002E02F4B00220C
:101B20001A702E4B1B781A4613465B0013442D4A3D
:101B30001A44254B1B781846244B1B781946244B16
:101B40001B780193009103462749234808F04CFB7A
:101B5000D4E01C4B1B78002B13D0204B1B781A466B
:101B600013465B0013441F4A1A44174B1B7819464F
:101B7000174B1B7800930B461D49174808F034FBA0
:101B8000BCE000F033FB0346002B06D00F4B1B7864
:101B90000133DAB20D4B1A700AE000F039FB03464C
:101BA000002B05D0094B1B78013BDAB2074B1A70AA
:101BB000064B1B78FF2B1DD1044B3B221A7027E0EC
:101BC000E0050020E10500200700002008000020BB
:101BD0000900002090B30008400400200600002007
:101BE000ABAAAAAA0000002068B30008A4B30008AA
:101BF000B4B300085E4B1A785E4BA3FB021359097D
:101C00000B461B015B1A9B00D31ADAB2584B1A70B1
:101C1000594B1B781A4613465B001344574A1A4423
:101C2000574B1B781846524B1B781946554B1B785F
:101C30000193009103465449544808F0D5FA5DE0F9
:101C4000534B1B78002B13D04B4B1B781A46134673
:101C50005B001344494A1A44494B1B781946444BCC
:101C60001B7800930B464B49484808F0BDFA45E005
:101C700000F0BCFA0346002B06D0424B1B78013320
:101C8000DAB2404B1A700AE000F0C2FA0346002BA9
:101C900005D03C4B1B78013BDAB23A4B1A70394BFA
:101CA0001B78FF2B03D1374B3B221A700DE0354BCD
:101CB0001A78304BA3FB021359090B461B015B1A20
:101CC0009B00D31ADAB22F4B1A702B4B1B781A4693
:101CD00013465B001344294A1A44294B1B781846C3
:101CE000234B1B781946274B1B7801930091034621
:101CF0002549264808F078FA00E000BFFB79002B60
:101D000010D11D4B1A78244B1A701D4B1A78234B97
:101D10001A70174B1A78224B1A701A4B1A78214BEB
:101D20001A7012E0FB79012B0FD1134B1A781E4B5E
:101D30001A70134B1A781D4B1A700D4B1A781C4BE6
:101D40001A70104B1A781B4B1A70114B1B78002B12
:101D500014BF01230023DBB283F00103DBB203F0E5
:101D60000103DAB20A4B1A7000BF0837BD4680BDC6
:101D700008000020898888880600002000000020D4
:101D8000070000200900002068B30008400400207C
:101D9000E1050020C4B300080A0000200B00002069
:101DA0000C0000200D0000200E0000200F0000207D
:101DB000100000201100002080B584B000AF034661
:101DC000FB71FB79002B03D1344B01221A600CE02C
:101DD000FB79012B03D1314B01225A6005E0FB79DD
:101DE000022B02D12D4B01229A602D4B1B781A46F3
:101DF0002A4BDA602B4B1B781A46284B1A612A4B68
:101E00001B781A46254B5A61284B1B781A46234BE0
:101E10009A61274B1B781A46204BDA61254B1B78B9
:101E20001A461E4B1A62244B1B781A461B4B5A62E9
:101E3000224B1B781A46194B9A62214B1B781A4683
:101E4000164BDA621F48FEF791FF0023FB6014E097
:101E5000FB68002B00DA03339B101A460F4B53F834
:101E6000223019461748FEF759FF164B9B6804337A
:101E7000144A9360FB680433FB60FB682F2BE7DD9B
:101E8000104B1B680F4A93600F4B00221A700F4BC8
:101E900000221A7000BF1037BD4680BDB00500207B
:101EA0000A0000200B0000200C0000200D00002084
:101EB0000E0000200F000020100000201100002064
:101EC000160500202C05002015050020D403002055
:101ED00090B585B000AF00233B603B1D00221A6027
:101EE0005A609A6000F082F90346002B0BD0274B12
:101EF0001B780133DAB2254B1A70254B00221A6089
:101F0000FFF706FA0FE000F083F90346002B0AD032
:101F10001E4B1B78013BDAB21C4B1A701C4B002283
:101F20001A60FFF7F5F91B4B5B6819461A4808F071
:101F3000B9F8164B1B7803F00103DAB2134B1A7091
:101F4000124B1B78002B05D1144B3C460FCB84E879
:101F50000F0009E00D4B1B78012B05D13B461022E9
:101F60000F49184608F0B3FA3B4619460D48FFF7EB
:101F7000B5F9064B1B781A460B4B53F82230044830
:101F8000984700BF1437BD4690BD00BF160500201E
:101F9000E405002018040020D4B30008E0B30008D2
:101FA000F0B3000800B400081400002080B582B02F
:101FB00000AF786044F28101044803F034FA044829
:101FC00008F0D6F800BF0837BD4680BD00040240C7
:101FD00010B4000880B584B000AF0346FB80FB88D6
:101FE000802B40F08C8000F089FF0346464A136046
:101FF000454B1A68454B1B68D31A454A1360424B40
:102000001B68424A1360424B1B68642B77D97822C5
:102010000021404808F0E0F980213F4803F0D2F960
:102020000346FB73FB7B012B14D13C4808F0A0F85E
:10203000374B1B683A4A13603A4B1B780133DAB2CC
:10204000384B1A70374B1B7803F00103DAB2354B6B
:102050001A7016E0FB7B002B13D1334808F088F888
:102060002F4B00221A602A4B1B68B3F57A7F05D2EA
:102070002E4B1B6801332D4A136002E02B4B0022CC
:102080001A60274B1B6840F6B732934203D92848A1
:1020900008F06EF810E0254B1B68012B0CD9254881
:1020A00008F066F8244B1B78002B02D1224B032248
:1020B0001A701E4B00221A601A4B1B78012B1ED17E
:1020C0001E4808F055F81E4B01221A701A4B1B7857
:1020D000002B06D1184B01221A701A4808F048F854
:1020E0000DE0154B1B78012B03D0134B1B78032BF2
:1020F00005D1154808F03CF8144B01221A7000BFB6
:102100001037BD4680BD00BF180500201C0500200B
:102110002005002038050020000C024038B40008DB
:10212000280500201405002040B4000824050020E4
:1021300044B4000860B40008D403002080B4000850
:102140001305002090B40008A0B400081505002075
:1021500080B500AF104B93F880304E2B0ED04E2B35
:1021600010DC412B02D04D2B04D00BE00B4B022294
:102170001A700FE0094B03221A700BE0074B002284
:102180001A7007E0044B93F8C2301946044807F070
:1021900089FF00BF00BF80BD50040020D403002091
:1021A000B0B4000880B400AF064B1B6840F6B732ED
:1021B00093428CBF01230023DBB21846BD465DF875
:1021C000047B70471804002080B400AF064B1B68E6
:1021D000B3F57A7F94BF01230023DBB21846BD46D6
:1021E0005DF8047B704700BF1804002080B400AF86
:1021F000064B5B6840F6B73293428CBF0123002345
:10220000DBB21846BD465DF8047B70471804002019
:1022100080B400AF064B5B68B3F57A7F94BF0123AF
:102220000023DBB21846BD465DF8047B704700BF53
:1022300018040020B0B582B000AF78607B681B68DE
:102240004C4A934241D14C4B1B780D2B04D04B4B45
:1022500093F8C030402B1CD9494807F089FF474804
:1022600007F020FF474807F083FF444B93F8C03046
:102270009AB24FF4FA734149434806F024FB4022D6
:1022800000213E4808F0A8F83C4B002283F8C0200B
:1022900015E03A4B93F8C0301A46374B1978374B54
:1022A0009954354B1B781946384807F0FBFE334BE1
:1022B00093F8C0300133DAB2304B83F8C0200122EA
:1022C0002D49334806F091FB4FE07B681B68314A8B
:1022D00093424AD1642301222F492D4806F0F3FA94
:1022E00001222D49284806F080FB2B4B1B780A2B36
:1022F00029D1224B93F8C1301A46204B13440022B7
:1023000083F840201D4A1D4B02F1800403F1400573
:102310000FCD0FC40FCD0FC40FCD0FC495E80F0024
:1023200084E80F00402200211C4808F055F8134BA8
:10233000012283F8C220114B002283F8C1201848E3
:1023400007F016FF11E00D4B93F8C1301946124B00
:102350001A780A4B0B4483F84020084B93F8C1309D
:102360000133DAB2054B83F8C12000BF0837BD4600
:10237000B0BD00BF00480040D5030020500400203D
:10238000C0B40008E0B400089C060020E4B40008D3
:10239000E0060020004C0040D603002090040020FE
:1023A000F8B4000880B400AF72B600BFFEE70000CA
:1023B00080B590B000AF07F12C0300221A605A607C
:1023C0009A60DA601A610023BB623B462822002132
:1023D000184608F001F83D4B3D4A1A603B4B40223D
:1023E0005A603A4B7F229A60384BFF22DA60374BB3
:1023F00000221A61354B00225A61344B00229A6147
:10240000324804F0ADFD0346002B01D0FFF7CAFFB0
:10241000012387F82C30002387F82D30002387F81C
:102420002E30002387F82F300023BB630023FB638B
:1024300007F12C0301221946244804F007FE034645
:10244000002B01D0FFF7AEFF012387F828300123CE
:1024500087F82930012387F82A30002387F82B30AA
:1024600007F1280301221946184804F0E7FE034645
:10247000002B01D0FFF796FF01233B7001237B70F7
:102480000023BB7000237B600023FB700023FB60F4
:1024900000233B610F4B7B610023BB610023FB6189
:1024A000012387F820304FF480737B623B46012282
:1024B0001946064804F096FF0346002B01D0FFF7AB
:1024C00071FF00BF4037BD4680BD00BFE80500205A
:1024D000002800400080808080B58EB000AF78601A
:1024E00007F1080330220021184607F075FF7B68CA
:1024F0001B680C4A934211D12023BB604FF48073B8
:102500003B6307F10803184604F06AFB0346002BFF
:1025100001D0FFF747FF044B01221A6000BF383794
:10252000BD4680BD002800403C0E474280B582B0C9
:1025300000AF78607B681B681A4A1B4951F823304A
:10254000D3627B681B68184A52F82330154A5B082F
:10255000D3634FF4967000F0DDFC124B0022DA6377
:102560007B681B68114A52F82330184600F0D2FCF1
:102570007B681B680C4A52F823300A4A5B08D36315
:102580007B681B68332B03D97B6800221A6004E048
:102590007B681B685A1C7B681A6000BF0837BD4601
:1025A00080BD00BF0004004000B50008D0B50008A1
:1025B00080B582B000AF78607B681B681A4A1B49FF
:1025C00051F82330D3627B681B68184A52F82330D5
:1025D000154A5B08D3634FF4967000F09BFC124BD6
:1025E0000022DA637B681B68114A52F823301846D0
:1025F00000F090FC7B681B680C4A52F823300A4AB2
:102600005B08D3637B681B683A2B03D97B68002285
:102610001A6004E07B681B685A1C7B681A6000BF64
:102620000837BD4680BD00BF00040040A0B60008CA
:102630008CB7000880B400AF034B0022DA6200BF01
:10264000BD465DF8047B70470004004080B483B051
:1026500000AF00237B60104B5B6C0F4A43F4804358
:1026600053640D4B5B6C03F480437B607B680023F9
:102670003B60094B1B6C084A43F080531364064BC4
:102680001B6C03F080533B603B6800BF0C37BD46BA
:102690005DF8047B704700BF0038024080B400AF93
:1026A000FEE780B400AFFEE780B400AFFEE780B481
:1026B00000AFFEE780B400AFFEE780B400AF00BF1C
:1026C000BD465DF8047B704780B400AF00BFBD46D7
:1026D0005DF8047B704780B400AF00BFBD465DF875
:1026E000047B704780B500AF00F0F4FB00BF80BDF5
:1026F00080B500AF024800F074FC00BF80BD00BF91
:10270000A000002080B500AF802002F0A7FE00BF2F
:1027100080BD000080B500AF024805F023FA00BF7D
:1027200080BD00BF0C06002080B500AF024806F057
:102730008DF900BF80BD00BFE006002080B500AF6E
:102740004FF4005002F08AFE00BF80BD80B500AF9C
:10275000024804F089FF00BF80BD00BFE8050020EB
:1027600080B500AF024806F071F900BF80BD00BF20
:102770009C06002080B500AF024801F0DFFB00BFDF
:1027800080BD00BFE800002080B586B000AFF860D3
:10279000B9607A6000237B610AE0AFF300800146F4
:1027A000BB685A1CBA60CAB21A707B6901337B617C
:1027B0007A697B689A42F0DB7B6818461837BD4619
:1027C00080BD80B483B000AF78604FF0FF3318460F
:1027D0000C37BD465DF8047B704780B483B000AF12
:1027E000786039603B684FF400525A600023184605
:1027F0000C37BD465DF8047B704780B483B000AFF2
:102800007860012318460C37BD465DF8047B70479D
:1028100080B485B000AFF860B9607A6000231846D4
:102820001437BD465DF8047B7047000080B586B064
:1028300000AF7860144A154BD31A7B617B693B610A
:10284000134B1B68002B02D1114B124A1A60104B1C
:102850001A687B6813443A699A4207D207F00AFE65
:1028600003460C221A604FF0FF3309E0084B1B6847
:10287000FB60074B1A687B681344054A1360FB68CA
:1028800018461837BD4680BD000003200004000034
:1028900008060020A00D002080B400AF064BD3F83E
:1028A0008830054A43F47003C2F8883000BFBD4643
:1028B0005DF8047B704700BF00ED00E080B586B096
:1028C00000AF07F1080300221A605A609A60DA60CC
:1028D0003B4600221A605A601E4B4FF080421A603D
:1028E0001C4B42F2CF025A601A4B00229A60194BDD
:1028F0004FF6FE72DA60174B00221A61154B002268
:102900009A61144804F0BDFF0346002B01D0FFF785
:1029100049FD4FF48053BB6007F1080319460D4889
:1029200005F0EAFA0346002B01D0FFF73BFD002338
:102930003B6000237B603B461946064805F0E6FEF7
:102940000346002B01D0FFF72DFD00BF1837BD4611
:1029500080BD00BF0C06002080B58EB000AF07F12F
:10296000280300221A605A609A60DA6007F1200397
:1029700000221A605A603B1D00221A605A609A6059
:10298000DA601A615A619A612C4B2D4A1A602B4BFE
:1029900053225A60294B00229A60284B40F2CF7292
:1029A000DA60264B00221A61244B00229A612348E8
:1029B00004F067FF0346002B01D0FFF7F3FC4FF450
:1029C0008053BB6207F1280319461C4805F094FAAE
:1029D0000346002B01D0FFF7E5FC184804F0A0FFE8
:1029E0000346002B01D0FFF7DDFC00233B620023F0
:1029F0007B6207F120031946104805F087FE034665
:102A0000002B01D0FFF7CEFC60237B600023BB606E
:102A10000023FB6000237B613B1D08221946074809
:102A200005F0A8F90346002B01D0FFF7BBFC0348D3
:102A300000F03EF800BF3837BD4680BD5406002088
:102A40000004004080B485B000AF78607B681B68EC
:102A5000B3F1804F0ED10023FB60134B1B6C124A65
:102A600043F001031364104B1B6C03F00103FB6084
:102A7000FB6812E07B681B680C4A93420DD100236F
:102A8000BB60094B1B6C084A43F002031364064BFE
:102A90001B6C03F00203BB60BB6800BF1437BD466C
:102AA0005DF8047B704700BF00380240000400401E
:102AB00080B588B000AF786007F10C0300221A607F
:102AC0005A609A60DA601A617B681B68124A934206
:102AD0001ED10023BB60114B1B6B104A43F0040353
:102AE00013630E4B1B6B03F00403BB60BB684FF416
:102AF0008073FB6002233B6100237B610023BB6189
:102B00000223FB6107F10C031946054802F0AEFAF7
:102B100000BF2037BD4680BD0004004000380240A1
:102B20000008024080B500AF114B124A1A60104BEA
:102B30004FF416525A600E4B00229A600C4B002242
:102B4000DA600B4B00221A61094B0C225A61084BC8
:102B500000229A61064B0022DA61054805F066FE04
:102B60000346002B01D0FFF71DFC00BF80BD00BF56
:102B70009C060020004C004080B500AF114B124A6B
:102B80001A60104B4FF4E1325A600E4B00229A60EB
:102B90000C4B0022DA600B4B00221A61094B0C220D
:102BA0005A61084B00229A61064B0022DA610548FF
:102BB00005F03CFE0346002B01D0FFF7F3FB00BFFE
:102BC00080BD00BFE00600200048004080B58CB00A
:102BD00000AF786007F11C0300221A605A609A6007
:102BE000DA601A617B681B68334A93422DD1002357
:102BF000BB61324B1B6C314A43F4002313642F4BEF
:102C00001B6C03F40023BB61BB6900237B612B4B6E
:102C10001B6B2A4A43F004031363284B1B6B03F01E
:102C200004037B617B694FF44063FB6102233B62D9
:102C300000237B620323BB620823FB6207F11C03B2
:102C400019461F4802F012FA31E07B681B681D4AE2
:102C500093422CD100233B61184B1B6C174A43F461
:102C600080231364154B1B6C03F480233B613B6989
:102C70000023FB60114B1B6B104A43F008031363E6
:102C80000E4B1B6B03F00803FB60FB684FF44073B3
:102C9000FB6102233B6200237B620323BB620723A9
:102CA000FB6207F11C031946074802F0DFF900BF79
:102CB0003037BD4680BD00BF004C004000380240A8
:102CC0000008024000480040000C024080B500AF00
:102CD000144B4FF0A0421A60124B04225A60114B61
:102CE0000222DA600F4B00221A610E4B02229A6117
:102CF0000C4B0122DA610B4B00221A62094B0022B5
:102D00005A62084B0122DA62064B00221A63054818
:102D100003F0B0F90346002B01D0FFF743FB00BFDF
:102D200080BD00BF2407002080B58AB000AF786066
:102D300007F1140300221A605A609A60DA601A617F
:102D40007B681B68B3F1A04F3FD100233B61214B4F
:102D50001B6B204A43F0010313631E4B1B6B03F0F4
:102D600001033B613B694FF4E8537B610223BB6184
:102D70000023FB6103233B620A237B6207F11403F8
:102D80001946154802F072F94FF400737B61002375
:102D9000BB610023FB6107F1140319460E4802F0E2
:102DA00065F90C4B5B6B0B4A43F0800353630023C4
:102DB000FB60084B5B6C074A43F480435364054B4C
:102DC0005B6C03F48043FB60FB6800BF2837BD46A3
:102DD00080BD00BF0038024000000240DFF834D060
:102DE0000D480E490E4A002302E0D458C450043363
:102DF000C4188C42F9D30B4A0B4C002301E013603A
:102E00000432A242FBD3FFF747FD07F039FBFEF780
:102E1000ABFA70470000032000000020840000206F
:102E2000E0B8000884000020A00D0020FEE70000AC
:102E300080B500AF0E4B1B680D4A43F4007313605E
:102E40000B4B1B680A4A43F480631360084B1B68F2
:102E5000074A43F480731360032000F095FE0020BE
:102E600000F008F8FFF7F2FB0023184680BD00BF12
:102E7000003C024080B582B000AF7860124B1A6807
:102E8000124B1B7819464FF47A73B3FBF1F3B2FB84
:102E9000F3F3184600F0ADFE0346002B01D00123EA
:102EA0000EE07B680F2B0AD8002279684FF0FF30C4
:102EB00000F075FE064A7B681360002300E00123E2
:102EC00018460837BD4680BD1C00002024000020A5
:102ED0002000002080B400AF064B1B781A46064B3A
:102EE0001B681344044A136000BFBD465DF8047BB1
:102EF000704700BF24000020300C002080B400AFD9
:102F0000034B1B681846BD465DF8047B704700BF45
:102F1000300C002080B584B000AF7860FFF7EEFF82
:102F2000B8607B68FB60FB68B3F1FF3F05D00A4BDC
:102F30001B781A46FB681344FB6000BFFFF7DEFFF7
:102F40000246BB68D31AFA689A42F7D800BF00BF9E
:102F50001037BD4680BD00BF2400002080B584B07E
:102F600000AF78600023FB737B68002B01D1012345
:102F700033E07B681B6C002B09D17868FDF76EFB92
:102F80007B6800225A647B68002283F83C207B68BF
:102F90001B6C03F01003002B18D17B681B6C23F40F
:102FA000885323F0020343F002027B681A647868B6
:102FB00000F092FB7B6800225A647B681B6C23F054
:102FC000030343F001027B681A6401E00123FB73F1
:102FD0007B68002283F83C20FB7B18461037BD46F7
:102FE00080BD80B586B000AF786000237B61002390
:102FF0003B617B681B681B68FB607B681B685B68C8
:10300000BB60FB6803F002037B61BB6803F0200335
:103010003B617B69002B49D03B69002B46D07B6824
:103020001B6C03F01003002B05D17B681B6C43F471
:1030300000727B681A647B681B689B6803F04053CE
:10304000002B2BD17B681B7E002B27D17B681B6854
:10305000DB6A03F47003002B06D07B681B689B6857
:1030600003F48063002B19D17B681B685A687B6866
:103070001B6822F020025A607B681B6C23F480726C
:103080007B681A647B681B6C03F48053002B05D1AA
:103090007B681B6C43F001027B681A64786800F05F
:1030A000C1F97B681B686FF012021A60FB6803F0BD
:1030B00004037B61BB6803F080033B617B69002BE9
:1030C00057D03B69002B54D07B681B6C03F0100376
:1030D000002B05D17B681B6C43F400527B681A649B
:1030E0007B681B689B6803F44013002B39D17B6815
:1030F0001B689B6B03F44013002B06D07B681B6896
:103100009B6803F48063002B2BD17B681B685B6892
:1031100003F48063002B24D17B681B689B6803F059
:103120004053002B1DD17B681B7E002B19D17B687F
:103130001B685A687B681B6822F080025A607B68B3
:103140001B6C23F480527B681A647B681B6C03F44D
:103150008073002B05D17B681B6C43F001027B68F8
:103160001A64786800F036FC7B681B686FF00C020C
:103170001A60FB6803F001037B61BB6803F0400346
:103180003B617B69002B17D03B69002B14D07B6817
:103190001B681B6803F00103012B0DD17B681B6CBE
:1031A00043F480327B681A64786800F04FF97B68DA
:1031B0001B686FF001021A60FB6803F020037B615B
:1031C000BB6803F080633B617B69002B15D03B69D2
:1031D000002B12D07B685B6C43F002027B685A6460
:1031E0007B681B686FF020021A60786800F038F97D
:1031F0007B681B686FF020021A6000BF1837BD465D
:1032000080BD000080B586B000AFF860B9607A601C
:1032100000233B61FB6893F83C30012B01D1022372
:10322000E9E0FB68012283F83C20FB681B689B688F
:1032300003F00103012B18D0FB681B689A68FB6838
:103240001B6842F001029A606D4B1B686D4AA2FB3D
:1032500003239A0C13465B0013443B6102E03B6975
:10326000013B3B613B69002BF9D1FB681B689B6804
:1032700003F48073B3F5807F07D1FB681B689A68FD
:10328000FB681B6822F480729A60FB681B689B686D
:1032900003F00103012B40F0A180FB681B6C23F4B9
:1032A000E06323F0010343F48072FB681A64FB6857
:1032B0001B685B6803F48063002B07D0FB681B6C02
:1032C00023F4405343F48052FB681A64FB681B6C80
:1032D00003F48053B3F5805F06D1FB685B6C23F089
:1032E0000602FB685A6402E0FB6800225A64FB682D
:1032F000002283F83C20444B7B61FB689B6B434A74
:10330000DA63FB689B6B424A1A64FB689B6B414A19
:10331000DA64FB681B686FF022021A60FB681B68A6
:103320005A68FB681B6842F080625A60FB681B6841
:103330009A68FB681B6842F480729A60FB68986B1D
:10334000FB681B684C331946BA687B6800F00CFDBB
:103350007B695B6803F01F03002B2AD1FB681B68A5
:103360002D4A934215D0FB681B682C4A934205D125
:10337000254B5B6803F01F03002B0AD0FB681B681A
:10338000274A934236D1204B5B6803F01003002B91
:1033900030D1FB681B689B6803F04053002B29D198
:1033A000FB681B689A68FB681B6842F080429A6061
:1033B00020E0FB681B68184A93421BD1FB681B681E
:1033C0009B6803F04053002B14D1FB681B689A687C
:1033D000FB681B6842F080429A600BE0FB681B6C44
:1033E00043F01002FB681A64FB685B6C43F0010257
:1033F000FB685A64002318461837BD4680BD00BFDD
:103400001C00002083DE1B4300230140D13800084C
:103410008B390008A7390008002001400021014035
:103420000022014080B483B000AF786000BF0C3749
:10343000BD465DF8047B704780B483B000AF786010
:1034400000BF0C37BD465DF8047B704780B483B085
:1034500000AF786000BF0C37BD465DF8047B704755
:1034600080B483B000AF786000BF0C37BD465DF814
:10347000047B704780B485B000AF7860396000236A
:10348000BB607B6893F83C30012B01D1022313E130
:103490007B68012283F83C203B681B68092B25D9F7
:1034A0007B681B68D9683B681B689BB21A46134649
:1034B0005B0013441E3B072202FA03F3DA437B68E6
:1034C0001B680A40DA607B681B68D9683B689A68A9
:1034D0003B681B689BB2184603465B0003441E3BD7
:1034E0009A407B681B680A43DA6022E07B681B68AD
:1034F00019693B681B689BB21A4613465B0013446C
:10350000072202FA03F3DA437B681B680A401A6158
:103510007B681B6819693B689A683B681B689BB2AB
:10352000184603465B0003449A407B681B680A43C5
:103530001A613B685B68062B24D87B681B68596B53
:103540003B685A6813469B001344053B1F2202FA4E
:1035500003F3DA437B681B680A405A637B681B6885
:10356000596B3B681B689BB218463B685A68134608
:103570009B001344053B00FA03F27B681B680A4377
:103580005A634CE03B685B680C2B24D87B681B6853
:10359000196B3B685A6813469B001344233B1F2258
:1035A00002FA03F3DA437B681B680A401A637B68FC
:1035B0001B68196B3B681B689BB218463B685A68CE
:1035C00013469B001344233B00FA03F27B681B68FD
:1035D0000A431A6323E07B681B68D96A3B685A6810
:1035E00013469B001344413B1F2202FA03F3DA43C4
:1035F0007B681B680A40DA627B681B68D96A3B6893
:103600001B689BB218463B685A6813469B001344DC
:10361000413B00FA03F27B681B680A43DA62294BDC
:10362000FB607B681B68284A93420FD13B681B688C
:10363000122B0BD1FB685B6823F40002FB685A6015
:10364000FB685B6843F48002FB685A607B681B6818
:103650001D4A93422BD13B681B681C4A934203D0FE
:103660003B681B68112B22D1FB685B6823F4800246
:10367000FB685A60FB685B6843F40002FB685A60B1
:103680003B681B68114A934211D1114B1B68114AC8
:10369000A2FB03239A0C13469B0013445B00BB6000
:1036A00002E0BB68013BBB60BB68002BF9D17B68C3
:1036B000002283F83C20002318461437BD465DF8ED
:1036C000047B7047002301400020014012000010DD
:1036D0001C00002083DE1B4380B485B000AF7860FF
:1036E000794BFB60FB685B6823F44032FB685A60EF
:1036F000FB685A687B685B681A43FB685A607B68A2
:103700001B685A687B681B6822F480725A607B6869
:103710001B6859687B681B691A027B681B680A432F
:103720005A607B681B685A687B681B6822F040728D
:103730005A607B681B6859687B689A687B681B685D
:103740000A435A607B681B689A687B681B6822F48E
:1037500000629A607B681B6899687B68DA687B689E
:103760001B680A439A607B689B6A584A934222D03E
:103770007B681B689A687B681B6822F070629A609D
:103780007B681B6899687B689A6A7B681B680A4338
:103790009A607B681B689A687B681B6822F04052BD
:1037A0009A607B681B6899687B68DA6A7B681B682B
:1037B0000A439A600FE07B681B689A687B681B6805
:1037C00022F070629A607B681B689A687B681B684D
:1037D00022F040529A607B681B689A687B681B687D
:1037E00022F002029A607B681B6899687B681B7EE6
:1037F0005A007B681B680A439A607B6893F8203004
:10380000002B1BD07B681B685A687B681B6842F4DE
:1038100000625A607B681B685A687B681B6822F4E8
:1038200060425A607B681B6859687B685B6A013B31
:103830005A037B681B680A435A6007E07B681B6871
:103840005A687B681B6822F400625A607B681B68B8
:10385000DA6A7B681B6822F47002DA627B681B6894
:10386000D96A7B68DB69013B1A057B681B680A43E0
:10387000DA627B681B689A687B681B6822F40072B6
:103880009A607B681B6899687B6893F830305A02AD
:103890007B681B680A439A607B681B689A687B6830
:1038A0001B6822F480629A607B681B6899687B6859
:1038B0005B699A027B681B680A439A6000BF1437F1
:1038C000BD465DF8047B7047002301400100000FF6
:1038D00080B584B000AF78607B689B6BFB60FB6851
:1038E0001B6C03F05003002B3CD1FB681B6C43F4B2
:1038F0000072FB681A64FB681B689B6803F0405306
:10390000002B2BD1FB681B7E002B27D1FB681B688B
:10391000DB6A03F47003002B06D0FB681B689B680E
:1039200003F48063002B19D1FB681B685A68FB689D
:103930001B6822F020025A60FB681B6C23F4807223
:10394000FB681A64FB681B6C03F48053002B05D1E1
:10395000FB681B6C43F00102FB681A64F868FFF710
:1039600061FD0EE0FB681B6C03F01003002B03D01D
:10397000F868FFF775FD04E0FB689B6BDB6C78680B
:10398000984700BF1037BD4680BD80B584B000AFFA
:1039900078607B689B6BFB60F868FFF74DFD00BFAC
:1039A0001037BD4680BD80B584B000AF78607B68BD
:1039B0009B6BFB60FB6840221A64FB685B6C43F006
:1039C0000402FB685A64F868FFF74AFD00BF10372D
:1039D000BD4680BD80B483B000AF786000BF0C37B7
:1039E000BD465DF8047B704780B485B000AF786059
:1039F0007B6803F00703FB600C4BDB68BB60BA68B5
:103A00004FF6FF031340BB60FB681A02BB68134309
:103A100043F0BF6343F40033BB60044ABB68D36028
:103A200000BF1437BD465DF8047B704700ED00E031
:103A300080B400AF044BDB681B0A03F00703184691
:103A4000BD465DF8047B704700ED00E080B483B0B4
:103A500000AF0346FB7197F90730002B0BDBFB79B6
:103A600003F01F02074997F907305B09012000FAAC
:103A700002F241F8232000BF0C37BD465DF8047BFD
:103A8000704700BF00E100E080B483B000AF0346A0
:103A90003960FB7197F90730002B0ADB3B68DAB21B
:103AA0000C4997F907301201D2B20B4483F8002376
:103AB0000AE03B68DAB20849FB7903F00F03043BE4
:103AC0001201D2B20B441A7600BF0C37BD465DF826
:103AD000047B704700E100E000ED00E080B489B0B5
:103AE00000AFF860B9607A60FB6803F00703FB6120
:103AF000FB69C3F10703042B28BF0423BB61FB69E7
:103B00000433062B02D9FB69033B00E000237B61F1
:103B10004FF0FF32BB6902FA03F3DA43BB681A4085
:103B20007B699A404FF0FF317B6901FA03F3D94377
:103B30007B680B40134318462437BD465DF8047B71
:103B40007047000080B582B000AF78607B68013BB1
:103B5000B3F1807F01D301230FE00A4A7B68013B68
:103B600053600F214FF0FF30FFF78EFF054B00220F
:103B70009A60044B07221A60002318460837BD4696
:103B800080BD00BF10E000E080B582B000AF78607B
:103B90007868FFF729FF00BF0837BD4680BD80B5B4
:103BA00086B000AF0346B9607A60FB7300237B6187
:103BB000FFF73EFF78617A68B9687869FFF78EFF92
:103BC000024697F90F3011461846FFF75DFF00BF18
:103BD0001837BD4680BD80B582B000AF0346FB718B
:103BE00097F907301846FFF731FF00BF0837BD4689
:103BF00080BD80B582B000AF78607868FFF7A2FF23
:103C0000034618460837BD4680BD000080B586B023
:103C100000AF786000237B61FFF770F938617B6843
:103C2000002B01D1012399E07B68022283F8352023
:103C30007B68002283F834207B681B681A687B68E5
:103C40001B6822F001021A600FE0FFF757F90246E5
:103C50003B69D31A052B08D97B6820225A657B68FB
:103C6000032283F83520032378E07B681B681B68F8
:103C700003F00103002BE8D17B681B681B687B61A4
:103C80007A69384B13407B617B685A687B689B6814
:103C90001A437B68DB681A437B681B691A437B689D
:103CA0005B691A437B689B691A437B68DB691A432B
:103CB0007B681B6A13437A6913437B617B685B6A89
:103CC000042B07D17B68DA6A7B681B6B13437A6924
:103CD00013437B617B681B687A691A607B681B6889
:103CE0005B697B617B6923F007037B617B685B6AAF
:103CF0007A6913437B617B685B6A042B17D17B680D
:103D00009B6A7A6913437B617B68DB6A002B0ED068
:103D1000786800F001FB0346002B08D07B68402246
:103D20005A657B68012283F83520012316E07B6801
:103D30001B687A695A61786800F0B8FA0346FB603C
:103D40007B68DB6D3F229A40FB689A607B680022AB
:103D50005A657B68012283F83520002318461837FE
:103D6000BD4680BD3F8010F080B586B000AFF860E2
:103D7000B9607A603B600023FB75FB689B6D3B611B
:103D8000FB6893F83430012B01D1022340E0FB683B
:103D9000012283F83420FB6893F83530DBB2012B25
:103DA0002FD1FB68022283F83520FB6800225A6578
:103DB0003B687A68B968F86800F04AFAFB68DB6D1E
:103DC0003F229A403B699A60FB681B681A68FB684F
:103DD0001B6842F016021A60FB681B6C002B07D0B0
:103DE000FB681B681A68FB681B6842F008021A60CF
:103DF000FB681B681A68FB681B6842F001021A60C6
:103E000005E0FB68002283F834200223FB75FB7D6C
:103E100018461837BD4680BD80B584B000AF7860C5
:103E20007B689B6DFB60FFF769F8B8607B6893F86F
:103E30003530DBB2022B08D07B6880225A657B6864
:103E4000002283F83420012352E07B681B681A6843
:103E50007B681B6822F016021A607B681B685A692F
:103E60007B681B6822F080025A617B681B6C002B08
:103E700003D17B689B6C002B07D07B681B681A689A
:103E80007B681B6822F008021A607B681B681A684E
:103E90007B681B6822F001021A6013E0FFF72EF81E
:103EA0000246BB68D31A052B0CD97B6820225A65C1
:103EB0007B68032283F835207B68002283F8342056
:103EC000032315E07B681B681B6803F00103002BCC
:103ED000E4D17B68DB6D3F229A40FB689A607B6887
:103EE000012283F835207B68002283F834200023E8
:103EF00018461037BD4680BD80B483B000AF7860EF
:103F00007B6893F83530DBB2022B04D07B688022CB
:103F10005A6501230CE07B68052283F835207B6815
:103F20001B681A687B681B6822F001021A60002374
:103F300018460C37BD465DF8047B704780B586B0E7
:103F400000AF78600023BB608E4B1B688E4AA2FBDB
:103F500003239B0A7B617B689B6D3B613B691B680C
:103F6000FB607B68DB6D08229A40FB681340002BE6
:103F70001AD07B681B681B6803F00403002B13D066
:103F80007B681B681A687B681B6822F004021A6051
:103F90007B68DB6D08229A403B699A607B685B6DA9
:103FA00043F001027B685A657B68DB6D01229A4011
:103FB000FB681340002B12D07B681B685B6903F021
:103FC0008003002B0BD07B68DB6D01229A403B699C
:103FD0009A607B685B6D43F002027B685A657B6880
:103FE000DB6D04229A40FB681340002B12D07B68E3
:103FF0001B681B6803F00203002B0BD07B68DB6D92
:1040000004229A403B699A607B685B6D43F004022E
:104010007B685A657B68DB6D10229A40FB68134011
:10402000002B43D07B681B681B6803F00803002B40
:104030003CD07B68DB6D10229A403B699A607B68BC
:104040001B681B6803F48023002B18D07B681B6857
:104050001B6803F40023002B08D17B681B6C002B2A
:1040600024D07B681B6C786898471FE07B689B6C4A
:10407000002B1BD07B689B6C7868984716E07B68A8
:104080001B681B6803F48073002B07D17B681B68D7
:104090001A687B681B6822F008021A607B681B6C38
:1040A000002B03D07B681B6C786898477B68DB6DBE
:1040B00020229A40FB681340002B00F08F807B6821
:1040C0001B681B6803F01003002B00F087807B68DF
:1040D000DB6D20229A403B699A607B6893F835300B
:1040E000DBB2052B36D17B681B681A687B681B68BE
:1040F00022F016021A607B681B685A697B681B688D
:1041000022F080025A617B681B6C002B03D17B6814
:104110009B6C002B07D07B681B681A687B681B6848
:1041200022F008021A607B68DB6D3F229A403B69EF
:104130009A607B68012283F835207B68002283F82F
:1041400034207B681B6D002B7ED07B681B6D7868EC
:10415000984779E07B681B681B6803F48023002B79
:104160001DD07B681B681B6803F40023002B0DD156
:104170007B685B6C002B31D07B685B6C7868984700
:104180002CE000BF1C000020B5814E1B7B68DB6B60
:10419000002B23D07B68DB6B786898471EE07B6838
:1041A0001B681B6803F48073002B0FD17B681B68AE
:1041B0001A687B681B6822F010021A607B68012273
:1041C00083F835207B68002283F834207B68DB6B22
:1041D000002B03D07B68DB6B786898477B685B6D4E
:1041E000002B32D07B685B6D03F00103002B22D0E3
:1041F0007B68052283F835207B681B681A687B681A
:104200001B6822F001021A60BB680133BB607A6947
:104210009A4207D37B681B681B6803F00103002BDD
:10422000F2D100E000BF7B68012283F835207B6873
:10423000002283F834207B68DB6C002B05D07B6880
:10424000DB6C7868984700E000BF1837BD4680BD3A
:1042500080B485B000AFF860B9607A603B60FB68FD
:104260001B681A68FB681B6822F480221A60FB68CE
:104270001B683A685A60FB689B68402B08D1FB6852
:104280001B687A689A60FB681B68BA68DA6007E0A6
:10429000FB681B68BA689A60FB681B687A68DA601A
:1042A00000BF1437BD465DF8047B704780B485B00D
:1042B00000AF78607B681B68DBB2103B144AA2FB3E
:1042C00003231B09FB60134AFB6813441B781A463F
:1042D0007B68DA65FB68032B09D97B681B6823F4CC
:1042E0007F7323F003031A1D7B689A6507E07B68E0
:1042F0001B6823F47F7323F003037A6893657B685C
:104300009B6D18461437BD465DF8047B704700BFAF
:10431000ABAAAAAA94B8000880B485B000AF7860B0
:104320000023FB737B689B6ABB607B689B69002BE7
:104330001FD1BB68032B56D801A252F823F000BF4F
:10434000514300086343000851430008E743000855
:104350007B68DB6A03F08073002B46D00123FB737C
:1043600043E07B68DB6AB3F1C07F40D10123FB737C
:104370003DE07B689B69B3F5005F21D1BB68032BEF
:1043800037D801A252F823F0994300089F43000850
:1043900099430008B14300080123FB7330E07B68B8
:1043A000DB6A03F08073002B25D00123FB7322E02E
:1043B0007B68DB6AB3F1C07F1FD10123FB731CE074
:1043C000BB68022B03D9BB68032B03D018E0012381
:1043D000FB7315E07B68DB6A03F08073002B0ED063
:1043E0000123FB730BE000BF0AE000BF08E000BF41
:1043F00006E000BF04E000BF02E000BF00E000BF35
:10440000FB7B18461437BD465DF8047B704700BF40
:1044100080B584B000AF78607B68002B01D10123A8
:104420006CE07B68D3F88430002B06D17B682322B4
:10443000C3F884207868FCF713FA0023BB60314B83
:104440005B6C304A43F4804353642E4B5B6C03F443
:104450008043BB60BB682C4B5B682B4A23F4000392
:104460005360294B5A687B689B68274913434B600C
:10447000254B5B687B681B6803F580531B687A6873
:10448000126843F0010302F580521360FEF736FD17
:10449000F86011E0FEF732FD0246FB68D31AB3F56F
:1044A000FA7F09D97B680422C3F888207B68E02260
:1044B000C3F88420012321E07B681B6803F5805347
:1044C0001B6803F00103002BE4D1786800F058F971
:1044D000786800F0FFF9786800F055FA7B685B684F
:1044E0001A460021786800F0BDF97B680022C3F805
:1044F00088207B681022C3F88420002318461037D8
:10450000BD4680BD003802400038014080B584B00F
:1045100000AF786039607B681B681B68FB60FA68D5
:10452000514B1340FB603B681B7C002B02D14FF4C6
:10453000000200E000223B685B7C002B02D14FF4BC
:10454000800300E000231A433B689B681A433B68E2
:10455000DB7F1B041A433B685B6913433A68927F15
:10456000002A02D14FF4005200E000221A433B68B7
:104570001B7F1B031A433B689B691A433B681B79EB
:104580009B0213433A6892F82020002A02D14FF48C
:10459000007200E000221A433B68DB7BDB011A4318
:1045A0003B685B6A1A433B6893F828301B0113434E
:1045B000FA681343FB607B681B68FA681A607B68C3
:1045C0001B681B68FB600120FEF7A4FC7B681B686E
:1045D000FA681A607B681B689B69FB60FA684FF693
:1045E00041731340FB603B689B6C1B043A6892F874
:1045F0004C20002A01D1802200E000221A433B68AF
:104600001B6D13433A6892F85520012A01D1082204
:1046100000E0002213433A6892F85620012A01D1A3
:10462000042200E0002213433A6892F85420012A41
:1046300001D1022200E000221343FA681343FB6019
:104640007B681B68FA689A617B681B689B69FB60E2
:104650000120FEF75FFC7B681B68FA689A6100BF67
:104660001037BD4680BD00BF0F8120FF80B584B0EC
:1046700000AF786039607B681B6803F580539B69E5
:10468000FB60FA683D4B1340FB603B681B7B002BD3
:1046900002D14FF0806200E000223B685B7B5B064A
:1046A00013433A68527F002A02D14FF4801200E08F
:1046B00000221A433B689B7B5B051A433B685B699E
:1046C0001A433B681B7FDB011A433B689B7F9B01BE
:1046D0001A433B681B6A1A433B6893F824309B00DB
:1046E0001343FA681343FB607B681B6803F5805330
:1046F0001A46FB6893617B681B6803F580539B69CE
:10470000FB600120FEF706FC7B681B6803F5805305
:104710001A46FB6893613B681B795A063B689B68A5
:104720001A433B689B691A433B681B691A433B6801
:1047300093F82530DB011A433B689B6A9B001A43C0
:104740003B681B6813437A68126843F4000302F560
:10475000805213607B681B6803F580531B68FB6005
:104760000120FEF7D7FB7B681B6803F580531A46D0
:10477000FB68136000BF1037BD4680BD233FDEF8E5
:1047800080B5A6B000AF7860012387F844300123DC
:1047900087F845300023FB63002387F8533001235B
:1047A00087F85230002387F85030012387F83830DB
:1047B000002387F85430002387F843300023BB657B
:1047C000002387F85C300023FB67002387F88030E4
:1047D0000023C7F88430002387F88A30002387F845
:1047E00088304FF48043BB644FF40063FB640023C4
:1047F00087F8893007F1340319467868FFF786FE99
:1048000001233B7501237B75012387F825300123A4
:10481000BB750023FB61002387F82430002387F851
:1048200026300023BB62012387F82C3001233B7321
:104830004FF480333B614FF480033B624FF40053ED
:10484000BB61012387F82D3000233B630023BB604D
:1048500007F1080319467868FFF708FF00BF98378B
:10486000BD4680BD80B487B000AFF860B9607A60A3
:104870007B6805331B781B027A6804321278134375
:104880007B61BA68114B13441A467B6913607B68DD
:1048900003331B781A067B6802331B781B041A4308
:1048A0007B6801331B781B0213437A681278134329
:1048B0007B61BA68064B13441A467B69136000BFDC
:1048C0001C37BD465DF8047B704700BF4080024046
:1048D0004480024080B485B000AF78600023FB6064
:1048E0003EE07B68D968FA6813469B001344DB00FE
:1048F0000B44BB60BB6800221A60BB6800225A6090
:10490000BB6800229A60BB680022DA60B9687B68E5
:10491000FA68063243F82210BB681B6843F4801221
:10492000BB681A60FB68022B0CD87B68D968FB68EF
:104930005A1C13469B001344DB000B441A46BB6809
:10494000DA6004E07B68DB681A46BB68DA60BB6843
:104950001B6843F44002BB681A60FB680133FB60CC
:10496000FB68032BBDD97B6800229A627B68DA68FA
:104970007B681B6803F580531A6100BF1437BD467E
:104980005DF8047B704780B485B000AF7860002389
:10499000FB6046E07B681969FA6813469B00134484
:1049A000DB000B44BB60BB6800221A60BB680022BE
:1049B0005A60BB6800229A60BB680022DA60BB685C
:1049C00000221A62BB6800225A62BB684FF00042A4
:1049D0001A60BB6844F2F4525A60BB685B6823F00B
:1049E0000042BB685A60B9687B68FA68123243F8C3
:1049F0002210FB68022B0CD87B681969FB685A1CD3
:104A000013469B001344DB000B441A46BB68DA6074
:104A100004E07B681B691A46BB68DA60FB680133F7
:104A2000FB60FB68032BB5D97B680022DA657B68E5
:104A300000221A667B6800229A667B680022DA668A
:104A40007B6800229A657B681A697B681B6803F59E
:104A50008053DA6000BF1437BD465DF8047B7047B1
:104A600080B586B000AFF860B960C7E900230123C4
:104A7000FB75234B1B7E012B01D102233BE0204B16
:104A800001221A764CF2503000F070F80346FB75A4
:104A9000FB7D002B2BD1FB68002B05D13B78194601
:104AA000B86800F01BF916E0FB68012B05D13B88C4
:104AB0001946B86800F0EEF80DE0FB68022B05D14E
:104AC0003B681946B86800F0C3F804E0D7E9002352
:104AD000B86800F08BF84CF2503000F047F803460D
:104AE000FB75084B1B69074A23F001031361044B54
:104AF00000221A76FB7D18461837BD4680BD00BFE0
:104B0000340C0020003C024080B483B000AF00238E
:104B1000FB710B4B1B69002B0BDA094B094A5A60DE
:104B2000074B094A5A60064B1B69002B01DA012327
:104B3000FB71FB7918460C37BD465DF8047B704766
:104B4000003C024023016745AB89EFCD80B400AF44
:104B5000054B1B69044A43F00043136100231846C8
:104B6000BD465DF8047B7047003C024080B584B0D0
:104B700000AF78600023FB601A4B0022DA61FEF779
:104B8000BDF9F86010E07B68B3F1FF3F0CD07B68A3
:104B9000002B07D0FEF7B2F90246FB68D31A7A68F9
:104BA0009A4201D2032319E00F4BDB6803F48033F0
:104BB000002BE8D10C4BDB6803F00103002B02D083
:104BC000094B0122DA60084BDB6803F4F973002B10
:104BD00003D000F0A5F8012300E0002318461037A9
:104BE000BD4680BD340C0020003C024080B485B03E
:104BF00000AFF860C7E90023144B1B69134A23F484
:104C000040731361114B1B69104A43F440731361E5
:104C10000E4B1B690D4A43F001031361FB683A68B0
:104C20001A60BFF36F8F00BFD7E900014FF0000299
:104C30004FF000030A000023F968043113460B60AB
:104C400000BF1437BD465DF8047B7047003C02404E
:104C500080B483B000AF786039600D4B1B690C4A9B
:104C600023F4407313610A4B1B69094A43F4007330
:104C70001361074B1B69064A43F0010313617B680C
:104C80003A681A6000BF0C37BD465DF8047B704778
:104C9000003C024080B483B000AF78600B467B805C
:104CA0000D4B1B690C4A23F4407313610A4B1B69BB
:104CB000094A43F480731361074B1B69064A43F0AA
:104CC000010313617B687A881A8000BF0C37BD46E8
:104CD0005DF8047B704700BF003C024080B483B0A5
:104CE00000AF78600B46FB700C4B1B690B4A23F43A
:104CF00040731361094B094A1B691361074B1B6918
:104D0000064A43F0010313617B68FA781A7000BF0A
:104D10000C37BD465DF8047B704700BF003C024085
:104D200080B400AF2F4BDB6803F01003002B08D0DA
:104D30002D4BDB6943F010032B4AD361294B102222
:104D4000DA60284BDB6803F02003002B08D0264BE9
:104D5000DB6943F00803244AD361224B2022DA6046
:104D6000204BDB6803F04003002B08D01E4BDB69AF
:104D700043F004031C4AD3611A4B4022DA60194BFA
:104D8000DB6803F08003002B08D0174BDB6943F08E
:104D90000203154AD361134B8022DA60114BDB68A2
:104DA00003F48073002B09D00F4BDB6943F0010340
:104DB0000D4AD3610B4B4FF48072DA60094BDB680C
:104DC00003F00203002B08D0074BDB6943F02003FC
:104DD000054AD361034B0222DA6000BFBD465DF88D
:104DE000047B7047003C0240340C002080B584B046
:104DF00000AF786039600123FB730023BB60324B46
:104E00001B7E012B01D102235AE02F4B01221A767F
:104E10004CF25030FFF7AAFE0346FB73FB7B002BDE
:104E20004AD13B684FF0FF321A607B681B68012B48
:104E300017D17B681B69DAB27B685B68194610463C
:104E400000F046F84CF25030FFF790FE0346FB733B
:104E50001E4B1B691D4A23F4004323F00403136116
:104E600028E07B689B68BB601CE07B681B69DBB249
:104E70001946B86800F066F84CF25030FFF776FE3D
:104E80000346FB73114B1B69104A23F0FA031361AD
:104E9000FB7B002B03D03B68BA681A600AE0BB6852
:104EA0000133BB607B68DA687B689B681344BA682F
:104EB0009A42DAD300F094F8034B00221A76FB7B77
:104EC00018461037BD4680BD340C0020003C02401F
:104ED00080B483B000AF03463960FB71184B1B6987
:104EE000174A23F4407313613B68032B08D1144B1A
:104EF0001B69134A43F4004343F0040313610FE0BA
:104F00003B68012B06D10E4B1B690D4A43F004038D
:104F1000136105E00A4B1B69094A43F4004313611E
:104F2000074B1A69FB791B021343054A43F480338C
:104F3000136100BF0C37BD465DF8047B704700BFAE
:104F4000003C024080B485B000AF78600B46FB7037
:104F50000023FB60FB78002B02D10023FB6010E0F4
:104F6000FB78012B03D14FF48073FB6009E0FB78E1
:104F7000022B03D14FF40073FB6002E04FF4407347
:104F8000FB607B680B2B02D97B6804337B60134B7F
:104F90001B69124A23F440731361104B1A690F49BD
:104FA000FB6813430B610D4B1B690C4A23F0F8039C
:104FB00013610A4B1A697B68DB001343074A43F00D
:104FC00002031361054B1B69044A43F480331361E8
:104FD00000BF1437BD465DF8047B7047003C0240BB
:104FE00080B400AF204B1B6803F40073002B17D074
:104FF0001D4B1B681C4A23F4007313601A4B1B687B
:10500000194A43F400631360174B1B68164A23F4D4
:1050100000631360144B1B68134A43F4007313605E
:10502000114B1B6803F48063002B17D00E4B1B68D9
:105030000D4A23F4806313600B4B1B680A4A43F448
:1050400080531360084B1B68074A23F48053136096
:10505000054B1B68044A43F48063136000BFBD46E0
:105060005DF8047B704700BF003C024080B489B00B
:1050700000AF7860396000237B6100233B6100232F
:10508000BB610023FB6177E10122FB6902FA03F3B4
:105090007B613B681B687A6913403B613A697B69B5
:1050A0009A4240F066813B685B6803F00303012B82
:1050B00005D03B685B6803F00303022B30D17B68AB
:1050C0009B68BB61FB695B00032202FA03F3DB43CD
:1050D000BA691340BB613B68DA68FB695B0002FA9E
:1050E00003F3BA691343BB617B68BA699A607B6852
:1050F0005B68BB610122FB6902FA03F3DB43BA6917
:105100001340BB613B685B681B0903F00102FB694C
:1051100002FA03F3BA691343BB617B68BA695A6048
:105120003B685B6803F00303032B17D07B68DB68E5
:10513000BB61FB695B00032202FA03F3DB43BA693C
:105140001340BB613B689A68FB695B0002FA03F39A
:10515000BA691343BB617B68BA69DA603B685B6814
:1051600003F00303022B23D1FB69DA087B680832C2
:1051700053F82230BB61FB6903F007039B000F2249
:1051800002FA03F3DB43BA691340BB613B681A6957
:10519000FB6903F007039B0002FA03F3BA691343A8
:1051A000BB61FB69DA087B680832B96943F82210F1
:1051B0007B681B68BB61FB695B00032202FA03F397
:1051C000DB43BA691340BB613B685B6803F00302D1
:1051D000FB695B0002FA03F3BA691343BB617B68A6
:1051E000BA691A603B685B6803F44033002B00F037
:1051F000C0800023FB60664B5B6C654A43F48043D0
:105200005364634B5B6C03F48043FB60FB68614A4F
:10521000FB699B08023352F82330BB61FB6903F042
:1052200003039B000F2202FA03F3DB43BA69134026
:10523000BB617B68584A934237D07B68574A934298
:1052400031D07B68564A93422BD07B68554A9342B3
:1052500025D07B68544A93421FD07B68534A9342BF
:1052600019D07B68524A934213D07B68514A9342CB
:105270000DD07B68504A934207D07B684F4A9342D7
:1052800001D1092312E00A2310E008230EE00723CE
:105290000CE006230AE0052308E0042306E00323CC
:1052A00004E0022302E0012300E00023FA6902F097
:1052B000030292009340BA691343BB613549FB690D
:1052C0009B080233BA6941F823203D4B9B68BB61C0
:1052D0003B69DB43BA691340BB613B685B6803F41D
:1052E0008013002B03D0BA693B691343BB61344A76
:1052F000BB699360324BDB68BB613B69DB43BA69D6
:105300001340BB613B685B6803F40013002B03D0C0
:10531000BA693B691343BB61294ABB69D360284B17
:105320005B68BB613B69DB43BA691340BB613B68A7
:105330005B6803F40033002B03D0BA693B69134365
:10534000BB611F4ABB6953601D4B1B68BB613B6956
:10535000DB43BA691340BB613B685B6803F480338D
:10536000002B03D0BA693B691343BB61144ABB6984
:105370001360FB690133FB61FB690F2B7FF684AE81
:1053800000BF00BF2437BD465DF8047B704700BFF7
:105390000038024000380140000002400004024092
:1053A00000080240000C02400010024000140240BD
:1053B00000180240001C024000200240002402406D
:1053C000003C014080B485B000AF78600B467B8024
:1053D0007B681A697B881340002B02D00123FB7382
:1053E00001E00023FB73FB7B18461437BD465DF8D4
:1053F000047B704780B483B000AF78600B467B803D
:1054000013467B707B78002B03D07A887B689A6187
:1054100003E07B881A047B689A6100BF0C37BD46A5
:105420005DF8047B704780B485B000AF78600B46B0
:105430007B807B685B69FB607A88FB6813401A0499
:10544000FB68D9437B880B401A437B689A6100BF95
:105450001437BD465DF8047B7047000080B582B00C
:1054600000AF0346FB80084B5A69FB881340002BB2
:1054700006D0054AFB885361FB881846FCF7AAFD55
:1054800000BF0837BD4680BD003C014080B584B0F8
:1054900000AF78607B68002B01D101232BE17B6892
:1054A00093F83D30DBB2002B06D17B68002283F8F5
:1054B0003C207868FBF78EFD7B68242283F83D2032
:1054C0007B681B681A687B681B6822F001021A60FF
:1054D0007B681B681A687B681B6842F400421A608C
:1054E0007B681B681A687B681B6822F400421A609C
:1054F00001F04EFBF8607B685B68814A934207D8F5
:10550000FB68804A934294BF01230023DBB206E08C
:10551000FB687D4A934294BF01230023DBB2002B3A
:1055200001D00123E7E0FB68784AA2FB03239B0C30
:10553000BB607B681B685B6823F03F017B681B686E
:10554000BA680A435A607B681B681B6A23F03F01F4
:105550007B685B686A4A934202D8BB68013309E002
:10556000BB684FF4967202FB03F3694AA2FB032364
:105570009B0901337A6812680B4313627B681B68CE
:10558000DB6923F44F4222F0FF027B685B685C49D1
:105590008B4219D8FB68591E7B685B685B00B1FBC6
:1055A000F3F3591C40F6FC730B40002B0AD0FB6848
:1055B000591E7B685B685B00B1FBF3F30133C3F3F7
:1055C0000B0351E004234FE07B689B68002B11D153
:1055D000FB68581E7B6859680B465B000B44B0FBA8
:1055E000F3F30133C3F30B03002B0CBF01230023A0
:1055F000DBB212E0FB68581E7B6859680B469B00C3
:105600000B4499000B44B0FBF3F30133C3F30B03DA
:10561000002B0CBF01230023DBB2002B01D00123A0
:1056200022E07B689B68002B0ED1FB68581E7B68CC
:1056300059680B465B000B44B0FBF3F30133C3F333
:105640000B0343F400430FE0FB68581E7B68596866
:105650000B469B000B4499000B44B0FBF3F3013362
:10566000C3F30B0343F44043796809681343CB61E8
:105670007B681B681B6823F0C0017B68DA697B6864
:105680001B6A1A437B681B680A431A607B681B68A5
:105690009B6823F4034323F0FF037A6811697A6857
:1056A000D26811437A6812680B4393607B681B6869
:1056B000DB6823F0FF017B685A697B689B691A43AA
:1056C0007B681B680A43DA607B681B681A687B6822
:1056D0001B6842F001021A607B6800221A647B6832
:1056E000202283F83D207B6800221A637B68002219
:1056F00083F83E20002318461037BD4680BD00BF0A
:10570000A08601007F841E00FF083D0083DE1B434E
:10571000D34D621080B588B002AFF8607A601A4647
:105720000B467B8113463B81FDF7E8FB7861FB6804
:1057300093F83D30DBB2202B40F0E0807B69009392
:10574000192301227049F86800F092FA0346002BF1
:1057500001D00223D3E0FB6893F83C30012B01D148
:105760000223CCE0FB68012283F83C20FB681B6825
:105770001B6803F00103012B07D0FB681B681A6844
:10578000FB681B6842F001021A60FB681B681A681C
:10579000FB681B6822F400621A60FB68212283F810
:1057A0003D20FB68102283F83E20FB6800221A642B
:1057B000FB687A685A62FB683A895A85FB685B8D98
:1057C0009AB2FB681A85FB68504ADA6279897B696C
:1057D0003A6AF86800F0CAF90346002B01D00123A9
:1057E0008DE000233B61FB681B685B693B61FB68E4
:1057F0001B689B693B613B6966E07A69396AF868B6
:1058000000F00CFB0346002B0DD0FB681B6C042B37
:1058100007D1FB681B681A68FB681B6842F40072BA
:105820001A6001236BE0FB685B6A1A78FB681B68EF
:105830001A61FB685B6A5A1CFB685A62FB685B8DE5
:105840009BB2013B9AB2FB685A85FB681B8D013BFA
:105850009AB2FB681A85FB681B685B6903F0040356
:10586000042B1BD1FB681B8D002B17D0FB685B6AD8
:105870001A78FB681B681A61FB685B6A5A1CFB6834
:105880005A62FB685B8D9BB2013B9AB2FB685A85FA
:10589000FB681B8D013B9AB2FB681A857A69396AED
:1058A000F86800F0FCFA0346002B0DD0FB681B6C77
:1058B000042B07D1FB681B681A68FB681B6842F45D
:1058C00000721A6001231AE0FB681B8D002B94D133
:1058D000FB681B681A68FB681B6842F400721A6058
:1058E000FB68202283F83D20FB68002283F83E20DD
:1058F000FB68002283F83C20002300E002231846C6
:105900001837BD4680BD00BF020010000000FFFF39
:1059100080B58AB002AFF8607A603B600B467B814D
:10592000FDF7ECFAF8610023BB61FB6893F83D30AA
:10593000DBB2202B40F01181FB6900931923012277
:105940008849F86800F094F90346002B01D002233F
:1059500004E1FB6893F83C30012B01D10223FDE008
:10596000FB68012283F83C20FB681B681B6803F07E
:105970000103012B07D0FB681B681A68FB681B68D2
:1059800042F001021A60FB681B681A68FB681B681A
:1059900022F400621A60FB68242283F83D20FB6831
:1059A00000221A64FB68704ADA62FB681B681A6896
:1059B000FB681B6842F480721A60FB6900933B68C5
:1059C00000224FF00111F86800F052F90346002B55
:1059D0000DD0FB681B681B6803F48073B3F5807FF0
:1059E00003D1FB684FF400721A640323B6E07B898D
:1059F000DBB21A46FB681B6802F0FE021A61FDF773
:105A00007DFAF861FB681B685B6903F00203022BF7
:105A10000CBF01230023DBB2FB75FB681B685B69CD
:105A200003F48063B3F5806F0CBF01230023DBB266
:105A3000BB7525E0FDF762FA0246FB69D31A3A68A6
:105A40009A4202D33B68002B03D1FB68A02283F863
:105A50003D20FB681B685B6903F00203022B0CBF4F
:105A600001230023DBB2FB75FB681B685B6903F451
:105A70008063B3F5806F0CBF01230023DBB2BB75DD
:105A8000FB6893F83D30DBB2A02B05D0FB7D002BEB
:105A900002D1BB7D002BCDD0FB68202283F83D20B6
:105AA000FB681B685B6903F00203022B29D1FB68CA
:105AB0001B681A68FB681B6842F400721A600023B6
:105AC0003B61FB681B685B693B61FB681B689B690A
:105AD0003B613B69FB690093192301222149F86866
